:020000040800F2
:1000000000060020A1410008B1390008B3390008FA
:10001000B5390008B7390008B939000800000000F8
:10002000000000000000000000000000BB390008D4
:10003000BD39000800000000BF390008C1390008C0
:10004000F1410008F5410008F9410008FD410008B0
:100050000142000805420008D13900080D4200089D
:1000600011420008154200080D3A00081D42000820
:100070002142000825420008294200082D420008BC
:100080003142000835420008394200083D4200086C
:100090004142000845420008494200084D4200081C
:1000A0005142000855420008594200085D420008CC
:1000B0006142000865420008694200086D4200087C
:1000C0007142000875420008794200087D4200082C
:1000D0008142000885420008F93A00088D42000874
:1000E000613A0008954200089942000800000000AB
:1000F0000000000000000000000000000000000000
:1001000000000000000000009D420008A14200081D
:10011000A5420008A9420008AD420008B14200080B
:10012000B5420008B9420008BD420008C1420008BB
:10013000C5420008C9420008CD420008D14200086B
:10014000D5420008D9420008DD420008E14200081B
:1001500080B54FF6FF70ADF8000003208DF8020067
:1001600004208DF8030000A9804802F025FD01BDA0
:1001700080B54FF6FF70ADF8000003208DF8020047
:1001800010208DF8030000A9784802F015FD01BD8C
:1001900080B50121782002F02DFC4FF6FF70ADF8FC
:1001A000000003208DF8020010208DF8030000A944
:1001B0006E4802F001FD4FF48040ADF8000000A948
:1001C0006B4802F0F9FC4FF48070ADF8000000A914
:1001D000684802F0F1FC4FF40050ADF8000000A9AF
:1001E000614802F0E9FC4FF40040ADF8000000A9BE
:1001F0005D4802F0E1FC4FF480715E4802F094FD2E
:1002000001BD80B5FFF7C4FF01BD38B504000D0086
:100210004FF48071574802F08AFD4FF40051524864
:1002200002F085FD4FF48041514802F080FD21002D
:1002300089B24E4802F07EFD4FF480414C4802F0F6
:1002400073FD4FF40051484802F06EFD4FF48041B9
:10025000474802F06CFD290089B2444802F06AFD6B
:100260004FF48041424802F05FFD4FF480714148F5
:1002700002F05AFD31BD38B504004FF480713D489D
:1002800002F055FD4FF40051374802F050FD4FF495
:100290008041374802F04BFDE4B2210089B2334877
:1002A00002F048FD4FF48041314802F03DFD4FF42B
:1002B00000512D4802F038FD4FF400412A4802F069
:1002C00036FD4FF40041284802F02EFD274802F089
:1002D00028FD05004FF48071264802F025FD280016
:1002E00080B232BD80B54FF48071224802F01FFD0C
:1002F0004FF400511C4802F01AFD4FF480411C4895
:1003000002F015FD2221194802F014FD4FF480413E
:10031000174802F009FD4FF48071164802F004FD01
:1003200001BD10B504004FF48071124802F0FFFCCB
:100330004FF400510C4802F0F7FC4FF480410C4898
:1003400002F0F5FC210089B2084802F0F3FC4FF4FA
:100350008041074802F0E8FC4FF48071054802F044
:10036000E3FC10BD00000000001401400018014033
:10037000000C01400010014001B481B00198411E01
:10038000019100280AD00020009000984FF47A7163
:100390008842F3D20098401C0090F6E702B0704704
:1003A0000000000010B5FFF72CFF0520FFF7E4FF69
:1003B00001210020FFF729FF0520FFF7DDFFFFF7F0
:1003C000C7FE0120FFF7D8FF0020FFF754FFDFF83A
:1003D000701B0880FFF7CCFE0120FFF7CDFFDFF890
:1003E000600B008849F22531884207D0DFF8500BB6
:1003F000008849F22831884240F0648143F20801C4
:10040000E320FFF702FF1221E720FFF7FEFE41F293
:100410003121EF20FFF7F9FE01210020FFF7F5FE63
:100420004FF480710120FFF7F0FE4FF4E0610220ED
:10043000FFF7EBFE41F230010320FFF7E6FE00215B
:100440000420FFF7E2FE40F207210820FFF7DDFE5F
:1004500000210920FFF7D9FE00210A20FFF7D5FE71
:1004600001210C20FFF7D1FE00210D20FFF7CDFE6A
:1004700000210F20FFF7C9FE00211020FFF7C5FE65
:1004800007211120FFF7C1FE00211220FFF7BDFE5A
:1004900000211320FFF7B9FE4CF250300400A4B243
:1004A000012C01D3641EFAE74CF250300400A4B2D0
:1004B000012C01D3641EFAE741F290511020FFF79E
:1004C000A4FE40F227211120FFF79FFE4CF250308E
:1004D0000400A4B2012C01D3641EFAE74CF25030A0
:1004E0000400A4B2012C01D3641EFAE79C2112205F
:1004F000FFF78BFE4CF250300400A4B2012C01D364
:10050000641EFAE74CF250300400A4B2012C01D36F
:10051000641EFAE74FF4C8511320FFF776FE23213B
:100520002920FFF772FE0E212B20FFF76EFE4CF202
:1005300050300400A4B2012C01D3641EFAE74CF23F
:1005400050300400A4B2012C01D3641EFAE700214C
:100550002020FFF75AFE00212120FFF756FE4CF223
:1005600050300400A4B2012C01D3641EFAE74CF20F
:1005700050300400A4B2012C01D3641EFAE7072115
:100580003020FFF742FE40F207713120FFF73DFEB9
:1005900006213220FFF739FE40F204713520FFF7C3
:1005A00034FE41F604713620FFF72FFE0421372078
:1005B000FFF72BFE00213820FFF727FE40F20671DF
:1005C0003920FFF722FE40F201713C20FFF71DFEAB
:1005D0000F213D20FFF719FE4CF250300400A4B269
:1005E000012C01D3641EFAE74CF250300400A4B28F
:1005F000012C01D3641EFAE700215020FFF705FE0D
:10060000EF215120FFF701FE00215220FFF7FDFDF1
:1006100040F23F115320FFF7F8FD4FF427416020CF
:10062000FFF7F3FD01216120FFF7EFFD00216A20B4
:10063000FFF7EBFD00218020FFF7E7FD002181207F
:10064000FFF7E3FD00218220FFF7DFFD002183207B
:10065000FFF7DBFD00218420FFF7D7FD0021852077
:10066000FFF7D3FD10219020FFF7CFFD4FF4C061BD
:100670009220FFF7CAFDDFF8C808008849F2283148
:10068000884210D103219320FFF7BFFD4FF48871FA
:100690009520FFF7BAFD00219720FFF7B6FD002156
:1006A0009820FFF7B2FD40F233110720FFF7ADFDB0
:1006B00000212020FFF7A9FD00212120FFF7A5FD43
:1006C00000F03CBCDFF87808008849F2203188420D
:1006D00006D0DFF86C080088B0F5134F40F0C680F4
:1006E00001210020FFF791FD4FF480710120FFF7F9
:1006F0008CFD4FF4E0610220FFF787FD41F22801F5
:100700000320FFF782FD00210420FFF77EFD40F269
:1007100002210820FFF779FD00210920FFF775FD70
:1007200000210A20FFF771FD01210C20FFF76DFD6C
:1007300000210D20FFF769FD00210F20FFF765FD67
:100740004CF250300400A4B2012C01D3641EFAE72D
:1007500040F201110720FFF758FD4CF25030040021
:10076000A4B2012C01D3641EFAE74FF48651102085
:10077000FFF74BFD07211120FFF747FD4FF488716C
:100780001220FFF742FD4FF430611320FFF73DFDCB
:1007900000212920FFF739FD44F210012B20FFF73B
:1007A00034FD00215020FFF730FDEF215120FFF7ED
:1007B0002CFD00215220FFF728FD40F23F1153206D
:1007C000FFF723FD4FF41C516020FFF71EFD0121B0
:1007D0006120FFF71AFD00216A20FFF716FD0021B6
:1007E0008020FFF712FD00218120FFF70EFD002180
:1007F0008220FFF70AFD00218320FFF706FD00217C
:100800008420FFF702FD00218520FFF7FEFC102168
:100810009020FFF7FAFC00219220FFF7F6FC01215F
:100820009320FFF7F2FC4FF488719520FFF7EDFC61
:1008300000219720FFF7E9FC00219820FFF7E5FC55
:100840004CF250300400A4B2012C01D3641EFAE72C
:1008500040F273110720FFF7D8FC4CF2503004002F
:10086000A4B2012CC0F06A83641EF9E7DFF8D00659
:10087000008849F23131884240F0F28041F214019F
:10088000E720FFF7C2FC4FF480710120FFF7BDFCA9
:100890004FF400710220FFF7B8FC41F23001032051
:1008A000FFF7B3FC40F202210820FFF7AEFC002165
:1008B0000920FFF7AAFC00210A20FFF7A6FC00216F
:1008C0000C20FFF7A2FC00210D20FFF79EFC002169
:1008D0000F20FFF79AFC00211020FFF796FC07215C
:1008E0001120FFF792FC00211220FFF78EFC00215F
:1008F0001320FFF78AFCC82000F0E0FB41F2906172
:100900001020FFF782FC40F227211120FFF77DFC29
:10091000322000F0D3FB0C211220FFF776FC3220AE
:1009200000F0CCFB4FF400611320FFF76EFC1121A7
:100930002920FFF76AFC0B212B20FFF766FC3220F1
:1009400000F0BCFB00212020FFF75FFC00212120EC
:10095000FFF75BFC00213020FFF757FC4FF4837159
:100960003120FFF752FC00213220FFF74EFC4FF4FC
:1009700001713520FFF749FC41F20A613620FFF78B
:1009800044FC40F207713720FFF73FFC4FF48371BE
:100990003820FFF73AFC40F207713920FFF735FCA9
:1009A00040F202413C20FFF730FC40F60F413D2071
:1009B000FFF72BFC00215020FFF727FCEF215120EF
:1009C000FFF723FC00215220FFF71FFC40F23F11EC
:1009D0005320FFF71AFC4FF41C516020FFF715FC61
:1009E00001216120FFF711FC00216A20FFF70DFCB7
:1009F00000218020FFF709FC00218120FFF705FC82
:100A000000218220FFF701FC00218320FFF7FDFB7E
:100A100000218420FFF7F9FB00218520FFF7F5FB7B
:100A200010219020FFF7F1FB4FF4C0619220FFF7F7
:100A3000ECFB21210720FFF7E8FB322000F03EFB12
:100A400061210720FFF7E1FB322000F037FB40F285
:100A500033110720FFF7D9FB322000F02FFB6DE2A6
:100A6000DFF8DC04008849F61911884240F08B80D9
:100A700006212820FFF7C9FB01210020FFF7C5FB55
:100A800000211020FFF7C1FB47F2EF210120FFF703
:100A9000BCFB4FF4C0610220FFF7B7FB46F63821DC
:100AA0000320FFF7B2FB46F674011120FFF7ADFB00
:100AB00000210F20FFF7A9FB45F208310B20FFF7BB
:100AC000A4FB03210C20FFF7A0FB0A210D20FFF758
:100AD0009CFB4FF438510E20FFF797FBBE211E20E0
:100AE000FFF793FB4FF400412520FFF78EFB4FF4F7
:100AF000F0412620FFF789FB78212720FFF785FBAF
:100B000000214E20FFF781FB00214F20FFF77DFBE6
:100B100040F6D9011220FFF778FB00213020FFF7C3
:100B200074FB4FF482713120FFF76FFB4FF480713B
:100B30003220FFF76AFB40F205313320FFF765FBF7
:100B400040F205513420FFF760FB40F205313520BB
:100B5000FFF75BFB40F207713620FFF756FB4FF4BF
:100B600040713720FFF751FB4FF490513A20FFF7C7
:100B70004CFB4FF400613B20FFF747FB332107207C
:100B8000FFF743FBDAE1EE48008841F20551884265
:100B900040F0138100210720FFF737FB052000F00C
:100BA0008DFA4FF48E711220FFF72FFB0121A42044
:100BB000FFF72BFB0F210820FFF727FB08210A2056
:100BC000FFF723FB08210D20FFF71FFB40F2077101
:100BD0003020FFF71AFB07213120FFF716FB40F208
:100BE00003613220FFF711FB4FF4E0613320FFF780
:100BF0000CFB40F202213420FFF707FB02213520D5
:100C0000FFF703FB41F60F713620FFF7FEFA40F2C3
:100C100007713720FFF7F9FA00213820FFF7F5FABE
:100C200000213920FFF7F1FA40F207713A20FFF76F
:100C3000ECFA00213B20FFF7E8FA07213C20FFF700
:100C4000E4FA00213D20FFF7E0FA052000F036FA33
:100C500001210720FFF7D9FA01211720FFF7D5FA64
:100C6000052000F02BFA4FF4BD511020FFF7CDFA0C
:100C700040F217211120FFF7C8FA4FF48F711220AC
:100C8000FFF7C3FA4FF470611320FFF7BEFA00219B
:100C90002A20FFF7BAFA0A212920FFF7B6FA4FF403
:100CA0009F711220FFF7B1FA00215020FFF7ADFA33
:100CB000EF215120FFF7A9FA00215220FFF7A5FAF2
:100CC00040F23F115320FFF7A0FA4FF41C5160206F
:100CD000FFF79BFA01216120FFF797FA00216A20B4
:100CE000FFF793FA00218020FFF78FFA002181207F
:100CF000FFF78BFA00218220FFF787FA002183207B
:100D0000FFF783FA00218420FFF77FFA0021852076
:100D1000FFF77BFA13219020FFF777FA4FF4407129
:100D20009220FFF772FA05219320FFF76EFA002157
:100D30009520FFF76AFA00219720FFF766FA002155
:100D40009820FFF762FA4FF480710120FFF75DFAF7
:100D50004FF4E0610220FFF758FA41F2300103201E
:100D6000FFF753FA00210420FFF74FFA00210C206F
:100D7000FFF74BFA00210F20FFF747FA0021202050
:100D8000FFF743FA00212120FFF73FFA2121072036
:100D9000FFF73BFA142000F091F961210720FFF7DB
:100DA00034FA142000F08AF940F273110720FFF79B
:100DB0002CFA142000F082F9C0E06148008848F65F
:100DC0008911884240F0BA8001210020FFF71DFA06
:100DD0004AF6A4010320FFF718FA00210C20FFF7C0
:100DE00014FA40F60C010D20FFF70FFA4FF42C51C6
:100DF0000E20FFF70AFAB0211E20FFF706FA42F68E
:100E00003F110120FFF701FA4FF4C0610220FFF704
:100E1000FCF900211020FFF7F8F946F270011120CB
:100E2000FFF7F3F900210520FFF7EFF90021062075
:100E3000FFF7EBF94EF61C711620FFF7E6F90321D8
:100E40001720FFF7E2F940F233210720FFF7DDF921
:100E500000210B20FFF7D9F900210F20FFF7D5F96A
:100E600000214120FFF7D1F900214220FFF7CDF901
:100E700000214820FFF7C9F940F23F114920FFF750
:100E8000C4F900214A20FFF7C0F900214B20FFF7E9
:100E9000BCF94FF46F414420FFF7B7F9002145201A
:100EA000FFF7B3F940F23F114620FFF7AEF940F2E9
:100EB00007713020FFF7A9F94FF401713120FFF7D6
:100EC000A4F94FF401713220FFF79FF940F202516B
:100ED0003320FFF79AF940F207513420FFF795F9D4
:100EE0004FF401713520FFF790F94FF4017136206E
:100EF000FFF78BF940F202513720FFF786F940F2F5
:100F000002313A20FFF781F940F202313B20FFF72E
:100F10007CF900212320FFF778F900212420FFF736
:100F200074F94FF400412520FFF76FF900214E209E
:100F3000FFF76BF900214F20FFF767F910BD00BFE5
:100F40003C06002038B504000020050000210020E8
:100F500002F0DEFFFFF7C6F94FF48071114801F08F
:100F6000E6FE4FF40051104801F0DEFE00200500BF
:100F7000B5F5963F10D24FF480410C4801F0D7FEF2
:100F8000210089B20A4801F0D5FE4FF4804107489C
:100F900001F0CAFE6D1CEBE74FF48071014801F0CF
:100FA000C3FE31BD0010014000140140000C01409F
:100FB0000018014070B506000C001500210089B230
:100FC000300080B202F0A4FFFFF78CF9280080B255
:100FD000FFF7A7F970BD00002DE9F84F04000D00E0
:100FE00093469946DDF828A000200600002007005F
:100FF000002080461FFA8AFABAF1010F28D100209A
:101000000600B6B2102E55D25FFA8BFBB6B216EBC5
:101010000B1029494018B0F5007000788046002078
:101020000700BFB2082F11D25FFA88F8D7F1070086
:1010300058FA00F0C00707D54A4692B2711989B232
:10104000381980B2FFF7B6FF7F1CEAE7761CD8E7B5
:1010500000200600B6B2102E2CD25FFA8BFBB6B27F
:1010600016EB0B1014494018B0F50070007880465C
:1010700000200700BFB2082F1AD25FFA88F8D7F114
:10108000070058FA00F0C00708D54A4692B2711915
:1010900089B2381980B2FFF78DFF07E0524692B24D
:1010A000711989B2381980B2FFF784FF7F1CE1E71C
:1010B000761CCFE7BDE8F18F981A000801B50098BB
:1010C000FFF75AF901BD000010B504002E48007862
:1010D0003328FBD272B62C480078002804D014487C
:1010E00000782A49445411E0012240F226612E483A
:1010F00002F0C0F82C48008880B2002801D10120FD
:1011000000E00020C0B22248E4B204800848007821
:10111000401C07490870C0B2332802D3044800219C
:10112000017019480078401C1749087062B610BD5C
:101130004106002080B514480078002804D01248E9
:101140000078FF30104908700E480078401C0D49A7
:101150000870C0B2332802D30A48002101700A483F
:101160000078002806D0074800780849405C084904
:10117000088005E0002240F226610B4802F07AF870
:1011800001BD00BF400600204206002000060020EE
:101190000444004080B5044802F09BF801490870FF
:1011A00001BD00BF4306002000440040DFF8E428F2
:1011B00012688218521E1100DFF8D8281268521ADD
:1011C000002AF9D4704700002DE9F04188B000F002
:1011D00099FFFFF7E7F81F20FFF7B4FE02F09EFF2C
:1011E00002F0A2FFDFF8AC08006800F2E730070069
:1011F000DFF8A0080068381A0028F9D5DFF894084D
:10120000006800F2E730070002F089FFADF8040043
:1012100002F087FF02901F2000904FF47843422293
:1012200000210020FFF7D8FE1F2000904FF47843E4
:101230004D2200210820FFF7CFFE1F2000904FF421
:101240007843502200211020FFF7C6FE1F20009097
:101250004FF47843302200211820FFF7BDFE1F20F5
:1012600000904FF47843382200212020FFF7B4FE8D
:101270001F2000904FF47843352200212820FFF7EB
:10128000ABFE1F2000904FF478432D220021302028
:10129000FFF7A2FE1F2000904FF478432D2200217B
:1012A0003820FFF799FE1F2000904FF47843542216
:1012B00000214020FFF790FE1F2000904FF478435C
:1012C0003A2200214820FFF787FE1F2000904FF4AC
:1012D0007843BDF90400642190FBF1F010F1300275
:1012E000D2B200215020FFF777FEBDF9040064213F
:1012F0001F2200924FF4784390FBF1F201FB1200A1
:101300000A2190FBF1F010F13002D2B200215820F6
:10131000FFF762FE1F2000904FF478432E22002139
:101320006020FFF759FEBDF904000A211F22009238
:101330004FF4784390FBF1F201FB120010F1300200
:10134000D2B200216820FFF747FE1F2000904FF423
:1013500078432D2200217020FFF73EFE1F200090D1
:101360004FF478432D2200217820FFF735FE1F200F
:1013700000904FF47843502200218020FFF72CFE8C
:101380001F2000904FF478433A2200218820FFF775
:1013900023FE1F2000904FF478430298DFF8EC16EC
:1013A000B0FBF1F010F13002D2B200219020FFF733
:1013B00013FE0298DFF8D4161F2200924FF47843F0
:1013C000B0FBF1F201FB120042F21071B0FBF1F040
:1013D00010F13002D2B200219820FFF7FDFD0298F3
:1013E00042F210711F2200924FF47843B0FBF1F2E9
:1013F00001FB12004FF47A71B0FBF1F010F13002F2
:10140000D2B20021A020FFF7E7FD02984FF47A71D5
:101410001F2200924FF47843B0FBF1F201FB12005F
:101420006421B0FBF1F010F13002D2B20021A8200B
:10143000FFF7D2FD029864211F2200924FF47843F7
:10144000B0FBF1F201FB12000A21B0FBF1F010F148
:101450003002D2B20021B020FFF7BEFD02980A216F
:101460001F2200924FF47843B0FBF1F201FB12000F
:1014700010F13002D2B20021B820FFF7ADFD05A96E
:1014800006A802F052FE00282FD002F04DFE1F20C9
:1014900000904FF478432D221421B820FFF79CFDD3
:1014A0001F2000904FF478432D221421C020FFF715
:1014B00093FD1F2000904FF4784345221421C8204B
:1014C000FFF78AFD1F2000904FF478435222142129
:1014D000D020FFF781FD1F2000904FF47843522267
:1014E0001421D820FFF778FD17E11F2000904FF45A
:1014F0007843532214210020FFF76EFD1F20009037
:101500004FF47843482214210820FFF765FD1F207F
:1015100000904FF47843542214211020FFF75CFD13
:101520001F2000904FF47843312214211820FFF738
:1015300053FD1F2000904FF478437822142120207F
:10154000FFF74AFD1F2000904FF478432D2214210D
:101550002820FFF741FD1F2000904FF478432D22F3
:1015600014213020FFF738FD1F2000904FF47843FE
:10157000542214213820FFF72FFD1F2000904FF434
:1015800078433A2214214020FFF726FD1F200090C7
:101590004FF478439846069802F04AFDC0B20A21FB
:1015A00090FBF1F010F130024346D2B214214820F2
:1015B000FFF712FD069802F03BFDC0B20A211F2280
:1015C00000924FF4784390FBF1F201FB120010F10E
:1015D0003002D2B214215020FFF7FEFC1F200090F1
:1015E0004FF478432E2214215820FFF7F5FC06987B
:1015F000DFF89C1402F0CEFB02F01AFD80B20A2143
:101600001F2200924FF4784390FBF1F201FB12008D
:1016100010F13002D2B214216020FFF7DDFC1F2050
:1016200000904FF478432D2214216820FFF7D4FC5A
:101630001F2000904FF478432D2214217020FFF7D3
:10164000CBFC1F2000904FF47843482214217820CF
:10165000FFF7C2FC1F2000904FF478435222142160
:101660008020FFF7B9FC1F2000904FF478433A2206
:1016700014218820FFF7B0FC1F2000904FF478431E
:101680009846059802F0D4FCC0B20A2190FBF1F014
:1016900010F130024346D2B214219020FFF79CFC97
:1016A000059802F0C5FCC0B20A211F2200924FF437
:1016B000784390FBF1F201FB120010F13002D2B23C
:1016C00014219820FFF788FC1F2000904FF47843E6
:1016D0002E221421A020FFF77FFC0598EC4902F090
:1016E00059FB02F0A5FC80B20A211F2200924FF4A0
:1016F000784390FBF1F201FB120010F13002D2B2FC
:101700001421A820FFF768FC1F2000904FF47843B5
:1017100025221421B020FFF75FFC02F00BFD03909F
:101720001F2000904FF478434C2228210020FFF71F
:1017300053FC1F2000904FF4784369222821082091
:10174000FFF74AFC1F2000904FF4784367222821BE
:101750001020FFF741FC1F2000904FF478436822CF
:1017600028211820FFF738FC1F2000904FF4784301
:10177000742228212020FFF72FFC1F2000904FF417
:1017800078432D2228212820FFF726FC1F200090D7
:101790004FF478432D2228213020FFF71DFC1F2015
:1017A00000904FF478439846039802F041FC80B2D1
:1017B000642190FBF1F010F130024346D2B22821AF
:1017C0003820FFF709FC039802F032FC80B2642154
:1017D0001F2200924FF4784390FBF1F201FB1200BC
:1017E0000A2190FBF1F010F13002D2B22821402002
:1017F000FFF7F2FB039802F01BFC80B20A211F22C4
:1018000000924FF4784390FBF1F201FB120010F1CB
:101810003002D2B228214820FFF7DEFB1F200090C3
:101820004FF478432E2228215020FFF7D5FB039850
:10183000974902F0AFFA02F0FBFB80B20A211F22A7
:1018400000924FF4784390FBF1F201FB120010F18B
:101850003002D2B228215820FFF7BEFB1F20009093
:101860004FF478436C2228216020FFF7B5FB1F203E
:1018700000904FF47843752228216820FFF7ACFBD5
:101880001F2000904FF47843782228217020FFF722
:10189000A3FB02F050FC02F04FFC04901F200090CC
:1018A0004FF4784352223C210020FFF795FB1F2084
:1018B00000904FF4784361223C210820FFF78CFB15
:1018C0001F2000904FF4784369223C211020FFF73D
:1018D00083FB1F2000904FF478436E223C21182098
:1018E000FFF77AFB1F2000904FF478432D223C2114
:1018F0002020FFF771FB1F2000904FF478432D222A
:101900003C212820FFF768FB1F2000904FF478430C
:101910009846049802F08CFBC0B20A2190FBF1F0CB
:1019200010F130024346D2B23C213020FFF754FB85
:10193000049802F07DFBC0B20A211F2200924FF4EE
:10194000784390FBF1F201FB120010F13002D2B2A9
:101950003C213820FFF740FB1F2000904FF47843D4
:101960002E223C214020FFF737FB0498484902F023
:1019700011FA02F05DFB80B20A211F2200924FF49F
:10198000784390FBF1F201FB120010F13002D2B269
:101990003C214820FFF720FB1F2000904FF47843A4
:1019A00025223C215020FFF717FBB520FFF78CFBC9
:1019B0006220FFF789FB1620FFF786FB1620050043
:1019C00001A8040000200600F6B2022E08D2F6B2EA
:1019D000305DFFF779FBF6B2305D4540761CF3E7EA
:1019E00002A8040000200600F6B2042E08D2F6B2C7
:1019F000305DFFF769FBF6B2305D4540761CF3E7DA
:101A000006A8040000200600F6B2042E08D2F6B2A2
:101A1000305DFFF759FBF6B2305D4540761CF3E7C9
:101A200005A8040000200600F6B2042E08D2F6B283
:101A3000305DFFF749FBF6B2305D4540761CF3E7B9
:101A400003A8040000200600F6B2042E08D2F6B265
:101A5000305DFFF739FBF6B2305D4540761CF3E7A9
:101A600004A8040000200600F6B2042E08D2F6B244
:101A7000305DFFF729FBF6B2305D4540761CF3E799
:101A80002800C0B2FFF720FBFFF7B2BBA086010021
:101A90000000204138060020000000000000000087
:101AA00000000000000000000000183C3C3C18183A
:101AB0001800181800000000006666662400000088
:101AC00000000000000000000000006C6CFE6C6C68
:101AD0006CFE6C6C0000000018187CC6C2C07C064E
:101AE00086C67C181800000000000000C2C60C1852
:101AF0003060C686000000000000386C6C3876DC70
:101B0000CCCCCC760000000000303030600000000B
:101B1000000000000000000000000C1830303030E1
:101B20003030180C00000000000030180C0C0C0CB9
:101B30000C0C1830000000000000000000663CFFA4
:101B40003C66000000000000000000000018187E45
:101B50001818000000000000000000000000000055
:101B6000001818183000000000000000000000FEFF
:101B70000000000000000000000000000000000065
:101B800000001818000000000000000002060C18F9
:101B90003060C0800000000000007CC6C6CED6D6F3
:101BA000E6C6C67C00000000000018387818181837
:101BB0001818187E0000000000007CC6060C1830C3
:101BC00060C0C6FE0000000000007CC606063C06A1
:101BD0000606C67C0000000000000C1C3C6CCCFE1D
:101BE0000C0C0C1E000000000000FEC0C0C0FC0E6B
:101BF0000606C67C0000000000003860C0C0FCC6BD
:101C0000C6C6C67C000000000000FEC606060C1812
:101C1000303030300000000000007CC6C6C67CC6F4
:101C2000C6C6C67C0000000000007CC6C6C67E0694
:101C300006060C78000000000000000018180000E4
:101C40000018180000000000000000001818000034
:101C50000018183000000000000000060C1830606A
:101C600030180C0600000000000000000000FE001C
:101C700000FE0000000000000000006030180C06AC
:101C80000C1830600000000000007CC6C60C18185C
:101C900018001818000000000000007CC6C6DEDE38
:101CA000DEDCC07C00000000000010386CC6C6FE00
:101CB000C6C6C6C6000000000000FC6666667C66FC
:101CC000666666FC0000000000003C66C2C0C0C042
:101CD000C0C2663C000000000000F86C66666666E4
:101CE00066666CF8000000000000FE6662687868B6
:101CF000606266FE000000000000FE6662687868B0
:101D0000606060F00000000000003C66C2C0C0DE01
:101D1000C6C6663A000000000000C6C6C6C6FEC6BB
:101D2000C6C6C6C60000000000003C1818181818E7
:101D30001818183C0000000000001E0C0C0C0C0CC5
:101D4000CCCCCC78000000000000E6666C6C7878A3
:101D50006C6666E6000000000000F0606060606095
:101D6000606266FE000000000000C6EEFEFED6C601
:101D7000C6C6C6C6000000000000C6E6F6FEDECEFF
:101D8000C6C6C6C6000000000000386CC6C6C6C67F
:101D9000C6C66C38000000000000FC6666667C6009
:101DA000606060F00000000000007CC6C6C6C6C6C9
:101DB000C6D6DE7C0C0E00000000FC6666667C6CFD
:101DC000666666E60000000000007CC6C660380C4F
:101DD00006C6C67C0000000000007E7E5A18181857
:101DE0001818183C000000000000C6C6C6C6C6C6CB
:101DF000C6C6C67C000000000000C6C6C6C6C6C671
:101E0000C66C3810000000000000C6C6C6C6C6D6A4
:101E1000D6FE6C6C000000000000C6C66C6C383842
:101E20006C6CC6C6000000000000666666663C1862
:101E30001818183C000000000000FEC6860C183080
:101E400060C2C6FE0000000000003C303030303080
:101E50003030303C0000000000000080C0E07038EE
:101E60001C0E06020000000000003C0C0C0C0C0CC8
:101E70000C0C0C3C0000000010386CC60000000088
:101E80000000000000000000000000000000000052
:101E90000000000000FF00003030180000000000CB
:101EA00000000000000000000000000000780C7C32
:101EB000CCCCCC76000000000000E06060786C665E
:101EC000666666DC0000000000000000007CC6C002
:101ED000C0C0C67C0000000000001C0C0C3C6CCC98
:101EE000CCCCCC760000000000000000007CC6FED8
:101EF000C0C0C67C000000000000386C6460F06068
:101F0000606060F000000000000000000076CCCCB3
:101F1000CCCCCC7C0CCC78000000E060606C7666A9
:101F2000666666E600000000000018180038181801
:101F30001818183C0000000000000606000E0606F7
:101F40000606060666663C000000E06060666C7887
:101F5000786C66E6000000000000381818181818A1
:101F60001818183C000000000000000000ECFED62D
:101F7000D6D6D6D6000000000000000000DC666661
:101F8000666666660000000000000000007CC6C6B1
:101F9000C6C6C67C000000000000000000DC6666CB
:101FA0006666667C6060F000000000000076CCCCC5
:101FB000CCCCCC7C0C0C1E000000000000DC766257
:101FC000606060F00000000000000000007CC6605F
:101FD000380CC67C000000000000103030FC3030AF
:101FE0003030361C000000000000000000CCCCCCDB
:101FF000CCCCCC76000000000000000000666666D5
:1020000066663C18000000000000000000C6C6C65E
:10201000D6D6FE6C000000000000000000C66C3840
:1020200038386CC6000000000000000000C6C6C6BC
:10203000C6C6C67E060CF8000000000000FECC18E4
:102040003060C6FE0000000000000E18181870185E
:102050001818180E000000000000181818180018B2
:1020600018181818000000000000701818180E1832
:102070001818187000000000000076DC0000000056
:1020800000000000000000000000000010386CC6D6
:10209000C6C6FE000000000040B2002808D540B2CD
:1020A00010F00F02054BD2180B0102F8043C03E0BC
:1020B00040B2034A0B018354704700BF18ED00E0A3
:1020C00000E400E010B50400B4F1807F01D30120EA
:1020D00010E02002000A401E074908600F215FF04F
:1020E000FF30FFF7D9FF05480021016004480721B0
:1020F0000160002010BD00BF14E000E018E000E027
:1021000010E000E080B500F011F800F067F800F092
:102110001FF900F089F900F0EBF900F023FA00F064
:102120004DFA00F039F900F00DFA01BD10B500F0DC
:1021300063FA5FF4803000F09DFA00F0C5FA040005
:1021400064B2012C46D1102001F0A1FF022001F061
:1021500091FF002000F02EFB002000F041FB4FF427
:10216000806000F032FB4FF4004000F045FB40205F
:1021700000F0F4FA4FF4C06000F0FBFA012000F028
:1021800003FB3B2000F07EFC0028FAD004215FF422
:10219000803000F0D1FA5FF4E0115FF4803000F09D
:1021A000B5FA012000F0C2FA392000F06BFC0028DB
:1021B000FAD0022000F0EEFA00F0F7FA0828FBD17E
:1021C0000121054800F028FC012140F23D6000F0AB
:1021D00011FC00E0FEE710BD0100220080B5574869
:1021E00000F084FC564800F081FC564800F07EFC6C
:1021F000554800F07BFC554800F078FC0121082090
:1022000000F09CFD0820ADF8000014208DF80300BC
:1022100003208DF8020000A9484800F0CDFC0821F9
:10222000464800F081FD9C20ADF8000010208DF89C
:10223000030000A9444800F0BFFC9C21424800F084
:1022400073FD0120ADF8000048208DF80300032045
:102250008DF8020000A9394800F0AEFC4FF4806010
:10226000ADF8000000A9364800F0A6FC42F21000CC
:10227000ADF8000000A9334800F09EFC00210020CA
:1022800000F0AAFD0A21012000F0A6FD0421022091
:1022900000F0A2FD0D21022000F09EFD0120ADF80E
:1022A000000000208DF8030000A9254800F084FC00
:1022B0001020ADF8000000A9204800F07DFC20208F
:1022C000ADF8000018208DF8030000A91E4800F0AA
:1022D00073FC4020ADF8000004208DF8030000A935
:1022E000194800F069FCC020ADF800001C208DF8F2
:1022F000030003208DF8020000A9114800F05CFCE7
:102300004FF48040ADF8000010208DF8030003204A
:102310008DF8020000A90B4800F04EFC4FF400704D
:10232000ADF8000014208DF8030003208DF80200A2
:1023300000A9024800F040FC01BD00BF00080140B8
:10234000000C014000100140001401400018014041
:1023500000B583B001F09CFC0120009000208DF8B6
:1023600004000C208DF8050001208DF8060000A85F
:1023700001F0A0FC1020009000A801F09BFC4FF49D
:102380008060009000A801F095FC4FF40050009090
:1023900000A801F08FFC07BD80B500215FF0006050
:1023A00001F0ACFD4FF4A06001F060FD06208DF857
:1023B000000003208DF8010001208DF802000120AB
:1023C0008DF8030000A801F059FD0A208DF80000E7
:1023D00003208DF8010001208DF8020001208DF806
:1023E000030000A801F04AFD28208DF8000003201A
:1023F0008DF8010001208DF8020001208DF8030006
:1024000000A801F03BFD26208DF8000003208DF888
:10241000010001208DF8020001208DF8030000A8C2
:1024200001F02CFD01BD000030B585B02D4800F055
:102430008FFF0020009000208DF8040000208DF810
:1024400005005FF4602002900020039001208DF8C9
:10245000100000A9234800F0ADFF012001F096F81C
:102460000121204800F0D4FF1E4800F0DEFF1D4887
:1024700000F0E0FF0028FAD11A4800F0E8FF194800
:1024800000F0EAFF0028FAD100200500062301220F
:102490001121144800F0FAFF00200400E4B2102CCF
:1024A00010D201210F4800F0E4FF02210D4801F095
:1024B00081F80028F9D00B4801F065F840190500B3
:1024C000641CEBE7280001F045FE02000B005FF002
:1024D0003330054901F07CF801F062FD03490860E2
:1024E00005B030BD002401403333F34034060020F2
:1024F00000B585B04FF4165000900020ADF80400F0
:102500000020ADF806000020ADF808000020ADF86E
:102510000C000C20ADF80A00094800F0D9FD00A914
:10252000074800F025FE012240F22551044800F042
:10253000A1FE0121024800F08FFE05B000BD00BFE2
:102540000044004080B50648FFF7BCFD002800D0DD
:10255000FEE700215FF0FF30FFF79EFD01BD00BFE9
:102560004019010000B585B0124801F0DBFA0020E7
:10257000ADF804004BF6FF70ADF80600A020ADF8F2
:1025800008004FF48060ADF80A004FF48040ADF8C9
:102590000C00094800900121064801F05DFB00A9EC
:1025A000044801F0DDFA0121024801F063FB05B0A7
:1025B00000BD00BF00540040801A0600E0B54FF691
:1025C000FF70ADF804004720ADF800000020ADF822
:1025D00006000020ADF802005FF0804000F028FC0B
:1025E00000A95FF0804000F011FD01215FF0804004
:1025F00000F060FD07BD0000DFF8E004006850F067
:102600000100DFF8D8140860DFF8E4030068174918
:102610000840DFF8DC130860DFF8C00400681449E4
:102620000840DFF8B8140860DFF8B004006830F440
:102630008020DFF8A8140860DFF8B403006830F4E5
:10264000FE00DFF8AC130860DFF89004006830F09B
:10265000A050DFF888140860DFF88C045FF47F0175
:102660000160DFF888030021016070470000FFF07F
:10267000FFFFF6FEDFF86414096831F48031DFF8FB
:102680005C241160DFF85414096831F48021DFF80C
:102690004C2411600100B1F5803F03D0B1F5802FCB
:1026A00009D010E0DFF83414096851F48031DFF804
:1026B0002C24116007E0DFF82414096851F4A021EC
:1026C000DFF818241160704738B500200090002012
:1026D000040000200500312000F0D4F90500009826
:1026E000401C00900098B0F5A06F02D06DB2002D94
:1026F000F1D0312000F0C6F9002802D001200400FA
:1027000001E000200400200040B232BD00231A0086
:10271000DFF8DC321B681A0032F4741251EA00034D
:102720001A43DFF8CC321A6070470000014940B20A
:10273000086070476000424200231A00DFF8AC32A4
:102740001B681A00044B1A4051EA00031A43DFF8D1
:102750009C321A60704700BFF0FFFEFF002211009C
:10276000A24A1268110031F0F00101439F4A116042
:102770007047002211009D4A1268110031F4706107
:1027800001439A4A11607047014940B2086070479E
:102790006800424200221100954A1268110089081F
:1027A00089000143924A116070479148006810F017
:1027B0000C007047002211008D4A1268110031F0A0
:1027C000F00101438A4A1160704700221100884AD3
:1027D0001268110031F4E0610143854A11607047CD
:1027E00000221100824A1268110031F4605151EA4E
:1027F000C0017F4A11607047002211007C4A1268B4
:10280000110031F440410143794A116070470000E2
:10281000F0B55FF0000E71465FF0000E72465FF09B
:10282000000E73465FF0000E74465FF0000E7546B2
:102830005FF0000E76465FF0000E77465FF0000E08
:10284000F446DFF8ACE1DEF800E01EF00C0E714655
:102850008E46BEF1000F06D0BEF1040F08D0BEF1C7
:10286000080F0AD066E0DFF870E1C0F800E065E02C
:10287000DFF868E1C0F800E060E0DFF874E1DEF85E
:1028800000E01EF4701E7246DFF864E1DEF800E03E
:102890001EF4803E7346920C0D2A01D0921C02E079
:1028A0005FF0060E7246002B06D1DFF834E10EFB16
:1028B00002FEC0F800E041E0DFF830E1DEF800E0C1
:1028C0001EF4803E7546DFF824E1DEF800E01EF0DD
:1028D0000F0E1EF1010E7646002D08D1DFF8FCE048
:1028E000BEFBF6FE02FB0EFEC0F800E026E0DFF8BD
:1028F000FCE0DEF800E01EF0F00E5FEA1E1E1EF1A6
:10290000010E7746DFF8E4E0DEF800E01EF4706EBA
:102910005FEA1E2E1EF1020EF446DFF8C0E0BEFB99
:10292000F7FE0CFB0EFEBEFBF6FE02FB0EFEC0F831
:1029300000E003E0DFF8A0E0C0F800E0DFF8B0E07E
:10294000DEF800E01EF0F00E71460909DFF894E0B1
:1029500011F80EE07446D0F800E03EFA04FEC0F82C
:1029600004E0DFF88CE0DEF800E01EF4E06E714673
:10297000090ADFF870E011F80EE07446D0F804E0C0
:102980003EFA04FEC0F808E0DFF864E0DEF800E09C
:102990001EF4605E7146C90ADFF848E011F80EE0E7
:1029A0007446D0F804E03EFA04FEC0F80CE0DFF80C
:1029B00040E0DEF800E01EF4404E7146890BDFF87F
:1029C00028E011F80EE07446D0F80CE0BEFBF4FEEF
:1029D000C0F810E0F0BD00BF00127A0040787D0121
:1029E00000093D0044060020540600202C1002403F
:1029F0000410024049B2002905D0064A1268024379
:102A0000044B1A6004E0034A12688243014B1A60C7
:102A1000704700BF1810024049B2002905D0064A8D
:102A200012680243044B1A6004E0034A12688243AE
:102A3000014B1A60704700BF1C10024049B20029C8
:102A400005D0064A12680243044B1A6004E0034AA8
:102A500012688243014B1A60704700BF0C1002409D
:102A600049B2002905D0064A12680243044B1A6095
:102A700004E0034A12688243014B1A60704700BFAA
:102A80001010024010B40100002422000024230092
:102A900000242000C9B24C09E4B22200012A03D16B
:102AA0000E4C2468230008E0022A03D10C4C246851
:102AB000230002E00B4C24682300C9B211F01F046C
:102AC000220001249440234202D00124200001E08E
:102AD0000024200040B210BC7047000000100240EB
:102AE00020100240241002400810024010B50400DB
:102AF0002A48844208D101210420FFF79FFF0021CA
:102B00000420FFF79BFF48E02548844208D10121BB
:102B10000820FFF793FF00210820FFF78FFF3CE01C
:102B20002048844208D101211020FFF787FF0021AF
:102B30001020FFF783FF30E01B48844208D10121B9
:102B40002020FFF77BFF00212020FFF777FF24E004
:102B50001648844208D101214020FFF76FFF002171
:102B60004020FFF76BFF18E01148844208D1012193
:102B70008020FFF763FF00218020FFF75FFF0CE05C
:102B80000C48844209D101214FF48070FFF756FFB1
:102B900000214FF48070FFF751FF10BD0008014085
:102BA000000C0140001001400014014000180140D9
:102BB000001C014000200140F0B55FF0000C6246AF
:102BC0005FF0000C63465FF0000C64465FF0000CA1
:102BD00065465FF0000C66465FF0000C674691F9B1
:102BE00003C01CF00F0C624691F903C05FEACC6C85
:102BF00003D591F902C05CEA0202B1F800C05FEAB5
:102C00000C6C3AD0D0F800C066465FF0000C644609
:102C1000082C31D25FF0010C1CFA04FC6546B1F8B7
:102C200000C015EA0C0C6346AB4223D15FEA840C6A
:102C300065465FF00F0C1CFA05FC6746BE4312FAAE
:102C400005FC5CEA060691F903C0BCF1280F06D129
:102C50005FF0010C1CFA04FCC0F814C00AE091F902
:102C600003C0BCF1480F05D15FF0010C1CFA04FC55
:102C7000C0F810C0641CCBE70660B1F800C04FF488
:102C8000807EF4453FD3D0F804C066465FF0000C68
:102C90006446082C36D25FF0010C14F1080E1CFAC1
:102CA0000EFC6546B1F800C015EA0C0C6346AB4259
:102CB00026D15FEA840C65465FF00F0C1CFA05FC18
:102CC0006746BE4312FA05FC5CEA060691F903C0AA
:102CD000BCF1280F07D15FF0010C14F1080E1CFAAB
:102CE0000EFCC0F814C091F903C0BCF1480F07D125
:102CF0005FF0010C14F1080E1CFA0EFCC0F810C0B5
:102D0000641CC6E74660F0BD02000023180093680B
:102D10000B4202D00123180001E000231800C0B2CA
:102D20007047806880B2704789B20161704789B28C
:102D30004161704789B2C16070470000F0B400265D
:102D4000320000263300002634000026350000281B
:102D500003D51F4E3668340002E01E4E366834003C
:102D600010F47026360C350086B2320010F440168E
:102D7000B6F5401F08D134F07064164E366836F050
:102D80007066144F3E6010E0C60206D50326AE40C2
:102D900033009C4354F0706407E0460DF6B23601F0
:102DA00012FA06F6B44354F0706449B2002905D013
:102DB000460DF6B2360112FA06F63443002802D563
:102DC000034E346001E0034E3460F0BC704700BF36
:102DD0001C0001400400014030B400231A000F23FE
:102DE00011F00304E4B2A400A3401A00C9B28B108E
:102DF0000E4C54F823309343C9B28C100B4D45F858
:102E00002430C9B28B10094C54F82330C0B211F0F1
:102E10000304E4B2A40010FA04F42343C9B28C10F2
:102E2000024D45F8243030BC704700BF0800014017
:102E300010B50400DFF8740284420AD101214FF476
:102E40000060FFF7FBFD00214FF40060FFF7F6FD87
:102E5000CFE0B4F1804F08D101210120FFF700FE3F
:102E600000210120FFF7FCFDC3E08848844208D11F
:102E700001210220FFF7F4FD00210220FFF7F0FD01
:102E8000B7E08348844208D101210420FFF7E8FD20
:102E900000210420FFF7E4FDABE07E48844208D126
:102EA00001210820FFF7DCFD00210820FFF7D8FDF5
:102EB0009FE07948844208D101211020FFF7D0FD1E
:102EC00000211020FFF7CCFD93E07448844208D124
:102ED00001212020FFF7C4FD00212020FFF7C0FDC5
:102EE00087E0DFF8CC0184420AD101214FF4005081
:102EF000FFF7A4FD00214FF40050FFF79FFD78E09D
:102F00003C4884420AD101215FF40020FFF796FD7E
:102F100000215FF40020FFF791FD6AE0364884420B
:102F20000AD101215FF48010FFF788FD00215FF4D2
:102F30008010FFF783FD5CE0304884420AD1012114
:102F40005FF40010FFF77AFD00215FF40010FFF737
:102F500075FD4EE02A48844208D101214020FFF748
:102F60007FFD00214020FFF77BFD42E025488442A1
:102F700008D101218020FFF773FD00218020FFF799
:102F80006FFD36E0204884420AD101214FF4807061
:102F9000FFF766FD00214FF48070FFF761FD28E028
:102FA0003F4884420AD101215FF48030FFF746FD9B
:102FB00000215FF48030FFF741FD1AE03948844278
:102FC0000AD101215FF40030FFF738FD00215FF4E2
:102FD0000030FFF733FD0CE03348844209D1012172
:102FE0005FF48020FFF72AFD00215FF48020FFF7C7
:102FF00025FD10BD004C014000500140005401402F
:1030000000180040001C00400020004000231A006F
:1030100003881A00254B98420ED0254B98420BD0BE
:10302000B0F1804F08D0194B984205D0184B984208
:1030300002D0184B984204D14FF68F731A404B8838
:103040001A43154B984207D0144B984204D04FF6C0
:10305000FF431A40CB881A4302808B8883850B88F4
:103060000385124B98420BD0114B984208D00C4B61
:10307000984205D00B4B984202D00B4B984201D19D
:103080000B7A03860123838270470000000400400E
:1030900000080040000C00400010004000140040F8
:1030A000004001400044014000480140002C014024
:1030B0000034014049B2002904D0028852F00102D4
:1030C000028004E002884FF6FE731A4002807047C7
:1030D00010B504005F4884420AD101214FF48040BA
:1030E000FFF7ACFC00214FF48040FFF7A7FC36E06F
:1030F0001B4884420AD101215FF40030FFF7B0FC85
:1031000000215FF40030FFF7ABFC28E01548844253
:103110000AD101215FF48020FFF7A2FC00215FF4B7
:103120008020FFF79DFC1AE00F4884420AD101215C
:103130005FF40020FFF794FC00215FF40020FFF70C
:103140008FFC0CE00948844209D101215FF4801012
:10315000FFF786FC00215FF48010FFF781FC10BDB3
:103160000044004000480040004C00400050004037
:103170002DE9F04786B005000C0000200600002075
:103180000700002080460020814600208246A0895A
:103190000028AA46288A06004CF6FF700640E08800
:1031A00006432E82A88906004EF6F3100640A0883A
:1031B00021890843618908430643AE81A88A060035
:1031C0004FF6FF400640A0890643AE8200A8FFF7F5
:1031D0001FFB2048824502D10398070001E00298B6
:1031E0000700A889000408D5192000FB07F0216812
:1031F0004900B0FBF1F0804607E0192000FB07F022
:1032000021688900B0FBF1F080466420B8FBF0F043
:10321000000106003009642101FB10808146A88965
:10322000000409D55FEAC90032306421B0FBF1F037
:1032300010F00700064308E05FEA0910323064210D
:10324000B0FBF1F010F00F0006432E8106B0BDE890
:10325000F08700000038014049B2002904D082897B
:1032600052F40052828104E082894DF6FF731A40C5
:1032700082817047F0B400273B0000273C00002704
:103280003D0000273E0040F66A1789B2B9420600A9
:103290000F00FFB27F09FFB23B0089B211F01F0798
:1032A0003C000127A7403D00012B01D10C3604E072
:1032B000022B01D1103600E0143652B2002A03D09E
:1032C00037682F43376002E03768AF433760F0BCA0
:1032D00070478088C005C00D704770B4020000269A
:1032E000330000263400002635000026300040F66A
:1032F0006A1689B2B1420E00F6B27609F6B235000E
:1033000089B211F01F063400012616FA04F4012DCB
:1033100002D19689344006E0022D02D1168A34404B
:1033200001E0968A344089B20E0AB6B23300012613
:1033300016FA03F316883340002C04D0002B02D079
:103340000126300001E00026300040B270BC70471A
:1033500010B50400144884420AD101214FF40070D2
:10336000FFF76CFB00214FF40070FFF767FB1AE0DA
:103370000E4884420AD101214FF48060FFF75EFBC2
:1033800000214FF48060FFF759FB0CE008488442AD
:1033900009D101214FF40040FFF750FB00214FF409
:1033A0000040FFF74BFB10BD002401400028014006
:1033B000003C014030B40024230000242200446873
:1033C0002300114C23400C6891F9045054EA052461
:1033D00023434360846823000C4C2340CC688D68F1
:1033E0002C4391F9055054EA450423438360C46A91
:1033F000230033F470030C7CFF342243D2B253EA2F
:103400000253C36230BC7047FFFEF0FFFDF7F1FFCF
:1034100049B2002904D0826852F00102826003E0C0
:1034200082685208520082607047816851F008013A
:10343000816070470100002210008A68120702D5DF
:103440000122100001E00022100040B270478168A4
:1034500051F00401816070470100002210008A6869
:10346000520702D50122100001E00022100040B2F4
:10347000704749B2002904D0826852F4A0028260E9
:1034800003E0826832F4A00282607047F0B4002644
:10349000350000263400C9B20A2916D3C6683500A3
:1034A000072611F1F6075FF0030C0CFB07F7BE408F
:1034B0003400A543DBB211F1F60603277E4313FA6D
:1034C00006F634002543C56011E00669350007267D
:1034D000032707FB01F7BE403400A543DBB20326F8
:1034E00006FB01F613FA06F6340025430561D2B255
:1034F000072A16D2466B35001F2612F1FF075FF030
:10350000050C0CFB07F7BE403400A543C9B212F10D
:10351000FF0605277E4311FA06F63400254345636E
:103520002FE0D2B20D2A16D2066B35001F2612F1FB
:10353000F9075FF0050C0CFB07F7BE403400A5430C
:10354000C9B212F1F90605277E4311FA06F63400D6
:103550002543056315E0C66A35001F2612F1F307FF
:103560005FF0050C0CFB07F7BE403400A543C9B261
:1035700012F1F30605277E4311FA06F634002543BF
:10358000C562F0BC7047C06C80B2704740B2002882
:1035900006D00749096851F40001054A116005E0A9
:1035A0000349096831F40001014A1160704700BF06
:1035B0000824014002000023180013680B4202D0C7
:1035C0000123180001E00023180040B270470000FA
:1035D000F0B540F2FF7581EA030C0CF0004C15EADF
:1035E00011541DBF15EA1357AC42AF42E5E0BC4190
:1035F000C1F31301C3F31303801A994143F48013F9
:1036000004D2641E4000494180185941C90241EA70
:103610005051B1FBF3F603FB1611A2FB0675D7EB75
:10362000C020A94102D2761E80185941C90241EA40
:103630005051B1FBF3FE03FB1E11A2FB0E75D7EB3D
:10364000C020A94103D2AEF1010E80185941890270
:1036500041EA9051760546EA8E2EB1FBF3F603FB64
:103660001611A2FB0675D7EB8020A94102D2761E67
:1036700080185941C90241EA50514EEA060EB1FB89
:10368000F3F603FB1611A2FB0675D7EBC020A94188
:1036900002D2761E80185941C90241EA5051B1FB4D
:1036A000F3F703FB1711A2FB0735D3EBC020A941A9
:1036B00067F100070CBF004247F0010766F3D5270A
:1036C0004FEA1E31B80814F5806412DDBD0775F1AC
:1036D000004250EB0E5051EB045111F5801F5CBFBE
:1036E00041EA0C01F0BD4CF07F6141F0E041002067
:1036F000F0BDBD076D0840EA0E5041F48011D4F1D1
:103700000104B4F120060ADAC4F120060200E04008
:1037100001FA06F3E1401843B24015430EE0342CA1
:1037200013DCC6F1200445EA40056D0820FA06F2D4
:10373000154321FA06F0A1400D43002175F1004226
:1037400050F1000051EB0C01F0BD00205FEA0C01CC
:10375000F0BDCFB992185B41B3FA83F704BFB2FA58
:1037600082F6BF190B3FB7F120062FBF02FA06F30E
:10377000BB40C7F1200622FA06F638BF3343BA40F1
:103780001CB1E419641E33E77F4231F00041B1FA05
:1037900081F404BFB0FA80F6A4190B3CB4F1200602
:1037A0002FBF00FA06F1A140C4F1200620FA06F668
:1037B00038BF3143A0403C1B1AE7AC421ABF05EAB0
:1037C0001357AF4212E050EA41061CBF52EA4306CB
:1037D000BFE750EA4107304661461CBF41EA055148
:1037E000F0BD52EA430C08BFC143F0BD00204FF4C6
:1037F000001616EB410F98BF16EB430F08BF16EBF0
:10380000410F24BFC14305E016EB430F0CBF6146D7
:103810004CEA0551F0BD000080B56348006850F0E7
:1038200001006149086061480068134908405F4928
:1038300008605D480068114908405B4908605A48C3
:10384000006830F48020584908605848006830F417
:10385000FE00564908605448006830F0A0505249B4
:10386000086007485FF47F0101604E480021016055
:1038700000F008F801BD00BF0000FFF0FFFFF6FEFA
:103880000810024080B500F001F801BD82B00020B0
:103890000190002000904448006850F48030424974
:1038A00008604148006810F4003000900198401C06
:1038B00001900098002803D10198B0F5A06FF0D1D5
:1038C00039480068800302D50120009001E0002003
:1038D0000090009801285DD12F48006850F010003A
:1038E0002D4908602C480068800880002A4908603B
:1038F0002948006850F00200274908602B482B49EE
:103900000968016029482949096801602748006859
:1039100050F4806025490860224800681F4908402B
:10392000204908601F4800681D4908431D49086078
:103930001D48006850F080601B4908601A48006804
:103940000001FBD51948006830F47C101749086065
:103950001648006850F4E8101449086012480068DE
:1039600050F08070104908600F4800688001FBD556
:103970000E480068800880000C4908600B48006809
:1039800050F00200094908600848006810F00C0077
:103990000828F9D102B070470020024000F0FEFF75
:1039A000440601002C1002400010024004100240A6
:1039B0007047FEE7FEE7FEE7FEE770477047704797
:1039C00002480068401C0149086070473806002022
:1039D00080B51420FDF7EAFB012000F0BBF90028B8
:1039E00011D001210848FFF78FF9002804D1802168
:1039F0004048FFF79CF903E080213E48FFF794F927
:103A0000012000F0C1F901BD0008014080B514207B
:103A1000FDF7CCFB102000F09DF900281ED01021EE
:103A20003348FFF771F9002815D104213148FFF719
:103A30007EF91420FDF7BAFB2C48008840F69B71F4
:103A4000884204D22948008864302849088004212B
:103A50002848FFF769F9102000F096F901BD000031
:103A600080B51420FDF7A2FB4FF4806000F072F9DE
:103A700000281ED04FF480611B48FFF745F900284D
:103A800013D108211B48FFF752F918480088642811
:103A900004D3164800886438144908801420FDF7C0
:103AA00085FB08211348FFF73FF94FF4806000F0D1
:103AB0006BF94FF4005000F04DF9002813D04FF48B
:103AC00000510B48FFF720F9002804D110210948C4
:103AD000FFF72DF903E010210648FFF725F94FF411
:103AE000005000F051F901BD000C01403E060020DD
:103AF000001001400014014080B540F225510848F3
:103B0000FFF7EBFB002801D0FDF744FB40F22661F4
:103B10000348FFF7E2FB002801D0FDF70BFB01BDD6
:103B20000044004010B504000C4884420AD1012131
:103B30005FF40010FEF794FF00215FF40010FEF721
:103B40008FFF09E001215FF48000FEF789FF00216B
:103B50005FF48000FEF784FF10BD00BF00540040FA
:103B60002DE9F04385B005000C0000200600002080
:103B700007000420804635488146A88806004FF695
:103B8000C070064000A8FEF743FE02988146304808
:103B9000B9FBF0F007003E43AE8028884FF6FE7177
:103BA000084028800020060020682A49884210D258
:103BB00020684000B9FBF0F080461FFA88F8B8F1A1
:103BC000040F01D20420804658EA0606781C288497
:103BD00026E0E0884BF6FF71884206D12068032179
:103BE0004843B9FBF0F0804607E0206819214843BC
:103BF000B9FBF0F0804658F480485FEA085001D1E4
:103C000058F0010858F400400643BFB24FF49670D4
:103C100000FB07F04FF47A7190FBF1F0401C288410
:103C2000AE83288850F001002880288806004FF6CF
:103C3000F5300640A0886189084306432E80A0899C
:103C400021890843288105B0BDE8F08300127A007D
:103C500040420F00A186010049B2002904D0028829
:103C600052F00102028004E002884FF6FE731A400F
:103C70000280704749B2002904D0028852F4806261
:103C8000028004E002884FF6FF331A40028070473A
:103C90003C48002101602C48002101602B48002194
:103CA00001602B48002101603948014901607047DB
:103CB000FFFF0F0000221100324A110090F9062088
:103CC000002A39D02F4A126803689A432D4B1A6094
:103CD0001D4A126803689A431B4B1A6090F904202E
:103CE00051180A6803681A430A60184A1268036880
:103CF0009A43164B1A60164A126803689A43144B8B
:103D00001A6090F90520102A0CD1104A1268036835
:103D10001A430E4B1A600E4A126803681A430C4B82
:103D20001A6010E0174A110090F9052051180A682E
:103D300003681A430A6006E090F9042051180A68E3
:103D400003689A430A607047040401400804014074
:103D50000C04014001000023180000231A00094B45
:103D60001B680B401A000A4B1B680B4204D0002A48
:103D700002D00123180001E00023180040B2704770
:103D80000000000000040140014908607047000085
:103D900014040140FF2212EAD05C1DBF12EAD15385
:103DA000944593422BE09C44D30780EA01021A40D9
:103DB00043EA002043EA0121A1FB0030410038BF63
:103DC00040007CF17F010BDBFE294ADA5B0842EA06
:103DD000C15153EA006373F1004C51EB102070475E
:103DE000D1F1080CDCF120012FDB5B0810FA01F1A6
:103DF0000B4373F1004120FA0CF050417047944599
:103E00001CBF02EAD153934280EA010202F0004251
:103E10001DD0400019D0490017D05BB9634514D0BC
:103E20000902B1FA81F39940BCEB030CC00140F0E8
:103E30000040C1E70002B0FA80FC10FA0CF0B3EBCE
:103E40000C0CC90141F00041B6E71000704740007A
:103E50000AD0490008D010F1807F94BF11F1807F13
:103E600002E042F0FF407047D043704702490143EF
:103E7000214A1160704700BF0000FA05F0B4002429
:103E80002100002422000F24230090F90340002C7D
:103E900020D0194C246814F4E064D4F5E064240ABA
:103EA0002100D1F104042200CB4044789440210049
:103EB00084781C402143090104780C4D6155047835
:103EC00064110B4D0126077817F01F07BE4045F817
:103ED000246009E004786411064D0126077817F084
:103EE0001F07BE4045F82460F0BC704700E400E0C6
:103EF00000E100E080E100E00CED00E0024A0A4051
:103F00000243024B1A60704780FFFF1F08ED00E07C
:103F100038B504000D002148008848F68911884210
:103F20000AD1290089B24E20FCF76FF9210089B22D
:103F30004F20FCF76AF92FE01848008849F2203139
:103F400088420CD1290089B22020FCF75EF940F2AA
:103F50003F10011B89B22120FCF757F91CE00F48E4
:103F6000008849F6191188420AD1210089B24E20F1
:103F7000FCF74BF9290089B24F20FCF746F90BE01A
:103F8000290089B22020FCF740F940F23F10011BC4
:103F900089B22120FCF739F931BD00BF3C06002071
:103FA0004FEAF17CBCF1E04C2CBFBCF5001F11E0E6
:103FB0005FEA4C0C34BFBCF17F5F2EE05FEA9C0CE3
:103FC0004FEA0C1C4FEA3C0CC10071F100414CEB74
:103FD00050707047C90241EA5051C00218BF41F009
:103FE000010141F000414FEA6C50C0F10900212865
:103FF00010D240EACC7CCCF1200C11FA0CF070F11C
:104000000040CCF1200C21FA0CF00CF0004C40EBFD
:104010000C0070474FEACC707047490011F5001F43
:1040200004D84FEACC10FF30C0057047C81770475E
:104030004100090E7F3915D4D1F11F0114D440007D
:1040400007D2C00140F00040C84048BF6FF00040B8
:104050007047C00140F00040C8404CBF4FF00040E6
:10406000404270470020704700424FF0004058BF68
:10407000C043704700221100DFF83420126811009D
:1040800011F038010143DFF8282011607047DFF894
:104090002010096831F01001DFF814201160DFF8FA
:1040A000101009680143DFF8082011607047000014
:1040B0000020024010B409E050F8041B50F8042B13
:1040C00051F8044B42F8044B1B1FF9D150F8043B44
:1040D000002BF1D110BC70476F4100084400000074
:1040E0000006002000000000B54000081400000099
:1040F000E8420008440600200000000010B5054812
:10410000054CA04204D050F8041B8847A042FAD1C5
:1041100010BD00BFD8400008FC400008704780B2C6
:1041200070470322110070477047020000231800F7
:10413000C0B270477047704700280AD0B0FA80F1CB
:104140008840D1F19D01C905020672F1004241EBA0
:1041500010207047010009D0B0FA80F18840C91CD6
:10416000C1F58461090501EBD021400570470023AA
:1041700005E050F8041B41F8043B121FFBD150F836
:10418000042B002AF5D1704700F0ACF8002801D0CC
:10419000FFF7B4FF0020FDF717F800F014F8000057
:1041A0000148804701480047193800088941000844
:1041B00001491820ABBEFBE726000200074638463F
:1041C000FFF7F6FFFBE780B5FFF7F8BFFFF7F0BB9F
:1041D000FFF7EFBBFFF7EEBBFFF7EDBBFFF7ECBB65
:1041E000FFF7EBBBFFF7EABBFFF7E9BBFFF7E8BB65
:1041F000FFF7FEBFFFF7FEBFFFF7FEBFFFF7FEBFF3
:10420000FFF7FEBFFFF7FEBFFFF7E2BBFFF7FEBF02
:10421000FFF7FEBFFFF7FEBFFFF7F8BBFFF7FEBFDC
:10422000FFF7FEBFFFF7FEBFFFF7FEBFFFF7FEBFC2
:10423000FFF7FEBFFFF7FEBFFFF7FEBFFFF7FEBFB2
:10424000FFF7FEBFFFF7FEBFFFF7FEBFFFF7FEBFA2
:10425000FFF7FEBFFFF7FEBFFFF7FEBFFFF7FEBF92
:10426000FFF7FEBFFFF7FEBFFFF7FEBFFFF7FEBF82
:10427000FFF7FEBFFFF7FEBFFFF7FEBFFFF7FEBF72
:10428000FFF7FEBFFFF7FEBFFFF736BCFFF7FEBF2D
:10429000FFF7E6BBFFF7FEBFFFF7FEBFFFF7FEBF6E
:1042A000FFF7FEBFFFF7FEBFFFF7FEBFFFF7FEBF42
:1042B000FFF7FEBFFFF7FEBFFFF7FEBFFFF7FEBF32
:1042C000FFF7FEBFFFF7FEBFFFF7FEBFFFF7FEBF22
:1042D000FFF7FEBFFFF7FEBFFFF7FEBFFFF7FEBF12
:1042E000FFF7FEBF01207047000000000102030439
:0C42F00001020304060708090204060886
:040000050800418925
:00000001FF
