:020000040800F2
:1000000000060020355F00086151000863510008B8
:1000100065510008675100086951000800000000A0
:100020000000000000000000000000006B5100080C
:100030006D510008000000006F5100087151000868
:10004000855F0008895F00088D5F0008915F0008E8
:10005000955F0008995F000881510008A15F0008C2
:10006000A55F0008A95F0008BD510008B15F000846
:10007000B55F0008B95F0008BD5F0008C15F0008F8
:10008000C55F0008C95F0008CD5F0008D15F0008A8
:10009000D55F0008D95F0008DD5F0008E15F000858
:1000A000E55F0008E95F0008ED5F0008F15F000808
:1000B000F55F0008F95F0008FD5F000801600008B7
:1000C00005600008096000080D6000081160000864
:1000D0001560000819600008A95200082160000896
:1000E00011520008296000082D600008000000007F
:1000F0000000000000000000000000000000000000
:1001000000000000000000003160000835600008B9
:10011000396000083D600008416000084560000843
:10012000496000084D6000085160000855600008F3
:10013000596000085D6000086160000865600008A3
:10014000696000086D600008716000087560000853
:1001500080B54FF6FF70ADF8000003208DF8020067
:1001600004208DF8030000A9804803F0CBFB01BDFB
:1001700080B54FF6FF70ADF8000003208DF8020047
:1001800010208DF8030000A9784803F0BBFB01BDE7
:1001900080B50121782003F0BBF84FF6FF70ADF871
:1001A000000003208DF8020010208DF8030000A944
:1001B0006E4803F0A7FB4FF48040ADF8000000A9A3
:1001C0006B4803F09FFB4FF48070ADF8000000A96E
:1001D000684803F097FB4FF40050ADF8000000A909
:1001E000614803F08FFB4FF40040ADF8000000A918
:1001F0005D4803F087FB4FF480715E4803F03AFCE2
:1002000001BD80B5FFF7C4FF01BD38B504000D0086
:100210004FF48071574803F030FC4FF400515248BE
:1002200003F02BFC4FF48041514803F026FC2100E1
:1002300089B24E4803F024FC4FF480414C4803F04F
:1002400019FC4FF40051484803F014FC4FF480416E
:10025000474803F012FC290089B2444803F010FC1F
:100260004FF48041424803F005FC4FF4807141484F
:1002700003F000FC31BD38B504004FF480713D48F7
:1002800003F0FBFB4FF40051374803F0F6FB4FF44B
:100290008041374803F0F1FBE4B2210089B23348D2
:1002A00003F0EEFB4FF48041314803F0E3FB4FF4E1
:1002B00000512D4803F0DEFB4FF400412A4803F0C3
:1002C000DCFB4FF40041284803F0D4FB274803F03F
:1002D000CEFB05004FF48071264803F0CBFB2800CD
:1002E00080B232BD80B54FF48071224803F0C5FB67
:1002F0004FF400511C4803F0C0FB4FF480411C48F0
:1003000003F0BBFB2221194803F0BAFB4FF48041F4
:10031000174803F0AFFB4FF48071164803F0AAFBB7
:1003200001BD10B504004FF48071124803F0A5FB25
:100330004FF400510C4803F09DFB4FF480410C48F2
:1003400003F09BFB210089B2084803F099FB4FF4AE
:100350008041074803F08EFB4FF48071054803F09D
:1003600089FB10BD0000000000140140001801408E
:10037000000C01400010014001B481B00198411E01
:10038000019100280AD00020009000984FF47A7163
:100390008842F3D20098401C0090F6E702B0704704
:1003A0000000000010B5FFF72CFF0520FFF7E4FF69
:1003B00001210020FFF729FF0520FFF7DDFFFFF7F0
:1003C000C7FE0120FFF7D8FF0020FFF754FFDFF83A
:1003D000701B0880FFF7CCFE0120FFF7CDFFDFF890
:1003E000600B008849F22531884207D0DFF8500BB6
:1003F000008849F22831884240F0648143F20801C4
:10040000E320FFF702FF1221E720FFF7FEFE41F293
:100410003121EF20FFF7F9FE01210020FFF7F5FE63
:100420004FF480710120FFF7F0FE4FF4E0610220ED
:10043000FFF7EBFE41F230010320FFF7E6FE00215B
:100440000420FFF7E2FE40F207210820FFF7DDFE5F
:1004500000210920FFF7D9FE00210A20FFF7D5FE71
:1004600001210C20FFF7D1FE00210D20FFF7CDFE6A
:1004700000210F20FFF7C9FE00211020FFF7C5FE65
:1004800007211120FFF7C1FE00211220FFF7BDFE5A
:1004900000211320FFF7B9FE4CF250300400A4B243
:1004A000012C01D3641EFAE74CF250300400A4B2D0
:1004B000012C01D3641EFAE741F290511020FFF79E
:1004C000A4FE40F227211120FFF79FFE4CF250308E
:1004D0000400A4B2012C01D3641EFAE74CF25030A0
:1004E0000400A4B2012C01D3641EFAE79C2112205F
:1004F000FFF78BFE4CF250300400A4B2012C01D364
:10050000641EFAE74CF250300400A4B2012C01D36F
:10051000641EFAE74FF4C8511320FFF776FE23213B
:100520002920FFF772FE0E212B20FFF76EFE4CF202
:1005300050300400A4B2012C01D3641EFAE74CF23F
:1005400050300400A4B2012C01D3641EFAE700214C
:100550002020FFF75AFE00212120FFF756FE4CF223
:1005600050300400A4B2012C01D3641EFAE74CF20F
:1005700050300400A4B2012C01D3641EFAE7072115
:100580003020FFF742FE40F207713120FFF73DFEB9
:1005900006213220FFF739FE40F204713520FFF7C3
:1005A00034FE41F604713620FFF72FFE0421372078
:1005B000FFF72BFE00213820FFF727FE40F20671DF
:1005C0003920FFF722FE40F201713C20FFF71DFEAB
:1005D0000F213D20FFF719FE4CF250300400A4B269
:1005E000012C01D3641EFAE74CF250300400A4B28F
:1005F000012C01D3641EFAE700215020FFF705FE0D
:10060000EF215120FFF701FE00215220FFF7FDFDF1
:1006100040F23F115320FFF7F8FD4FF427416020CF
:10062000FFF7F3FD01216120FFF7EFFD00216A20B4
:10063000FFF7EBFD00218020FFF7E7FD002181207F
:10064000FFF7E3FD00218220FFF7DFFD002183207B
:10065000FFF7DBFD00218420FFF7D7FD0021852077
:10066000FFF7D3FD10219020FFF7CFFD4FF4C061BD
:100670009220FFF7CAFDDFF8C808008849F2283148
:10068000884210D103219320FFF7BFFD4FF48871FA
:100690009520FFF7BAFD00219720FFF7B6FD002156
:1006A0009820FFF7B2FD40F233110720FFF7ADFDB0
:1006B00000212020FFF7A9FD00212120FFF7A5FD43
:1006C00000F03CBCDFF87808008849F2203188420D
:1006D00006D0DFF86C080088B0F5134F40F0C680F4
:1006E00001210020FFF791FD4FF480710120FFF7F9
:1006F0008CFD4FF4E0610220FFF787FD41F22801F5
:100700000320FFF782FD00210420FFF77EFD40F269
:1007100002210820FFF779FD00210920FFF775FD70
:1007200000210A20FFF771FD01210C20FFF76DFD6C
:1007300000210D20FFF769FD00210F20FFF765FD67
:100740004CF250300400A4B2012C01D3641EFAE72D
:1007500040F201110720FFF758FD4CF25030040021
:10076000A4B2012C01D3641EFAE74FF48651102085
:10077000FFF74BFD07211120FFF747FD4FF488716C
:100780001220FFF742FD4FF430611320FFF73DFDCB
:1007900000212920FFF739FD44F210012B20FFF73B
:1007A00034FD00215020FFF730FDEF215120FFF7ED
:1007B0002CFD00215220FFF728FD40F23F1153206D
:1007C000FFF723FD4FF41C516020FFF71EFD0121B0
:1007D0006120FFF71AFD00216A20FFF716FD0021B6
:1007E0008020FFF712FD00218120FFF70EFD002180
:1007F0008220FFF70AFD00218320FFF706FD00217C
:100800008420FFF702FD00218520FFF7FEFC102168
:100810009020FFF7FAFC00219220FFF7F6FC01215F
:100820009320FFF7F2FC4FF488719520FFF7EDFC61
:1008300000219720FFF7E9FC00219820FFF7E5FC55
:100840004CF250300400A4B2012C01D3641EFAE72C
:1008500040F273110720FFF7D8FC4CF2503004002F
:10086000A4B2012CC0F06A83641EF9E7DFF8D00659
:10087000008849F23131884240F0F28041F214019F
:10088000E720FFF7C2FC4FF480710120FFF7BDFCA9
:100890004FF400710220FFF7B8FC41F23001032051
:1008A000FFF7B3FC40F202210820FFF7AEFC002165
:1008B0000920FFF7AAFC00210A20FFF7A6FC00216F
:1008C0000C20FFF7A2FC00210D20FFF79EFC002169
:1008D0000F20FFF79AFC00211020FFF796FC07215C
:1008E0001120FFF792FC00211220FFF78EFC00215F
:1008F0001320FFF78AFCC82000F0E0FB41F2906172
:100900001020FFF782FC40F227211120FFF77DFC29
:10091000322000F0D3FB0C211220FFF776FC3220AE
:1009200000F0CCFB4FF400611320FFF76EFC1121A7
:100930002920FFF76AFC0B212B20FFF766FC3220F1
:1009400000F0BCFB00212020FFF75FFC00212120EC
:10095000FFF75BFC00213020FFF757FC4FF4837159
:100960003120FFF752FC00213220FFF74EFC4FF4FC
:1009700001713520FFF749FC41F20A613620FFF78B
:1009800044FC40F207713720FFF73FFC4FF48371BE
:100990003820FFF73AFC40F207713920FFF735FCA9
:1009A00040F202413C20FFF730FC40F60F413D2071
:1009B000FFF72BFC00215020FFF727FCEF215120EF
:1009C000FFF723FC00215220FFF71FFC40F23F11EC
:1009D0005320FFF71AFC4FF41C516020FFF715FC61
:1009E00001216120FFF711FC00216A20FFF70DFCB7
:1009F00000218020FFF709FC00218120FFF705FC82
:100A000000218220FFF701FC00218320FFF7FDFB7E
:100A100000218420FFF7F9FB00218520FFF7F5FB7B
:100A200010219020FFF7F1FB4FF4C0619220FFF7F7
:100A3000ECFB21210720FFF7E8FB322000F03EFB12
:100A400061210720FFF7E1FB322000F037FB40F285
:100A500033110720FFF7D9FB322000F02FFB6DE2A6
:100A6000DFF8DC04008849F61911884240F08B80D9
:100A700006212820FFF7C9FB01210020FFF7C5FB55
:100A800000211020FFF7C1FB47F2EF210120FFF703
:100A9000BCFB4FF4C0610220FFF7B7FB46F63821DC
:100AA0000320FFF7B2FB46F674011120FFF7ADFB00
:100AB00000210F20FFF7A9FB45F208310B20FFF7BB
:100AC000A4FB03210C20FFF7A0FB0A210D20FFF758
:100AD0009CFB4FF438510E20FFF797FBBE211E20E0
:100AE000FFF793FB4FF400412520FFF78EFB4FF4F7
:100AF000F0412620FFF789FB78212720FFF785FBAF
:100B000000214E20FFF781FB00214F20FFF77DFBE6
:100B100040F6D9011220FFF778FB00213020FFF7C3
:100B200074FB4FF482713120FFF76FFB4FF480713B
:100B30003220FFF76AFB40F205313320FFF765FBF7
:100B400040F205513420FFF760FB40F205313520BB
:100B5000FFF75BFB40F207713620FFF756FB4FF4BF
:100B600040713720FFF751FB4FF490513A20FFF7C7
:100B70004CFB4FF400613B20FFF747FB332107207C
:100B8000FFF743FBDAE1EE48008841F20551884265
:100B900040F0138100210720FFF737FB052000F00C
:100BA0008DFA4FF48E711220FFF72FFB0121A42044
:100BB000FFF72BFB0F210820FFF727FB08210A2056
:100BC000FFF723FB08210D20FFF71FFB40F2077101
:100BD0003020FFF71AFB07213120FFF716FB40F208
:100BE00003613220FFF711FB4FF4E0613320FFF780
:100BF0000CFB40F202213420FFF707FB02213520D5
:100C0000FFF703FB41F60F713620FFF7FEFA40F2C3
:100C100007713720FFF7F9FA00213820FFF7F5FABE
:100C200000213920FFF7F1FA40F207713A20FFF76F
:100C3000ECFA00213B20FFF7E8FA07213C20FFF700
:100C4000E4FA00213D20FFF7E0FA052000F036FA33
:100C500001210720FFF7D9FA01211720FFF7D5FA64
:100C6000052000F02BFA4FF4BD511020FFF7CDFA0C
:100C700040F217211120FFF7C8FA4FF48F711220AC
:100C8000FFF7C3FA4FF470611320FFF7BEFA00219B
:100C90002A20FFF7BAFA0A212920FFF7B6FA4FF403
:100CA0009F711220FFF7B1FA00215020FFF7ADFA33
:100CB000EF215120FFF7A9FA00215220FFF7A5FAF2
:100CC00040F23F115320FFF7A0FA4FF41C5160206F
:100CD000FFF79BFA01216120FFF797FA00216A20B4
:100CE000FFF793FA00218020FFF78FFA002181207F
:100CF000FFF78BFA00218220FFF787FA002183207B
:100D0000FFF783FA00218420FFF77FFA0021852076
:100D1000FFF77BFA13219020FFF777FA4FF4407129
:100D20009220FFF772FA05219320FFF76EFA002157
:100D30009520FFF76AFA00219720FFF766FA002155
:100D40009820FFF762FA4FF480710120FFF75DFAF7
:100D50004FF4E0610220FFF758FA41F2300103201E
:100D6000FFF753FA00210420FFF74FFA00210C206F
:100D7000FFF74BFA00210F20FFF747FA0021202050
:100D8000FFF743FA00212120FFF73FFA2121072036
:100D9000FFF73BFA142000F091F961210720FFF7DB
:100DA00034FA142000F08AF940F273110720FFF79B
:100DB0002CFA142000F082F9C0E06148008848F65F
:100DC0008911884240F0BA8001210020FFF71DFA06
:100DD0004AF6A4010320FFF718FA00210C20FFF7C0
:100DE00014FA40F60C010D20FFF70FFA4FF42C51C6
:100DF0000E20FFF70AFAB0211E20FFF706FA42F68E
:100E00003F110120FFF701FA4FF4C0610220FFF704
:100E1000FCF900211020FFF7F8F946F270011120CB
:100E2000FFF7F3F900210520FFF7EFF90021062075
:100E3000FFF7EBF94EF61C711620FFF7E6F90321D8
:100E40001720FFF7E2F940F233210720FFF7DDF921
:100E500000210B20FFF7D9F900210F20FFF7D5F96A
:100E600000214120FFF7D1F900214220FFF7CDF901
:100E700000214820FFF7C9F940F23F114920FFF750
:100E8000C4F900214A20FFF7C0F900214B20FFF7E9
:100E9000BCF94FF46F414420FFF7B7F9002145201A
:100EA000FFF7B3F940F23F114620FFF7AEF940F2E9
:100EB00007713020FFF7A9F94FF401713120FFF7D6
:100EC000A4F94FF401713220FFF79FF940F202516B
:100ED0003320FFF79AF940F207513420FFF795F9D4
:100EE0004FF401713520FFF790F94FF4017136206E
:100EF000FFF78BF940F202513720FFF786F940F2F5
:100F000002313A20FFF781F940F202313B20FFF72E
:100F10007CF900212320FFF778F900212420FFF736
:100F200074F94FF400412520FFF76FF900214E209E
:100F3000FFF76BF900214F20FFF767F910BD00BFE5
:100F40006006002038B504000020050000210020C4
:100F500004F0A4FDFFF7C6F94FF48071114802F0C8
:100F60008CFD4FF40051104802F084FD0020050074
:100F7000B5F5963F10D24FF480410C4802F07DFD4C
:100F8000210089B20A4802F07BFD4FF480410748F6
:100F900002F070FD6D1CEBE74FF48071014802F028
:100FA00069FD31BD0010014000140140000C0140FA
:100FB0000018014070B506000C001500210089B230
:100FC000300080B204F06AFDFFF78CF9280080B28F
:100FD000FFF7A7F970BD00002DE9F84F04000D00E0
:100FE00093469946DDF828A000200600002007005F
:100FF000002080461FFA8AFABAF1010F28D100209A
:101000000600B6B2102E55D25FFA8BFBB6B216EBC5
:101010000B1029494018B0F5007000788046002078
:101020000700BFB2082F11D25FFA88F8D7F1070086
:1010300058FA00F0C00707D54A4692B2711989B232
:10104000381980B2FFF7B6FF7F1CEAE7761CD8E7B5
:1010500000200600B6B2102E2CD25FFA8BFBB6B27F
:1010600016EB0B1014494018B0F50070007880465C
:1010700000200700BFB2082F1AD25FFA88F8D7F114
:10108000070058FA00F0C00708D54A4692B2711915
:1010900089B2381980B2FFF78DFF07E0524692B24D
:1010A000711989B2381980B2FFF784FF7F1CE1E71C
:1010B000761CCFE7BDE8F18FB423000801B5009896
:1010C000FFF75AF901BD000010B504002E48007862
:1010D0003328FBD272B62C480078002804D014487C
:1010E00000782A49445411E0012240F226612E483A
:1010F00003F0ECF82C48008880B2002801D10120D0
:1011000000E00020C0B22248E4B204800848007821
:10111000401C07490870C0B2332802D3044800219C
:10112000017019480078401C1749087062B610BD5C
:101130006506002080B514480078002804D01248C5
:101140000078FF30104908700E480078401C0D49A7
:101150000870C0B2332802D30A48002101700A483F
:101160000078002806D0074800780849405C084904
:10117000088005E0002240F226610B4803F0A6F843
:1011800001BD00BF640600206606002000060020A6
:101190000444004080B5044803F0C7F801490870D2
:1011A00001BD00BF6706002000440040DFF80029B1
:1011B00012688218521E1100DFF8F4281268521AC1
:1011C000002AF9D470470000054A12888218521E7E
:1011D0001100034A1288521A1204FAD4704700BF51
:1011E000240000402DE9F04188B001F019FCFFF720
:1011F000D9F81F20FFF7A6FE00F0D0FC00F04FFF4B
:10120000DFF8AC08006800F2E7300700DFF8A0085C
:101210000068381A0028F9D5DFF89408006800F251
:10122000E730070000F01BFDADF8040000F07AFD88
:1012300002901F2000904FF47843422200210020AA
:10124000FFF7CAFE1F2000904FF478434D22002183
:101250000820FFF7C1FE1F2000904FF47843502272
:1012600000211020FFF7B8FE1F2000904FF47843B4
:10127000302200211820FFF7AFFE1F2000904FF40E
:101280007843382200212020FFF7A6FE1F2000907F
:101290004FF47843352200212820FFF79DFE1F20C0
:1012A00000904FF478432D2200213020FFF794FE68
:1012B0001F2000904FF478432D2200213820FFF7A3
:1012C0008BFE1F2000904FF47843542200214020D1
:1012D000FFF782FE1F2000904FF478433A2200214E
:1012E0004820FFF779FE1F2000904FF47843BDF9A6
:1012F0000400642190FBF1F010F13002D2B2002121
:101300005020FFF769FEBDF9040064211F220092FE
:101310004FF4784390FBF1F201FB12000A2190FB9D
:10132000F1F010F13002D2B200215820FFF754FE44
:101330001F2000904FF478432E2200216020FFF7F9
:101340004BFEBDF904000A211F2200924FF478439E
:1013500090FBF1F201FB120010F13002D2B2002139
:101360006820FFF739FE1F2000904FF478432D22AC
:1013700000217020FFF730FE1F2000904FF47843CB
:101380002D2200217820FFF727FE1F2000904FF428
:101390007843502200218020FFF71EFE1F2000907E
:1013A0004FF478433A2200218820FFF715FE1F20D2
:1013B00000904FF478430298DFF8EC16B0FBF1F0A0
:1013C00010F13002D2B200219020FFF705FE029802
:1013D000DFF8D4161F2200924FF47843B0FBF1F2ED
:1013E00001FB120042F21071B0FBF1F010F130027B
:1013F000D2B200219820FFF7EFFD029842F210715F
:101400001F2200924FF47843B0FBF1F201FB12006F
:101410004FF47A71B0FBF1F010F13002D2B200213A
:10142000A020FFF7D9FD02984FF47A711F22009295
:101430004FF47843B0FBF1F201FB12006421B0FBE2
:10144000F1F010F13002D2B20021A820FFF7C4FD64
:10145000029864211F2200924FF47843B0FBF1F20E
:1014600001FB12000A21B0FBF1F010F13002D2B200
:101470000021B020FFF7B0FD02980A211F22009240
:101480004FF47843B0FBF1F201FB120010F130028F
:10149000D2B20021B820FFF79FFD05A906A800F0F1
:1014A0007DFE00282FD000F0FAFD1F2000904FF4A1
:1014B00078432D221421B820FFF78EFD1F200090C5
:1014C0004FF478432D221421C020FFF785FD1F2003
:1014D00000904FF4784345221421C820FFF77CFD8B
:1014E0001F2000904FF4784352221421D020FFF7A0
:1014F00073FD1F2000904FF4784352221421D8200E
:10150000FFF76AFD17E11F2000904FF47843532244
:1015100014210020FFF760FD1F2000904FF4784356
:10152000482214210820FFF757FD1F2000904FF498
:101530007843542214211020FFF74EFD1F20009005
:101540004FF47843312214211820FFF745FD1F2066
:1015500000904FF47843782214212020FFF73CFDBF
:101560001F2000904FF478432D2214212820FFF7EC
:1015700033FD1F2000904FF478432D22142130209A
:10158000FFF72AFD1F2000904FF4784354221421C6
:101590003820FFF721FD1F2000904FF478433A22B6
:1015A00014214020FFF718FD1F2000904FF47843CE
:1015B0009846069804F09CFBC0B20A2190FBF1F01B
:1015C00010F130024346D2B214214820FFF704FD47
:1015D000069804F08DFBC0B20A211F2200924FF43E
:1015E000784390FBF1F201FB120010F13002D2B20D
:1015F00014215020FFF7F0FC1F2000904FF4784397
:101600002E2214215820FFF7E7FC0698DFF89C14DF
:1016100004F0CCF804F06CFB80B20A211F22009287
:101620004FF4784390FBF1F201FB120010F130020D
:10163000D2B214216020FFF7CFFC1F2000904FF49E
:1016400078432D2214216820FFF7C6FC1F2000904C
:101650004FF478432D2214217020FFF7BDFC1F208A
:1016600000904FF47843482214217820FFF7B4FC0F
:101670001F2000904FF47843522214218020FFF75E
:10168000ABFC1F2000904FF478433A2214218820AD
:10169000FFF7A2FC1F2000904FF47843984605986E
:1016A00004F026FBC0B20A2190FBF1F010F13002E9
:1016B0004346D2B214219020FFF78EFC059804F027
:1016C00017FBC0B20A211F2200924FF4784390FB0F
:1016D000F1F201FB120010F13002D2B21421982075
:1016E000FFF77AFC1F2000904FF478432E2214213C
:1016F000A020FFF771FC0598EC4904F057F804F0BE
:10170000F7FA80B20A211F2200924FF4784390FB2F
:10171000F1F201FB120010F13002D2B21421A82024
:10172000FFF75AFC1F2000904FF478432522142124
:10173000B020FFF751FC00F0E1FD03901F20009066
:101740004FF478434C2228210020FFF745FC1F204E
:1017500000904FF47843692228210820FFF73CFCD1
:101760001F2000904FF47843672228211020FFF7B4
:1017700033FC1F2000904FF4784368222821182062
:10178000FFF72AFC1F2000904FF478437422282191
:101790002020FFF721FC1F2000904FF478432D22DA
:1017A00028212820FFF718FC1F2000904FF47843D1
:1017B0002D2228213020FFF70FFC1F2000904FF42E
:1017C00078439846039804F093FA80B2642190FB22
:1017D000F1F010F130024346D2B228213820FFF751
:1017E000FBFB039804F084FA80B264211F2200926C
:1017F0004FF4784390FBF1F201FB12000A2190FBB9
:10180000F1F010F13002D2B228214020FFF7E4FBC2
:10181000039804F06DFA80B20A211F2200924FF45F
:10182000784390FBF1F201FB120010F13002D2B2CA
:1018300028214820FFF7D0FB1F2000904FF4784369
:101840002E2228215020FFF7C7FB0398974903F069
:10185000ADFF04F04DFA80B20A211F2200924FF42E
:10186000784390FBF1F201FB120010F13002D2B28A
:1018700028215820FFF7B0FB1F2000904FF4784339
:101880006C2228216020FFF7A7FB1F2000904FF457
:101890007843752228216820FFF79EFB1F200090C7
:1018A0004FF47843782228217020FFF795FB00F051
:1018B0006FFD04F003FB04901F2000904FF4784369
:1018C00052223C210020FFF787FB1F2000904FF49D
:1018D000784361223C210820FFF77EFB1F20009007
:1018E0004FF4784369223C211020FFF775FB1F203D
:1018F00000904FF478436E223C211820FFF76CFBD8
:101900001F2000904FF478432D223C212020FFF728
:1019100063FB1F2000904FF478432D223C212820A8
:10192000FFF75AFB1F2000904FF478439846049825
:1019300004F0DEF9C0B20A2190FBF1F010F13002A0
:101940004346D2B23C213020FFF746FB049804F016
:10195000CFF9C0B20A211F2200924FF4784390FBC6
:10196000F1F201FB120010F13002D2B23C2138201A
:10197000FFF732FB1F2000904FF478432E223C21CA
:101980004020FFF729FB0498484903F00FFF04F0BB
:10199000AFF980B20A211F2200924FF4784390FBE6
:1019A000F1F201FB120010F13002D2B23C214820CA
:1019B000FFF712FB1F2000904FF4784325223C21B3
:1019C0005020FFF709FBB520FFF77EFB6220FFF7F1
:1019D0007BFB1620FFF778FB1620050001A804000A
:1019E00000200600F6B2022E08D2F6B2305DFFF7F4
:1019F0006BFBF6B2305D4540761CF3E702A80400AD
:101A000000200600F6B2042E08D2F6B2305DFFF7D1
:101A10005BFBF6B2305D4540761CF3E706A8040098
:101A200000200600F6B2042E08D2F6B2305DFFF7B1
:101A30004BFBF6B2305D4540761CF3E705A8040089
:101A400000200600F6B2042E08D2F6B2305DFFF791
:101A50003BFBF6B2305D4540761CF3E703A804007B
:101A600000200600F6B2042E08D2F6B2305DFFF771
:101A70002BFBF6B2305D4540761CF3E704A804006A
:101A800000200600F6B2042E08D2F6B2305DFFF751
:101A90001BFBF6B2305D4540761CF3E72800C0B270
:101AA000FFF712FBFFF7B2BBA08601000000204148
:101AB0005806002070B504000D0016005FF40031D8
:101AC000DFF8E00302F0B5FE0028F7D10121DFF8CE
:101AD000D40302F051FEDFF8C013DFF8C80302F0B0
:101AE00088FE0028F7D00022EE21DFF8B80302F0CC
:101AF00075FEDFF8A813DFF8AC0302F07AFE0028C9
:101B0000F7D02900C9B2DFF89C0302F061FEDFF8CC
:101B10009013DFF8900302F06CFE0028F7D001214B
:101B2000DFF8800302F028FEDFF86C13DFF874039F
:101B300002F05FFE0028F7D00122EE21DFF86403F7
:101B400002F04CFE1349DFF85C0302F052FE00285D
:101B5000F8D0F6B2002E17D0F6B2012E07D1002130
:101B6000D04802F027FE0121CE4802F014FE0A49B7
:101B7000CC4802F03EFE0028EBD0CA4802F02BFE13
:101B80002070641CFF36E4E70121C64802F012FE13
:101B900070BD00BF020003004000030000B587B025
:101BA0001622AA2100A8FFF785FF9DF800009DF8E6
:101BB000011051EA0020BD4908809DF802009DF8FF
:101BC000031051EA0020B94948809DF804009DF8AF
:101BD000051051EA0020B54988809DF806009DF85F
:101BE000071051EA0020B149C8809DF808009DF80F
:101BF000091051EA0020AD4908819DF80A009DF8BE
:101C00000B1051EA0020A94948819DF80C009DF86D
:101C10000D1051EA0020A54988819DF80E009DF81D
:101C20000F1051EA0020A149C8819DF810009DF8CD
:101C3000111051EA00209D4908829DF812009DF87C
:101C4000131051EA0020994948829DF814009DF82C
:101C5000151051EA00209549888207B000BD70B583
:101C600082B05FF400318F4802F0E3FD0028F8D124
:101C700001218C4802F080FD87498A4802F0B9FDB5
:101C80000028F9D00022EE21864802F0A7FD834902
:101C9000844802F0AEFD0028F9D0F421814802F01A
:101CA00097FD7F497F4802F0A4FD0028F9D02E213E
:101CB0007C4802F08DFD7A497A4802F09AFD0028AE
:101CC000F9D00121774802F066FD0520FFF76EFA92
:101CD0000222F62100A8FFF7EDFE9DF800009DF816
:101CE000011051EA002071494989401A6F49098958
:101CF0004843C01304006D48B0F91200C0026B499C
:101D0000B1F91410091990FBF1F005002819664982
:101D1000086065480068083000110600300080B295
:101D200076BD00002DE9FE4F032080465FF40031B0
:101D30005C4802F07EFD0028F8D10121594802F0EC
:101D40001BFD5549574802F054FD0028F9D00022E8
:101D5000EE21544802F042FD5049524802F049FD3C
:101D60000028F9D0F4214F4802F032FD4C494D488B
:101D700002F03FFD0028F9D0F4214A4802F028FD86
:101D80004749484802F035FD0028F9D0012145486F
:101D900002F001FD1A20FFF709FA0322F62100A83C
:101DA000FFF788FE9DF800009DF80110090251EA36
:101DB00000409DF802100843D8F108010841029044
:101DC00039480068B0F57A6004003848B0F90E0070
:101DD00004FB04F109134843C01205003348B0F96D
:101DE00002006043C0120600701982462F48B0F905
:101DF00000001AEB800010FA08F0801C042190FB10
:101E0000F1F001902948B0F9040060434013050047
:101E10002648B0F90C0004FB04F1091348430014F0
:101E200006007019801C042190FBF1F082461F48C7
:101E3000C0881AF500414843C013834602980199AF
:101E4000401A4CF2503151FA08F14843814619F1D9
:101E5000004F05D25FEA4900B0FBFBF0070003E04A
:101E6000B9FBFBF040000700381239124843050067
:101E700040F6DE3000FB05F00514064800FB07F0D5
:101E800000140600701900F6CF6017EB2017380019
:101E9000BDE8FE8F43E3FFFF01000300820007005F
:101EA00084000700005400405C0600203406002037
:101EB00080B54FF40070ADF8000014208DF80300D9
:101EC00003208DF8020000A9B34801F01BFD01BDFD
:101ED00080B54FF40070ADF8000004208DF80300C9
:101EE00003208DF8020000A9AB4801F00BFD01BDF5
:101EF00070B5040000200600FFF7DAFF802005001F
:101F0000EDB2012D21D3254205D04FF40071A24836
:101F100001F0B0FD04E04FF400719F4801F0ADFD09
:101F20000220FFF751F94FF48041714801F0A2FD02
:101F30000520FFF749F94FF480416D4801F09DFD00
:101F4000EDB2022095FBF0F5DAE74FF4007192480C
:101F500001F093FDFFF7BCFF4FF48041644801F0AE
:101F600089FD0220FFF730F94FF400718A4801F033
:101F700071FD06000220FFF727F94FF480415C480D
:101F800001F07BFD3000C0B270BD70B504000020D0
:101F90000600FFF79DFF80200500EDB2012D1CD348
:101FA0004FF48041524801F065FD0220FFF70CF923
:101FB0004FF40071784801F04DFD002800D02E4309
:101FC0004FF480414A4801F058FD0220FFF7FCF829
:101FD000EDB2022095FBF0F5DFE7FFF769FFE4B211
:101FE000002C05D04FF400716B4801F046FD04E071
:101FF0004FF40071684801F03DFD4FF480413C48CA
:1020000001F038FD0520FFF7DFF84FF48041384834
:1020100001F033FDFFF75CFF3000C0B270BD80B54A
:10202000FFF746FF4FF400715B4801F023FD4FF4CA
:1020300080412F4801F021FD0220FFF7C5F84FF441
:1020400080412B4801F016FD0220FFF7BDF84FF448
:102050000071514801F011FD0220FFF7B5F84FF46F
:102060008041234801F009FD0520FFF7ADF84FF44A
:1020700080411F4801F0FEFC0220FFF7A5F84FF455
:102080000071454801F0F6FC0220FFF79DF84FF47F
:102090008041174801F0F1FCFFF71AFF01BD10B5B0
:1020A000FFF706FF4FF400713B4801F0E3FC4FF4EB
:1020B00080410F4801F0E1FC00200400E4B2092C4B
:1020C00011D24FF480410A4801F0D4FC0120FFF7FF
:1020D0007BF84FF48041064801F0CFFC0120FFF768
:1020E00073F8641CEAE7FFF79AFFFFF7F1FE10BDF3
:1020F000001001402DE9F84304000D000020060007
:10210000FFF78DFFEDB22800002802D0012806D08D
:102110000AE00320FFF7ECFE8019060004E005202A
:10212000FFF7E6FE80190600FFF7D2FE19480068A7
:1021300010F5FA6080464FF40071174801F08AFCF0
:10214000002805D013480068B8EB00000028F2D53D
:102150004FF40071104801F07DFC002800D0761C7F
:10216000F6B2002E02D03000C0B211E00120FFF71D
:102170000CFF81465FFA89F90120FFF706FF50EA5C
:10218000092020800020FFF700FF07003000C0B2C8
:10219000BDE8F28358060020000801402DE9F04711
:1021A00082B082460D0000200400002100A8FFF745
:1021B000A1FF00190400BDF8000003F0FDFD354A41
:1021C000354B02F06FFD354A354B03F009FA03F049
:1021D000ADFCCAF80000012100A8FFF78BFF001931
:1021E0000400BDF8000003F0E7FD2E4A2E4B02F07C
:1021F00059FD2E4A2E4B03F0F3F980468946BDF86F
:10220000000003F0D9FD02000B002A482A4902F021
:1022100049FD06000F00BDF8000003F0CDFD3200BF
:102220003B0002F03FFD02000B004046494602F031
:10223000D7FE03F07BFC2860286803F031FD804660
:102240008946DAF800101D4803F0B8FC03F028FDB9
:1022500006000F00BDF8000003F0AEFD02000B0009
:102260001748184902F01EFD02000B0009480A49F0
:1022700003F0B6F932003B0002F014FD42464B4633
:1022800003F0AEF903F052FC28602000C0B2BDE8B4
:10229000F68700BF7B14AE47E17A843F14AE47E176
:1022A0007AD443C027C286A757CAA23F569FABAD78
:1022B000D85F00C0978357CD9EC4BA3E0000C8C106
:1022C000F168E388B5F8143F10B504000723012234
:1022D0002100C9B2084802F005F90121064802F0C0
:1022E000F4F80221044802F091F90028F9D00248DC
:1022F00002F075F910BD00BF0024014070B5082040
:10230000FFF7E2FF0600B6B2300003F0D7FD19492F
:10231000096803F04BFA03F0C3FC0022164B02F0ED
:10232000ADFA03F003FC040012480168134803F0FF
:102330003DFA210003F0D6F8114903F03FFC0500F7
:102340001048290003F0CEF803F0AAFC03F0E8FDE2
:102350005FF033320C4B02F091FA02000B000020C8
:102360000A4901F051F80022084B02F09BFC03F0EF
:10237000DDFB70BD5406002000FEAF400000204190
:10238000000020C1000070413333E33F00002440CF
:1023900080B50420FFF798FF03F00EFD034A044BBD
:1023A00002F06CFA03F050FC80B202BD9A99999940
:1023B0009979444000000000000000000000000087
:1023C000000000000000183C3C3C181818001818C9
:1023D00000000000006666662400000000000000A7
:1023E000000000000000006C6CFE6C6C6CFE6C6CFD
:1023F0000000000018187CC6C2C07C0686C67C1887
:102400001800000000000000C2C60C183060C6862C
:10241000000000000000386C6C3876DCCCCCCC7648
:1024200000000000003030306000000000000000BC
:102430000000000000000C18303030303030180C34
:1024400000000000000030180C0C0C0C0C0C1830B4
:10245000000000000000000000663CFF3C66000039
:1024600000000000000000000018187E181800008E
:102470000000000000000000000000000018181814
:102480003000000000000000000000FE000000001E
:10249000000000000000000000000000000018180C
:1024A000000000000000000002060C183060C08030
:1024B0000000000000007CC6C6CED6D6E6C6C67CAC
:1024C0000000000000001838781818181818187E36
:1024D0000000000000007CC6060C183060C0C6FE7C
:1024E0000000000000007CC606063C060606C67C0E
:1024F0000000000000000C1C3C6CCCFE0C0C0C1E00
:10250000000000000000FEC0C0C0FC0E0606C67C35
:102510000000000000003860C0C0FCC6C6C6C67C13
:10252000000000000000FEC606060C1830303030F7
:102530000000000000007CC6C6C67CC6C6C6C67CBD
:102540000000000000007CC6C6C67E0606060C78A9
:10255000000000000000000018180000001818001B
:1025600000000000000000001818000000181830DB
:1025700000000000000000060C18306030180C0647
:1025800000000000000000000000FE0000FE00004F
:10259000000000000000006030180C060C183060CD
:1025A0000000000000007CC6C60C1818180018189F
:1025B000000000000000007CC6C6DEDEDEDCC07C61
:1025C00000000000000010386CC6C6FEC6C6C6C6B5
:1025D000000000000000FC6666667C66666666FCBD
:1025E0000000000000003C66C2C0C0C0C0C2663C23
:1025F000000000000000F86C6666666666666CF8AF
:10260000000000000000FE6662687868606266FE96
:10261000000000000000FE6662687868606060F09C
:102620000000000000003C66C2C0C0DEC6C6663ABC
:10263000000000000000C6C6C6C6FEC6C6C6C6C6A6
:102640000000000000003C18181818181818183C52
:102650000000000000001E0C0C0C0C0CCCCCCC7844
:10266000000000000000E6666C6C78786C6666E638
:10267000000000000000F06060606060606266FE64
:10268000000000000000C6EEFEFED6C6C6C6C6C6E6
:10269000000000000000C6E6F6FEDECEC6C6C6C6D6
:1026A000000000000000386CC6C6C6C6C6C66C383E
:1026B000000000000000FC6666667C60606060F000
:1026C0000000000000007CC6C6C6C6C6C6D6DE7CBA
:1026D0000C0E00000000FC6666667C6C666666E6B2
:1026E0000000000000007CC6C660380C06C6C67C30
:1026F0000000000000007E7E5A1818181818183CB8
:10270000000000000000C6C6C6C6C6C6C6C6C67C57
:10271000000000000000C6C6C6C6C6C6C66C38109B
:10272000000000000000C6C6C6C6C6D6D6FE6C6C49
:10273000000000000000C6C66C6C38386C6CC6C661
:10274000000000000000666666663C181818183C19
:10275000000000000000FEC6860C183060C2C6FEF5
:102760000000000000003C30303030303030303C71
:102770000000000000000080C0E070381C0E06025F
:102780000000000000003C0C0C0C0C0C0C0C0C3C71
:102790000000000010386CC60000000000000000BF
:1027A0000000000000000000000000000000000029
:1027B00000FF0000303018000000000000000000A2
:1027C000000000000000000000780C7CCCCCCC762F
:1027D000000000000000E06060786C66666666DC01
:1027E0000000000000000000007CC6C0C0C0C67C25
:1027F0000000000000001C0C0C3C6CCCCCCCCC7657
:102800000000000000000000007CC6FEC0C0C67CC6
:10281000000000000000386C6460F060606060F0F0
:1028200000000000000000000076CCCCCCCCCC7CBA
:102830000CCC78000000E060606C7666666666E648
:102840000000000000001818003818181818183C6C
:102850000000000000000606000E0606060606063A
:1028600066663C000000E06060666C78786C66E646
:102870000000000000003818181818181818183C24
:10288000000000000000000000ECFED6D6D6D6D630
:10289000000000000000000000DC666666666666F8
:1028A0000000000000000000007CC6C6C6C6C67C52
:1028B000000000000000000000DC66666666667CC2
:1028C0006060F000000000000076CCCCCCCCCC7C6A
:1028D0000C0C1E000000000000DC7662606060F0FE
:1028E0000000000000000000007CC660380CC67CC0
:1028F000000000000000103030FC30303030361C5A
:10290000000000000000000000CCCCCCCCCCCC7689
:1029100000000000000000000066666666663C1865
:10292000000000000000000000C6C6C6D6D6FE6C3F
:10293000000000000000000000C66C3838386CC68B
:10294000000000000000000000C6C6C6C6C6C67E65
:10295000060CF8000000000000FECC183060C6FE37
:102960000000000000000E18181870181818180E33
:10297000000000000000181818180018181818187F
:10298000000000000000701818180E1818181870B1
:1029900000000000000076DC0000000000000000E5
:1029A000000000000000000010386CC6C6C6FE0023
:1029B0000000000040B2002808D540B210F00F021D
:1029C000054BD2180B0102F8043C03E040B2034A65
:1029D0000B018354704700BF18ED00E000E400E0F5
:1029E00010B50400B4F1807F01D3012010E0200273
:1029F000000A401E074908600F215FF0FF30FFF713
:102A0000D9FF05480021016004480721016000202A
:102A100010BD00BF14E000E018E000E010E000E0AE
:102A200080B500F011F800F067F800F01FF900F031
:102A300089F900F0EBF900F023FA00F04DFA00F00C
:102A400039F900F00DFA01BD10B500F063FA5FF43A
:102A5000803000F09DFA00F0C5FA040064B2012C49
:102A600046D1102003F073F9022003F063F900202F
:102A700000F02EFB002000F041FB4FF4806000F0DE
:102A800032FB4FF4004000F045FB402000F0F4FA28
:102A90004FF4C06000F0FBFA012000F003FB3B2084
:102AA00000F07EFC0028FAD004215FF4803000F0B2
:102AB000D1FA5FF4E0115FF4803000F0B5FA012044
:102AC00000F0C2FA392000F06BFC0028FAD0022096
:102AD00000F0EEFA00F0F7FA0828FBD101210548D2
:102AE00000F028FC012140F23D6000F011FC00E004
:102AF000FEE710BD0100220080B5574800F09CFEA3
:102B0000564800F099FE564800F096FE554800F0F1
:102B100093FE554800F090FE0121082000F0B4FF1C
:102B20000820ADF8000014208DF8030003208DF874
:102B3000020000A9484800F0E5FE0821464800F0E0
:102B400099FF9C20ADF8000010208DF8030000A92B
:102B5000444800F0D7FE9C21424800F08BFF012042
:102B6000ADF8000048208DF8030003208DF8020026
:102B700000A9394800F0C6FE4FF48060ADF80000AF
:102B800000A9364800F0BEFE42F21000ADF8000089
:102B900000A9334800F0B6FE0021002000F0C2FF7B
:102BA0000A21012000F0BEFF0421022000F0BAFF3C
:102BB0000D21022000F0B6FF0120ADF8000000203A
:102BC0008DF8030000A9254800F09CFE1020ADF808
:102BD000000000A9204800F095FE2020ADF800007C
:102BE00018208DF8030000A91E4800F08BFE40203D
:102BF000ADF8000004208DF8030000A9194800F08A
:102C000081FEC020ADF800001C208DF803000320D9
:102C10008DF8020000A9114800F074FE4FF48040C6
:102C2000ADF8000010208DF8030003208DF802009D
:102C300000A90B4800F066FE4FF40070ADF80000EC
:102C400014208DF8030003208DF8020000A902482B
:102C500000F058FE01BD00BF00080140000C01401B
:102C600000100140001401400018014000B583B07D
:102C700002F0B6FB0120009000208DF804000C202B
:102C80008DF8050001208DF8060000A802F0BAFBBF
:102C90001020009000A802F0B5FB4FF48060009077
:102CA00000A802F0AFFB4FF40050009000A802F023
:102CB000A9FB07BD80B500215FF0006002F0E4FED3
:102CC0004FF4A06002F098FE06208DF8000003206B
:102CD0008DF8010001208DF8020001208DF803001D
:102CE00000A802F091FE0A208DF8000003208DF864
:102CF000010001208DF8020001208DF8030000A8DA
:102D000002F082FE28208DF8000003208DF80100DB
:102D100001208DF8020001208DF8030000A802F0C8
:102D200073FE26208DF8000003208DF8010001209D
:102D30008DF8020001208DF8030000A802F064FE67
:102D400001BD000030B585B02D4801F02DFB0020FD
:102D5000009000208DF8040000208DF805005FF43D
:102D6000602002900020039001208DF8100000A93F
:102D7000234801F04BFB012001F034FC01212048E5
:102D800001F072FB1E4801F07CFB1D4801F07EFB48
:102D90000028FAD11A4801F086FB194801F088FB97
:102DA0000028FAD100200500062301221121144831
:102DB00001F098FB00200400E4B2102C10D2012195
:102DC0000F4801F082FB02210D4801F01FFC002892
:102DD000F9D00B4801F003FC40190500641CEBE737
:102DE000280002F0E9FF02000B005FF033300549D4
:102DF00001F044FD02F09AFE0349086005B030BDC1
:102E0000002401403333F3405406002000B585B060
:102E10004FF4165000900020ADF804000020ADF8EB
:102E200006000020ADF808000020ADF80C000C20D2
:102E3000ADF80A00094801F077F900A9074801F048
:102E4000C3F9012240F22551044801F03FFA012163
:102E5000024801F02DFA05B000BD00BF004400405B
:102E600080B50648FFF7BCFD002800D0FEE7002132
:102E70005FF0FF30FFF79EFD01BD00BF401901006C
:102E800000B585B0124801F0CFFB0020ADF804007A
:102E90004BF6FF70ADF80600A020ADF808004FF427
:102EA0008060ADF80A004FF48040ADF80C0009488E
:102EB00000900121064801F051FC00A9044801F0EE
:102EC000D1FB0121024801F075FC05B000BD00BF37
:102ED00000540040801A0600E0B54FF6FF70ADF8D0
:102EE00004004720ADF800000020ADF806000020E7
:102EF000ADF802005FF0804000F0C6FF00A95FF06F
:102F0000804001F0AFF801215FF0804001F0FEF851
:102F100007BD0000DFF8E004006850F00100DFF8B2
:102F2000D8140860DFF8E403006817490840DFF8A8
:102F3000DC130860DFF8C004006814490840DFF8BB
:102F4000B8140860DFF8B004006830F48020DFF8BF
:102F5000A8140860DFF8B403006830F4FE00DFF85E
:102F6000AC130860DFF89004006830F0A050DFF880
:102F700088140860DFF88C045FF47F010160DFF8DB
:102F800088030021016070470000FFF0FFFFF6FE9C
:102F9000DFF86414096831F48031DFF85C241160D3
:102FA000DFF85414096831F48021DFF84C241160F3
:102FB0000100B1F5803F03D0B1F5802F09D010E0BA
:102FC000DFF83414096851F48031DFF82C241160E3
:102FD00007E0DFF82414096851F4A021DFF8182471
:102FE0001160704738B500200090002004000020D8
:102FF0000500312000F0D4F905000098401C009035
:103000000098B0F5A06F02D06DB2002DF1D0312044
:1030100000F0C6F9002802D00120040001E00020E1
:103020000400200040B232BD00231A00DFF8DC3279
:103030001B681A0032F4741251EA00031A43DFF8D5
:10304000CC321A6070470000014940B208607047F6
:103050006000424200231A00DFF8AC321B681A00FD
:10306000044B1A4051EA00031A43DFF89C321A60FD
:10307000704700BFF0FFFEFF00221100A24A126855
:10308000110031F0F00101439F4A116070470022A6
:1030900011009D4A1268110031F4706101439A4A8F
:1030A00011607047014940B20860704768004242B1
:1030B00000221100954A1268110089088900014315
:1030C000924A116070479148006810F00C007047F8
:1030D000002211008D4A1268110031F0F001014305
:1030E0008A4A1160704700221100884A1268110054
:1030F00031F4E0610143854A1160704700221100FC
:10310000824A1268110031F4605151EAC0017F4ACD
:1031100011607047002211007C4A1268110031F4DE
:1031200040410143794A116070470000F0B55FF0FB
:10313000000E71465FF0000E72465FF0000E73469F
:103140005FF0000E74465FF0000E75465FF0000EF3
:1031500076465FF0000E77465FF0000EF446DFF82B
:10316000ACE1DEF800E01EF00C0E71468E46BEF1BA
:10317000000F06D0BEF1040F08D0BEF1080F0AD030
:1031800066E0DFF870E1C0F800E065E0DFF868E1D4
:10319000C0F800E060E0DFF874E1DEF800E01EF463
:1031A000701E7246DFF864E1DEF800E01EF4803E37
:1031B0007346920C0D2A01D0921C02E05FF0060EBD
:1031C0007246002B06D1DFF834E10EFB02FEC0F898
:1031D00000E041E0DFF830E1DEF800E01EF4803E80
:1031E0007546DFF824E1DEF800E01EF00F0E1EF158
:1031F000010E7646002D08D1DFF8FCE0BEFBF6FE9E
:1032000002FB0EFEC0F800E026E0DFF8FCE0DEF88E
:1032100000E01EF0F00E5FEA1E1E1EF1010E774662
:10322000DFF8E4E0DEF800E01EF4706E5FEA1E2EC8
:103230001EF1020EF446DFF8C0E0BEFBF7FE0CFB09
:103240000EFEBEFBF6FE02FB0EFEC0F800E003E041
:10325000DFF8A0E0C0F800E0DFF8B0E0DEF800E062
:103260001EF0F00E71460909DFF894E011F80EE047
:103270007446D0F800E03EFA04FEC0F804E0DFF83F
:103280008CE0DEF800E01EF4E06E7146090ADFF81B
:1032900070E011F80EE07446D0F804E03EFA04FE47
:1032A000C0F808E0DFF864E0DEF800E01EF4605EDD
:1032B0007146C90ADFF848E011F80EE07446D0F80C
:1032C00004E03EFA04FEC0F80CE0DFF840E0DEF86F
:1032D00000E01EF4404E7146890BDFF828E011F83B
:1032E0000EE07446D0F80CE0BEFBF4FEC0F810E02F
:1032F000F0BD00BF00127A0040787D0100093D005A
:1033000068060020780600202C10024004100240BD
:1033100049B2002905D0064A12680243044B1A60DC
:1033200004E0034A12688243014B1A60704700BFF1
:103330001810024049B2002905D0064A126802431B
:10334000044B1A6004E0034A12688243014B1A607E
:10335000704700BF1C10024049B2002905D0064A40
:1033600012680243044B1A6004E0034A1268824365
:10337000014B1A60704700BF0C10024049B200298F
:1033800005D0064A12680243044B1A6004E0034A5F
:1033900012688243014B1A60704700BF1010024050
:1033A00010B4010000242200002423000024200087
:1033B000C9B24C09E4B22200012A03D10E4C2468A0
:1033C000230008E0022A03D10C4C2468230002E009
:1033D0000B4C24682300C9B211F01F042200012401
:1033E0009440234202D00124200001E00024200068
:1033F00040B210BC70470000001002402010024094
:1034000024100240081002402DE9F8460FB486B09F
:10341000DDE90801CDE90401BDF81E0047F6F071B1
:103420000840001140F2FF71884212D10025BDF81A
:103430001E000F21084208D1BDF81C0028B9BDF8B4
:103440001A0010B9BDF8180008B1022419E00124CF
:1034500017E0012804DA06A802F074FA01280EDA4F
:10346000BDF81E1048F20F02114043F6E0721143FE
:10347000ADF81E10A0F2FE354FF0FF3401E000253C
:103480000024002104A802F0FDF9060006D1DDE9C0
:1034900008230020002102F001FD15D0002C15D5D5
:1034A0002DB2012D17D1DDE906230020DFF85413DA
:1034B00002F0F4FC08D0012E0DD1DDE90623DFF87F
:1034C000481302F0EBFC3AD1D04998E1022C04D128
:1034D000DDE9060193E1012E60DB022E02D1DDE978
:1034E00008018CE1012C28D1BDF81E000004BDF8B4
:1034F000260007D4000402D5002000217FE100202F
:10350000C3497CE100040BD4002EF8D14FF0FF3109
:1035100004A802F0B7F90028F1D50020BD496EE1FA
:10352000002EE9D14FF0FF3104A802F0ABF90028DA
:10353000E2D500204FF0004161E1012E0AD1BDF833
:10354000260000042DB202D4012DD8DAD4E7012DD3
:10355000D2DAD4E7BDF8260000040DD4002ECBD17A
:103560004FF0FF3104A802F08DF90028C4D5BDF852
:103570001E000004C0D5DCE702F0C8FC2121016078
:10358000002EBCD14FF0FF3104A802F07BF90028D7
:10359000B5D5BDF81E000004B1D5BEE7BDF81E00CC
:1035A00000040AD5002E08D502F0B0FC21210160EC
:1035B0004FF0FF306FF0004121E1DDE9060100220C
:1035C000002302F01FFC01D200270BE0DDE9060119
:1035D00081F00041CDE906014FF0FF3104A802F06F
:1035E00051F90746DDE906018B4A8C4B02F0F2FBEC
:1035F00009D2DDE9062300204FF0804101F052FBA3
:10360000CDE906016D1E0024CDE90244DDE9080183
:103610004FF0FF32824B02F0DDFB0AD22DB2002DBB
:1036200002D540F232756FE001D100256CE07D4D8E
:103630006AE0DDE9080100227B4B02F0E3FB2DB2DA
:1036400003D8002DF3D4ECD1EFE7284602F0AAFB13
:1036500004460D46DDE9080122462B4601F022FB17
:10366000CDE90201DDE9020102F0EEFA06002CD0FC
:10367000DDE90801CDE90201102102A802F002F9FA
:10368000DDE9020122462B4601F00CFB8246894609
:10369000304602F087FB02460B465046494601F091
:1036A0009FFC82468946DDE90801DDE9022301F03D
:1036B00097FC02460B462046294601F0F3FA524693
:1036C0004B4601F08DFFCDE90201DDE902235748A9
:1036D000574901F0E7FACDE902016FF4E66086424E
:1036E00001DA504D04E040F23275AE4200DA354660
:1036F000DDE9080102F0A8FA04B24E48844202DB78
:10370000B4F5806F00DB0024DFF800910026CA4684
:10371000DDE906010022534602F0C0FB4AD02046F4
:1037200002F040FB02460B46DDE9080101F058FCBF
:10373000CDE90401DDE904010022134602F0AEFBED
:103740000DD0DDE9060100F019FADDE9042301F0EE
:10375000A9FADDE9022301F043FFCDE90201002CC3
:1037600001D5644224B2DDE9060105E0DDE904018A
:10377000DDE9042301F096FACDE90401E00707D55D
:1037800032465346DDE9040101F08CFA06468A46CA
:10379000E4032414EAD1DDE908010022002302F049
:1037A00019FB07D2002049463246534601F066F81D
:1037B00006468A4600953246534602A801F082F931
:1037C000002816D4DDE908010022002302F002FBE4
:1037D00007D202F09BFB222101600020CDE902000C
:1037E00007E002F093FB2221016000200849CDE9A7
:1037F0000201002FDDE9020101D081F000410BB090
:10380000BDE8F0860000E03F0000E0BF0000F03FB0
:103810000000F07F0000F0FFCD3B7F669EA0E63FFA
:10382000FFC79CC0CEF8FFFF00C89C40EF39FAFEEE
:10383000422EE63F01FCFFFF10B504002A488442F7
:1038400008D101210420FFF787FD00210420FFF7A4
:1038500083FD48E02548844208D101210820FFF774
:103860007BFD00210820FFF777FD3CE020488442E3
:1038700008D101211020FFF76FFD00211020FFF774
:103880006BFD30E01B48844208D101212020FFF766
:1038900063FD00212020FFF75FFD24E016488442ED
:1038A00008D101214020FFF757FD00214020FFF7FC
:1038B00053FD18E01148844208D101218020FFF710
:1038C0004BFD00218020FFF747FD0CE00C488442AF
:1038D00009D101214FF48070FFF73EFD00214FF424
:1038E0008070FFF739FD10BD00080140000C014059
:1038F000001001400014014000180140001C01406C
:1039000000200140F0B55FF0000C62465FF0000C53
:1039100063465FF0000C64465FF0000C65465FF0A4
:10392000000C66465FF0000C674691F903C01CF07E
:103930000F0C624691F903C05FEACC6C03D591F994
:1039400002C05CEA0202B1F800C05FEA0C6C3AD037
:10395000D0F800C066465FF0000C6446082C31D2F7
:103960005FF0010C1CFA04FC6546B1F800C015EAD2
:103970000C0C6346AB4223D15FEA840C65465FF0D2
:103980000F0C1CFA05FC6746BE4312FA05FC5CEA04
:10399000060691F903C0BCF1280F06D15FF0010CB7
:1039A0001CFA04FCC0F814C00AE091F903C0BCF191
:1039B000480F05D15FF0010C1CFA04FCC0F810C0E0
:1039C000641CCBE70660B1F800C04FF4807EF4457C
:1039D0003FD3D0F804C066465FF0000C6446082C64
:1039E00036D25FF0010C14F1080E1CFA0EFC65468D
:1039F000B1F800C015EA0C0C6346AB4226D15FEA71
:103A0000840C65465FF00F0C1CFA05FC6746BE434C
:103A100012FA05FC5CEA060691F903C0BCF1280F16
:103A200007D15FF0010C14F1080E1CFA0EFCC0F86F
:103A300014C091F903C0BCF1480F07D15FF0010C2D
:103A400014F1080E1CFA0EFCC0F810C0641CC6E786
:103A50004660F0BD02000023180093680B4202D0BC
:103A60000123180001E000231800C0B270478068ED
:103A700080B2704789B20161704789B24161704775
:103A800089B2C16070470000F0B400263200002601
:103A900033000026340000263500002803D51F4ED1
:103AA0003668340002E01E4E3668340010F470268A
:103AB000360C350086B2320010F44016B6F5401FC1
:103AC00008D134F07064164E366836F07066144FC4
:103AD0003E6010E0C60206D50326AE4033009C438C
:103AE00054F0706407E0460DF6B2360112FA06F69D
:103AF000B44354F0706449B2002905D0460DF6B2C3
:103B0000360112FA06F63443002802D5034E34601B
:103B100001E0034E3460F0BC704700BF1C00014060
:103B20000400014030B400231A000F2311F00304F5
:103B3000E4B2A400A3401A00C9B28B100E4C54F892
:103B400023309343C9B28C100B4D45F82430C9B2D1
:103B50008B10094C54F82330C0B211F00304E4B2C6
:103B6000A40010FA04F42343C9B28C10024D45F8A6
:103B7000243030BC704700BF080001402DE9F74FEA
:103B800082B0BDF80E0047F6F0710840001140F217
:103B9000FF71884215D10026BDF80E000F210842A2
:103BA0000CD1BDF80C0048B9BDF80A0030B9BDF819
:103BB000080018B9BDF80E00000415D4DDE90201B3
:103BC0001CE1012804DA02A801F0BCFE012818DA81
:103BD000BDF80E1048F20F02114043F6E072114397
:103BE000ADF80E10A0F2FE36BDF80E0000040FD5A1
:103BF00002F08CF9212101604FF0FF306FF000419D
:103C0000FCE002F083F92121016000207D49F5E00C
:103C1000DDE902017C4A7D4B02F0DCF809D2DDE9E6
:103C2000022300204FF0804101F03CF8CDE9020171
:103C3000761EDDE902230020754901F0D1FC04461F
:103C40000D46DDE902230020724901F0C9FC02465D
:103C50000B462046294600F011FE074689463A46A3
:103C60004B4601F01FF882468B466B486B49524623
:103C70005B4601F017F802460B466948694901F0B6
:103C8000AFFC52465B4601F00DF802460B46664813
:103C9000664901F0A5FC52465B4601F003F8024676
:103CA0000B466348634901F09BFC52465B4600F0BB
:103CB000F9FF02460B466048604901F091FC52460C
:103CC0005B4600F0EFFF02460B465D485D4901F0A0
:103CD00087FC52465B4600F0E5FF02460B465A4819
:103CE0005A4901F07DFC02460B465046594600F009
:103CF000D9FF02460B462046294601F071F93A46A3
:103D00004B4600F0CFFF8046894630B202F04AF8B9
:103D100006460F460498C8B94D484E4932463B46C0
:103D200000F0C0FF42464B4601F05AF922462B46AE
:103D300001F056FC04460D464FF0404046493246DD
:103D40003B4600F0AFFF22462B4655E0012830DB12
:103D50000020424922462B4600F0A4FF009001912A
:103D600022462B463E483F4900F09CFF82468B4648
:103D70003D483E4932463B4600F094FF04460D461E
:103D800042464B463A48354900F08CFF02460B4606
:103D90002046294601F024F952465B4601F020FCFA
:103DA000009A019B01F01CFC04460D46002031499D
:103DB000C5E74FF0C040304922462B4600F072FF65
:103DC00082468B4622462B462C482D4900F06AFF3E
:103DD00004460D4642464B462A48274900F062FFFA
:103DE00002460B462046294601F0FAF852465B4649
:103DF00001F0F6FB32463B4601F0F2FB05B0BDE8B0
:103E0000F08F00BF0000F0FFCD3B7F669EA0E63F35
:103E10000000F0BF0000F03FF7DE29BFD8F8C23F36
:103E2000F4B3FECC1A99C33F62CB68D96F46C73F43
:103E3000C6C912DAC471CC3F4AE98A942449D23FF8
:103E4000F75F97999999D93FBC5555555555E53F19
:103E50009EBC9AF71C7D7F3E422EE63F7BCBDB3F2C
:103E6000ABA6320EE526553E7CC4BC7FDE27743EF1
:103E70000EE526151344D33F4715F73F44DF5DF8A1
:103E80000BAE543EFE822B6510B50400DFF87402C1
:103E900084420AD101214FF40060FFF75DFA00214E
:103EA0004FF40060FFF758FACFE0B4F1804F08D12B
:103EB00001210120FFF762FA00210120FFF75EFADD
:103EC000C3E08848844208D101210220FFF756FA56
:103ED00000210220FFF752FAB7E08348844208D15C
:103EE00001210420FFF74AFA00210420FFF746FAD7
:103EF000ABE07E48844208D101210820FFF73EFA5A
:103F000000210820FFF73AFA9FE07948844208D15F
:103F100001211020FFF732FA00211020FFF72EFABE
:103F200093E07448844208D101212020FFF726FA4B
:103F300000212020FFF722FA87E0DFF8CC0184423D
:103F40000AD101214FF40050FFF706FA00214FF487
:103F50000050FFF701FA78E03C4884420AD1012181
:103F60005FF40020FFF7F8F900215FF40020FFF76D
:103F7000F3F96AE0364884420AD101215FF48010E7
:103F8000FFF7EAF900215FF48010FFF7E5F95CE044
:103F9000304884420AD101215FF40010FFF7DCF9B8
:103FA00000215FF40010FFF7D7F94EE02A48844261
:103FB00008D101214020FFF7E1F900214020FFF75F
:103FC000DDF942E02548844208D101218020FFF735
:103FD000D5F900218020FFF7D1F936E0204884424E
:103FE0000AD101214FF48070FFF7C8F900214FF486
:103FF0008070FFF7C3F928E03F4884420AD10121CD
:104000005FF48030FFF7A8F900215FF48030FFF7FC
:10401000A3F91AE0394884420AD101215FF4003043
:10402000FFF79AF900215FF40030FFF795F90CE0F3
:104030003348844209D101215FF48020FFF78CF9D5
:1040400000215FF48020FFF787F910BD004C01408C
:10405000005001400054014000180040001C004086
:104060000020004000231A0003881A00254B9842C4
:104070000ED0254B98420BD0B0F1804F08D0194B91
:10408000984205D0184B984202D0184B984204D160
:104090004FF68F731A404B881A43154B984207D03E
:1040A000144B984204D04FF6FF431A40CB881A4372
:1040B00002808B8883850B880385124B98420BD036
:1040C000114B984208D00C4B984205D00B4B9842AC
:1040D00002D00B4B984201D10B7A038601238382D5
:1040E000704700000004004000080040000C004041
:1040F0000010004000140040004001400044014016
:1041000000480140002C01400034014049B2002920
:1041100004D0028852F00102028004E002884FF6C7
:10412000FE731A400280704710B504005F48844255
:104130000AD101214FF48040FFF70EF900214FF41E
:104140008040FFF709F936E01B4884420AD101217B
:104150005FF40030FFF712F900215FF40030FFF741
:104160000DF928E0154884420AD101215FF480202E
:10417000FFF704F900215FF48020FFF7FFF81AE051
:104180000F4884420AD101215FF40020FFF7F6F8BE
:1041900000215FF40020FFF7F1F80CE009488442A9
:1041A00009D101215FF48010FFF7E8F800215FF4E6
:1041B0008010FFF7E3F810BD0044004000480040C5
:1041C000004C0040005000402DE9F04786B005004B
:1041D0000C00002006000020070000208046002080
:1041E000814600208246A0890028AA46288A060027
:1041F0004CF6FF700640E08806432E82A889060030
:104200004EF6F3100640A0882189084361890843CF
:104210000643AE81A88A06004FF6FF400640A089FB
:104220000643AE8200A8FEF781FF2048824502D1F6
:104230000398070001E002980700A889000408D548
:10424000192000FB07F021684900B0FBF1F080461F
:1042500007E0192000FB07F021688900B0FBF1F0AE
:1042600080466420B8FBF0F00001060030096421AC
:1042700001FB10808146A889000409D55FEAC900C6
:1042800032306421B0FBF1F010F00700064308E083
:104290005FEA091032306421B0FBF1F010F00F003A
:1042A00006432E8106B0BDE8F087000000380140CB
:1042B00049B2002904D0828952F40052828104E07C
:1042C00082894DF6FF731A4082817047F0B400274F
:1042D0003B0000273C0000273D0000273E0040F641
:1042E0006A1789B2B94206000F00FFB27F09FFB218
:1042F0003B0089B211F01F073C000127A7403D0099
:10430000012B01D10C3604E0022B01D1103600E064
:10431000143652B2002A03D037682F43376002E0C8
:104320003768AF433760F0BC70478088C005C00D68
:10433000704770B4020000263300002634000026C7
:1043400035000026300040F66A1689B2B1420E00F0
:10435000F6B27609F6B2350089B211F01F063400C4
:10436000012616FA04F4012D02D19689344006E0A4
:10437000022D02D1168A344001E0968A344089B277
:104380000E0AB6B23300012616FA03F3168833403C
:10439000002C04D0002B02D00126300001E00026C2
:1043A000300040B270BC704710B50400144884421D
:1043B0000AD101214FF40070FEF7CEFF00214FF427
:1043C0000070FEF7C9FF1AE00E4884420AD10121AD
:1043D0004FF48060FEF7C0FF00214FF48060FEF7CD
:1043E000BBFF0CE00848844209D101214FF4004092
:1043F000FEF7B2FF00214FF40040FEF7ADFF10BD05
:104400000024014000280140003C014030B4002459
:1044100023000024220044682300114C23400C6830
:1044200091F9045054EA052423434360846823002F
:104430000C4C2340CC688D682C4391F9055054EA0C
:10444000450423438360C46A230033F470030C7C67
:10445000FF342243D2B253EA0253C36230BC7047E6
:10446000FFFEF0FFFDF7F1FF49B2002904D082689A
:1044700052F00102826003E08268520852008260BA
:104480007047816851F00801816070470100002287
:1044900010008A68120702D50122100001E00022F4
:1044A000100040B27047816851F00401816070478C
:1044B0000100002210008A68520702D50122100074
:1044C00001E00022100040B2704749B2002904D038
:1044D000826852F4A002826003E0826832F4A00293
:1044E00082607047F0B40026350000263400C9B25F
:1044F0000A2916D3C6683500072611F1F6075FF0C2
:10450000030C0CFB07F7BE403400A543DBB211F1EE
:10451000F60603277E4313FA06F634002543C560EA
:1045200011E0066935000726032707FB01F7BE40A7
:104530003400A543DBB2032606FB01F613FA06F6A8
:10454000340025430561D2B2072A16D2466B3500E6
:104550001F2612F1FF075FF0050C0CFB07F7BE40AA
:104560003400A543C9B212F1FF0605277E4311FAB4
:1045700006F63400254345632FE0D2B20D2A16D249
:10458000066B35001F2612F1F9075FF0050C0CFBD6
:1045900007F7BE403400A543C9B212F1F90605275A
:1045A0007E4311FA06F634002543056315E0C66A1A
:1045B00035001F2612F1F3075FF0050C0CFB07F71F
:1045C000BE403400A543C9B212F1F30605277E436D
:1045D00011FA06F634002543C562F0BC7047C06C82
:1045E00080B2704740B2002806D00749096851F4EC
:1045F0000001054A116005E00349096831F4000132
:10460000014A1160704700BF0824014002000023E6
:10461000180013680B4202D00123180001E00023A8
:10462000180040B27047000010B504000C488442E6
:104630000AD101215FF40010FEF7A0FE00215FF413
:104640000010FEF79BFE09E001215FF48000FEF7F9
:1046500095FE00215FF48000FEF790FE10BD00BFC4
:10466000005400402DE9F04385B005000C00002007
:104670000600002007000420804635488146A888AF
:1046800006004FF6C070064000A8FEF74FFD0298E6
:1046900081463048B9FBF0F007003E43AE802888E1
:1046A0004FF6FE71084028800020060020682A4945
:1046B000884210D220684000B9FBF0F080461FFA13
:1046C00088F8B8F1040F01D20420804658EA0606A3
:1046D000781C288426E0E0884BF6FF71884206D1DA
:1046E000206803214843B9FBF0F0804607E02068CA
:1046F00019214843B9FBF0F0804658F480485FEA3E
:10470000085001D158F0010858F400400643BFB2E8
:104710004FF4967000FB07F04FF47A7190FBF1F0C4
:10472000401C2884AE83288850F001002880288807
:1047300006004FF6F5300640A0886189084306431D
:104740002E80A08921890843288105B0BDE8F08327
:1047500000127A0040420F00A186010049B20029F0
:1047600004D0028852F00102028004E002884FF671
:10477000FE731A400280704749B2002905D00288B2
:104780004FF480731A43028004E002884FF6FF63FF
:104790001A400280704749B2002905D002884FF4C0
:1047A00000731A43028004E002884FF6FF531A4058
:1047B0000280704749B2002904D0028852F4806216
:1047C000028004E002884FF6FF331A4002807047EF
:1047D000C9B201827047008AC0B27047D2B2002AC3
:1047E00002D051F0010101E011F0FE01C9B20182D5
:1047F000704770B402000026330000263400002603
:10480000350000263000968A3400168B35002D04C2
:1048100055EA04063602360A330011EA03068E42D0
:1048200002D10126300001E00026300040B270BC09
:10483000704782B002000023180000230193002378
:10484000009300920B0F01930902090A019B002BB0
:1048500003D0009B1433009303E0090C009B183332
:104860000093009B1B680B4202D00123180001E05B
:104870000023180040B202B070470000F0B540F2CB
:10488000FF7581EA030C0CF0004C15EA11541DBFB2
:1048900015EA1357AC42AF42E5E0BC41C1F3130146
:1048A000C3F31303801A994143F4801304D2641EA6
:1048B0004000494180185941C90241EA5051B1FBB9
:1048C000F3F603FB1611A2FB0675D7EBC020A94136
:1048D00002D2761E80185941C90241EA5051B1FBFB
:1048E000F3FE03FB1E11A2FB0E75D7EBC020A941FE
:1048F00003D2AEF1010E80185941890241EA90516C
:10490000760546EA8E2EB1FBF3F603FB1611A2FBE9
:104910000675D7EB8020A94102D2761E8018594136
:10492000C90241EA50514EEA060EB1FBF3F603FB11
:104930001611A2FB0675D7EBC020A94102D2761E44
:1049400080185941C90241EA5051B1FBF3F703FB0A
:104950001711A2FB0735D3EBC020A94167F100076F
:104960000CBF004247F0010766F3D5274FEA1E311E
:10497000B80814F5806412DDBD0775F1004250EBF4
:104980000E5051EB045111F5801F5CBF41EA0C0140
:10499000F0BD4CF07F6141F0E0410020F0BDBD076B
:1049A0006D0840EA0E5041F48011D4F10104B4F1D5
:1049B00020060ADAC4F120060200E04001FA06F3FC
:1049C000E1401843B24015430EE0342C13DCC6F12D
:1049D000200445EA40056D0820FA06F2154321FA45
:1049E00006F0A1400D43002175F1004250F1000096
:1049F00051EB0C01F0BD00205FEA0C01F0BDCFB916
:104A000092185B41B3FA83F704BFB2FA82F6BF197A
:104A10000B3FB7F120062FBF02FA06F3BB40C7F1E8
:104A2000200622FA06F638BF3343BA401CB1E41917
:104A3000641E33E77F4231F00041B1FA81F404BFD4
:104A4000B0FA80F6A4190B3CB4F120062FBF00FA8F
:104A500006F1A140C4F1200620FA06F638BF314322
:104A6000A0403C1B1AE7AC421ABF05EA1357AF42FD
:104A700012E050EA41061CBF52EA4306BFE750EA83
:104A80004107304661461CBF41EA0551F0BD52EA7C
:104A9000430C08BFC143F0BD00204FF4001616EBD5
:104AA000410F98BF16EB430F08BF16EB410F24BF11
:104AB000C14305E016EB430F0CBF61464CEA0551BC
:104AC000F0BD00002DE9FC4B0FB40646D6E90045C9
:104AD0002046294600225E4B01F07CF905D3DDE932
:104AE0000201002301F0DAF903D10020C6E9000039
:104AF000ABE0204629460122564B01F083F905D848
:104B000000205549C6E9000101209EE0534A544B5C
:104B100000F0C8F80022002301F05CF934BF514BCB
:104B2000514B00F05DFD01F08FF807B2384601F0FF
:104B300039F98046894600224C4B00F0B3F8024612
:104B40000B462046294600F04BFA04460D464246E5
:104B50004B464748474900F0A5F802460B46204619
:104B6000294600F03DFA04460D466FF00102424B23
:104B700001F048F907D80022404B01F02BF902D28E
:104B8000DDE9020159E022462B4600F08BF8804611
:104B900089463B4A3B4B00F085F802460B463A48B3
:104BA0003A4900F01DFD42464B4600F07BF8CDE946
:104BB0000001374A374B4046494600F073F8024639
:104BC0000B463548354900F00BFD02460B46404682
:104BD000494600F067F802460B460020224900F0E3
:104BE000FFFC02460B462046294600F05BF80446CF
:104BF0000D46DFF8ACB0DDE9000122462B4600F09F
:104C0000EFFC00225B4600F0EBFC80468946DDE9C4
:104C1000000122462B4600F0E3F902460B46002035
:104C2000594600F0DDFC02460B4640464946FFF778
:104C300025FEDDE9022300F035F8C6E90001BDF9E3
:104C40003800C119304600F045FB06B0BDE8F08BD6
:104C500000C89CC000C89C400000F07FFE822B650D
:104C60004715F73F0000E0BF0000E03F402EE63F61
:104C7000CAAB79CFD1F7B73EFFFF8FBC0000903CA5
:104C8000112E5781A03F503F5843128C8F71BC3F6B
:104C90004BE8A541B752013F0BBDF3DAE8708C3FFA
:104CA0000000F03FB0B581EA030C0CF0004C40F27C
:104CB000FF7515EA11541DBF15EA1357AC42AF42F8
:104CC0003AE0E41923EA455343F48013C90241F062
:104CD000004141EA50574FEAC02E1100AEFB0202DC
:104CE00000284FF00000E7FB01204FF00001E3FB3C
:104CF0000E2118BF42F00102401800214941E3FB98
:104D00000701A4F580640F0302D2520040414941DB
:104D100054F101046BDD470872F1004250F10000CC
:104D200051EB0451A1F580115CBF41EA0C01B0BD0B
:104D30004CEA05510020B0BD05EA1357AC4214BF40
:104D4000AF4240E050EA410E1CBF52EA430E02E07F
:104D500061460020B0BD24423C441AD13F42F7D006
:104D6000090302BF01460020143FB1FA81FEA7EB00
:104D70000E0401FA0EF70EF10C0ECEF1200100FA2E
:104D80000EFEC84047EA000723EA455343F4801368
:104D9000A3E733F00043B3FA83F704BFB2FA82FE0D
:104DA00077440B3FE41BB7F1200E2FBF02FA0EF33E
:104DB000BB40C7F1200E22FA0EFE38BF43EA0E03B5
:104DC000BA40641C82E750EA410E14BF52EA430E17
:104DD0006FF000014FF4001717EB430F8ABF19461D
:104DE00017EB410FB6E74CEA05510020B0BDD4F1F6
:104DF0000104B4F120070FDAC4F12007520828BFDC
:104E000042F0010210FA07F501FA07F7E1BF2A4361
:104E1000E0403843E1400FE0352C99DCC7F1200435
:104E200052EA400220FA07F218BF42F0010231FABA
:104E300007F0A1400A43002172F1004250F1000046
:104E400051EB0C01B0BD000080B56348006850F024
:104E500001006149086061480068134908405F49E2
:104E600008605D480068114908405B4908605A487D
:104E7000006830F48020584908605848006830F4D1
:104E8000FE00564908605448006830F0A05052496E
:104E9000086007485FF47F0101604E48002101600F
:104EA00000F008F801BD00BF0000FFF0FFFFF6FEB4
:104EB0000810024080B500F001F801BD82B000206A
:104EC0000190002000904448006850F4803042492E
:104ED00008604148006810F4003000900198401CC0
:104EE00001900098002803D10198B0F5A06FF0D18F
:104EF00039480068800302D50120009001E00020BD
:104F00000090009801285DD12F48006850F01000F3
:104F10002D4908602C480068800880002A490860F4
:104F20002948006850F00200274908602B482B49A7
:104F30000968016029482949096801602748006813
:104F400050F4806025490860224800681F490840E5
:104F5000204908601F4800681D4908431D49086032
:104F60001D48006850F080601B4908601A480068BE
:104F70000001FBD51948006830F47C10174908601F
:104F80001648006850F4E810144908601248006898
:104F900050F08070104908600F4800688001FBD510
:104FA0000E480068800880000C4908600B480068C3
:104FB00050F00200094908600848006810F00C0031
:104FC0000828F9D102B070470020024000F0FEFF2F
:104FD000440601002C100240001002400410024060
:104FE00070B44FF0004591EA030F44BF6B4000F0EE
:104FF00000BB841A71EB030604D26E40001BB14162
:10500000121973414FF4001C1CEB410F34BF7CEBB1
:10501000430684E00C0DA4EB1356362E7DDC012EE6
:1050200043DC45EAC32343EA525312BFD202920241
:105030005B08240545EAC12141EA5051D2EBC0206A
:10504000994125D407D1B0FA80F610FA06F164D060
:105050000020203608E0B1FA81F6B140C6F1200206
:1050600020FA02F21143B0404FEAF474B4EB465414
:1050700034F001064FEA74040AD8D6F50016760D0E
:1050800004F00044F04061FA06F25040F14048401C
:10509000C00A40EA415021F0004128BF5FEA5005B4
:1050A00050F1000044EBD12137E045EAC323DB0A8D
:1050B00045EAC121C90AB6F120050EDD42EA0242E5
:1050C000120CC5F1200603FA06F6EB4042EA06058B
:1050D0006D42984161F100010DE062FA06F5F2407F
:1050E000554063FA06FC82EA0C02F3405A406D42D6
:1050F000904161EB030111F4801F05D1641E62052C
:1051000002D06D004041494121F48011430875F1FE
:10511000004350F1000041EB045170BC70471CEBA0
:10512000410F15D223F0004352EA43060BD04FEA59
:105130004C0CBCEB410F04D80C0D661E342EB7DDB1
:10514000EBE7801A994150EA410608BF0021E4E7E5
:1051500008BF1CEB430F28BF6FF00001DDE7000024
:105160007047FEE7FEE7FEE7FEE7704770477047CF
:1051700002480068401C014908607047580600203A
:1051800080B51420FCF712F8012000F08BF90028FC
:1051900011D001210848FEF75DFC002804D18021D0
:1051A0004048FEF76AFC03E080213E48FEF762FCBF
:1051B000012000F091F901BD0008014080B51420E4
:1051C000FBF7F4FF102000F06DF900281ED010212D
:1051D0003348FEF73FFC002815D104213148FEF783
:1051E0004CFC1420FBF7E2FF2C48008840F69B7132
:1051F000884204D229480088643028490880042164
:105200002848FEF737FC102000F066F901BD0000C9
:1052100080B51420FBF7CAFF4FF4806000F042F91C
:1052200000281ED04FF480611B48FEF713FC0028B5
:1052300013D108211B48FEF720FC18480088642879
:1052400004D3164800886438144908801420FBF7FA
:10525000ADFF08211348FEF70DFC4FF4806000F00D
:105260003BF94FF4005000F01DF9002813D04FF423
:1052700000510B48FEF7EEFB002804D1102109482D
:10528000FEF7FBFB03E010210648FEF7F3FB4FF4AB
:10529000005000F021F901BD000C01406206002021
:1052A000001001400014014080B540F2255108482B
:1052B000FFF73FF8002801D0FBF76CFF40F22661B2
:1052C0000348FFF736F8002801D0FBF733FF01BD94
:1052D0000044004070B505460C46E88847F6F0717A
:1052E0000840001140F2FF76B04210D1E8880F214B
:1052F000084208D1A888002805D16888002802D172
:105300002888002801D0022070BD012070BD30B96E
:10531000284600F017FB012801DB002070BD0419AE
:10532000B4420ADBE888000402D500202A4901E0E3
:1053300000202A49C5E90001E7E7012CE88805DBE0
:1053400048F20F01084040EA041041E000F4004038
:10535000E98801F00F0141F01001E980641E14F1A9
:10536000340F05DAE8800020A8806880288070BDAE
:1053700024B26FF00E018C420BDA6A882A80AA8868
:105380006A80EA88AA800022EA80103424B28C4223
:10539000F3DB614209B20A0018D0C1F110022B8878
:1053A0000B416C88944023432B806B880B41AC8865
:1053B000944023436B80AB880B41EC8804FA02F2E3
:1053C0001A43AA80EA8822FA01F1E980E9880843B1
:1053D000E8804FF0FF3070BD0000F0FF0000F07F6C
:1053E0003C48002101602C48002101602B4800212D
:1053F00001602B4800210160394801490160704774
:10540000FFFF0F0000221100324A110090F9062020
:10541000002A39D02F4A126803689A432D4B1A602C
:105420001D4A126803689A431B4B1A6090F90420C6
:1054300051180A6803681A430A60184A1268036818
:105440009A43164B1A60164A126803689A43144B23
:105450001A6090F90520102A0CD1104A12680368CE
:105460001A430E4B1A600E4A126803681A430C4B1B
:105470001A6010E0174A110090F9052051180A68C7
:1054800003681A430A6006E090F9042051180A687C
:1054900003689A430A60704704040140080401400D
:1054A0000C04014001000023180000231A00094BDE
:1054B0001B680B401A000A4B1B680B4204D0002AE1
:1054C00002D00123180001E00023180040B2704709
:1054D000000000000004014001490860704700001E
:1054E0001404014010B5FF2313EAD0541DBF13EA82
:1054F000D1529C429A4239E0A41ADA0780EA0103A9
:10550000134042EA012142EA0020421A3CBF641ED5
:1055100001EB4202090AB2FBF1FE01FB1E2212025C
:10552000B2FBF1F001FB10226EF30F201202B2FB6E
:10553000F1FE4EEA00207F3406DDFE2C24DA53EA29
:10554000500050EBC45010BDD4F1020401FB1E22E8
:1055500040F08071192C1DDC21FA04F0C4F1200404
:10556000A140114371F10042584110BD9C421ABF45
:1055700003EAD1529A420FE080EA010E0EF0004396
:10558000400004D0490016D143F0FF4010BD49004F
:1055900008BFD343180010BD9C4205D1D21AF7D0E2
:1055A00001F00041484010BD4A0212BF0846484081
:1055B00000F0004010BD4AB90902B1FA81F29140F1
:1055C00044B1A418C00140F000409EE7C90141F079
:1055D000004152420002B0FA80F4A040141B94E74C
:1055E00070B44FF0004591EA030C44BF6B40FFF7E5
:1055F00000BD841A71EB030603D2001BB1411219DE
:1056000073414FF4001C1CEB410F34BF7CEB43048F
:1056100043E00C0DA4EB1356352E50DC45EAC323B2
:10562000DB0A45EAC121C912B6F120050DDD63FA96
:1056300005F6EB4086EA0305124218BF45F0010566
:10564000C01851F100010CD213E062FA06F5F240E5
:105650005540F3415A40B340F3405A4080185941F5
:1056600007D349085FEA30005FEA350528BF45F0F7
:10567000010501F58011420875F1004250F100006A
:1056800041EB045170BC4FF4001C1CEB410F38BFC0
:1056900070470020090D090570471CEB410F10D21F
:1056A00052EA43060BD0BCEB410F05D80C0DAB43BF
:1056B000661E342EB5DD02E0AB438018594170BC44
:1056C000704770BC7047000090EA010F44BF81F042
:1056D000004100F07ABA431A4FF000423EBF5340F7
:1056E000C01AC918A446D309C40D13EB400F34BF28
:1056F000B3EB410F40E074EBD1530CD342EA0121EC
:1057000023D8D1EB402009D3400A28BF5FEA5001DB
:1057100040EBC45017E0401A15D04002B0FA80F2B6
:10572000521C9040400A4FEA3423B3EB026384BF1B
:1057300000EB730007E040F400001C16DB07C4F127
:105740000104E040184364467047182BFBDC31FA33
:1057500003F202FA03F3591A38BF42F00102D2EB06
:1057600040203CBF4000641EE405C20572F10041C8
:1057700044EB50206446704713EB400F10D24B00AF
:105780000AD0A4EBD153022B04DB4902172BDEDD38
:10579000644670479143401A4300D4D10020D2E7B9
:1057A00013EB410FCFD36FF00000CCE7FF2212EADA
:1057B000D05C1DBF12EAD153944593422BE09C4428
:1057C000D30780EA01021A4043EA002043EA01219C
:1057D000A1FB0030410038BF40007CF17F010BDBB2
:1057E000FE294ADA5B0842EAC15153EA006373F1C9
:1057F000004C51EB10207047D1F1080CDCF1200176
:105800002FDB5B0810FA01F10B4373F1004120FA22
:105810000CF05041704794451CBF02EAD1539342AB
:1058200080EA010202F000421DD0400019D0490078
:1058300017D05BB9634514D00902B1FA81F39940DE
:10584000BCEB030CC00140F00040C1E70002B0FA1D
:1058500080FC10FA0CF0B3EB0C0CC90141F00041D4
:10586000B6E71000704740000AD0490008D010F198
:10587000807F94BF11F1807F02E042F0FF407047CB
:10588000D043704710B4C28847F6F0731A40121123
:1058900040F2FF739A420DD1C1880F22114207D105
:1058A000818829B9418819B9008808B9012044E0E4
:1058B000022042E0C3885B0406D1838823B9438871
:1058C00013B90388002B37D040F233439A1A521A87
:1058D00012B2012A30DB352A0ADBC18801F400410B
:1058E000C18000218180418001804FF0FF3024E0A1
:1058F000134902F00F0331F81330121101EB82014A
:10590000096A30F8114023405C4020F81140012A18
:105910000BD0022A05D0032A0CD181880B43002129
:10592000818041880B430021418001880B439BB259
:1059300000210180002BD8D1002010BC704700BF8F
:10594000745D000870B40146C88800F4004201206C
:10595000CB8813F00F03CB8012D18B8823B94B88EF
:1059600013B90B88002B42D08B88CB804C888C805D
:105970000C884C8000240C80103800B2002BF3D02F
:10598000CB88102B16D28B88CC88DD0B45EA4404DB
:10599000CC804D88EE0B46EA43038B800B88DE0BF0
:1059A00046EA45054D805B000B80401E00B2A4B264
:1059B000102CE8D3CB88202B15D34B880C88DD0323
:1059C00045EA54040C808C88E50345EA53034B8078
:1059D000CB88DD0345EA54048C805B08CB80401CF7
:1059E00000B2202BE9D2CB8803F00F03CB80CB8809
:1059F0001A43CA8070BC704702490143214A1160B2
:105A0000704700BF0000FA05F0B400242100002414
:105A100022000F24230090F90340002C20D0194CC1
:105A2000246814F4E064D4F5E064240A2100D1F180
:105A300004042200CB4044789440210084781C4028
:105A40002143090104780C4D6155047864110B4D14
:105A50000126077817F01F07BE4045F8246009E0CB
:105A600004786411064D0126077817F01F07BE4021
:105A700045F82460F0BC704700E400E000E100E07D
:105A800080E100E00CED00E0024A0A400243024BD4
:105A90001A60704780FFFF1F08ED00E038B5040072
:105AA0000D002148008848F6891188420AD1290052
:105AB00089B24E20FAF7A9FB210089B24F20FAF7EC
:105AC000A4FB2FE01848008849F2203188420CD10D
:105AD000290089B22020FAF798FB40F23F10011B01
