:020000040800F2
:1000000000060020F9F30308ADE50308AFE5030897
:10001000B1E50308B3E50308B5E5030800000000F7
:10002000000000000000000000000000B7E5030829
:10003000B9E5030800000000BBE50308BDE50308BF
:1000400049F403084DF4030851F4030855F4030878
:1000500059F403085DF40308CDE5030865F40308CB
:1000600069F403086DF4030809E6030875F403084E
:1000700079F403087DF4030881F4030885F4030888
:1000800089F403088DF4030891F4030895F4030838
:1000900099F403089DF40308A1F40308A5F40308E8
:1000A000A9F40308ADF40308B1F40308B5F4030898
:1000B000B9F40308BDF40308C1F40308C5F4030848
:1000C000C9F40308CDF40308D1F40308D5F40308F8
:1000D000D9F40308DDF40308F5E60308E5F40308A2
:1000E0005DE60308EDF40308F1F4030800000000E6
:1000F0000000000000000000000000000000000000
:100100000000000000000000F5F40308F9F4030803
:10011000FDF4030801F5030805F5030809F50308D4
:100120000DF5030811F5030815F5030819F5030883
:100130001DF5030821F5030825F5030829F5030833
:100140002DF5030831F5030835F5030839F50308E3
:10015000424D3684030000000000360000002800F5
:10016000000040010000F000000001001800000045
:10017000000000840300C40E0000C40E0000000054
:10018000000000000000D5F2FBD5F2FBD5F2FBD554
:10019000F2FBD5F2FBD5F2FBD5F2FBD5F2FBD5F2A3
:1001A000FBD5F2FBD5F2FBD5F2FBD5F2FBD5F2FB8A
:1001B000D5F2FBD5F2FBD5F2FBD5F2FBD5F2FBD5A0
:1001C000F2FBD5F2FBD5F2FBD5F2FBD5F2FBD5F273
:1001D000FBD5F2FBD5F2FBD5F2FBD5F2FBD5F2FB5A
:1001E000D5F2FBD5F2FBD5F2FBD5F2FBD5F2FBD570
:1001F000F2FBD5F2FBD5F2FBD5F2FBD5F2FBD5F243
:10020000FBD5F2FBD5F2FBD5F2FBD5F2FBD5F2FB29
:10021000D5F2FBD5F2FBD5F2FBD5F2FBD5F2FBD53F
:10022000F2FBD5F2FBD5F2FBD5F2FBD5F2FBD5F212
:10023000FBD5F2FBD5F2FBD5F2FBD5F2FBD5F2FBF9
:10024000D5F2FBD5F2FBD5F2FBD5F2FBD5F2FBD50F
:10025000F2FBD5F2FBD5F2FBD5F2FBD5F2FBD5F2E2
:10026000FBD5F2FBD5F2FBD5F2FBD5F2FBD5F2FBC9
:10027000D5F2FBD5F2FBD5F2FBD5F2FBD5F2FBD5DF
:10028000F2FBD5F2FBD5F2FBD5F2FBD5F2FBD5F2B2
:10029000FBD5F2FBD5F2FBD5F2FBD5F2FBD5F2FB99
:1002A000D5F2FBD5F2FBD5F2FBD5F2FBD5F2FBD5AF
:1002B000F2FBD5F2FBD5F2FBD5F2FBD5F2FBD5F282
:1002C000FBD5F2FBD5F2FBD5F2FBD5F2FBD5F2FB69
:1002D000D5F2FBD5F2FBD5F2FBD5F2FBD5F2FBD57F
:1002E000F2FBD5F2FBD5F2FBD5F2FBD5F2FBD5F252
:1002F000FBD5F2FBD5F2FBD5F2FBD5F2FBD5F2FB39
:10030000D5F2FBD5F2FBD5F2FBD5F2FBD5F2FBD54E
:10031000F2FBD5F2FBD5F2FBD5F2FBD5F2FBD5F221
:10032000FBD5F2FBD5F2FBD5F2FBD5F2FBD5F2FB08
:10033000D5F2FBD5F2FBD5F2FBD5F2FBD5F2FBD51E
:10034000F2FBD5F2FBD5F2FBD5F2FBD5F2FBD5F2F1
:10035000FBD5F2FBD5F2FBD5F2FBD5F2FBD5F2FBD8
:10036000D5F2FBD5F2FBD5F2FBD5F2FBD5F2FBD5EE
:10037000F2FBD5F2FBD5F2FBD5F2FBD5F2FBD5F2C1
:10038000FBD5F2FBD5F2FBD5F2FBD5F2FBD5F2FBA8
:10039000D5F2FBD5F2FBD5F2FBD5F2FBD5F2FBD5BE
:1003A000F2FBD5F2FBD5F2FBD5F2FBD5F2FBD5F291
:1003B000FBD5F2FBD5F2FBD5F2FBD5F2FBD5F2FB78
:1003C000D5F2FBD5F2FBD5F2FBD5F2FBD5F2FBD58E
:1003D000F2FBD5F2FBD5F2FBD5F2FBD5F2FBD5F261
:1003E000FBD5F2FBD5F2FBD5F2FBD5F2FBD5F2FB48
:1003F000D5F2FBD5F2FBD5F2FBD5F2FBD5F2FBD55E
:10040000F2FBD5F2FBD5F2FBD5F2FBD5F2FBD5F230
:10041000FBD5F2FBD5F2FBD5F2FBD5F2FBD5F2FB17
:10042000D5F2FBD5F2FBD5F2FBD5F2FBD5F2FBD52D
:10043000F2FBD5F2FBD5F2FBD5F2FBD5F2FBD5F200
:10044000FBD5F2FBD5F2FBD5F2FBD5F2FBD5F2FBE7
:10045000D5F2FBD5F2FBD5F2FBD5F2FBD5F2FBD5FD
:10046000F2FBD5F2FBD5F2FBD5F2FBD5F2FBD5F2D0
:10047000FBD5F2FBD5F2FBD5F2FBD5F2FBD5F2FBB7
:10048000D5F2FBD5F2FBD5F2FBD5F2FBD5F2FBD5CD
:10049000F2FBD5F2FBD5F2FBD5F2FBD5F2FBD5F2A0
:1004A000FBD5F2FBD5F2FBD5F2FBD5F2FBD5F2FB87
:1004B000D5F2FBD5F2FBD5F2FBD5F2FBD5F2FBD59D
:1004C000F2FBD5F2FBD5F2FBD5F2FBD5F2FBD5F270
:1004D000FBD5F2FBD5F2FBD5F2FBD5F2FBD5F2FB57
:1004E000D5F2FBD5F2FBD5F2FBD5F2FBD5F2FBD56D
:1004F000F2FBD5F2FBD5F2FBD5F2FBD5F2FBD5F240
:10050000FBD5F2FBD5F2FBD5F2FBD5F2FBD5F2FB26
:10051000D5F2FBD5F2FBD5F2FBD5F2FBD5F2FBD53C
:10052000F2FBD5F2FBD5F2FBD5F2FBD5F2FBD5F20F
:10053000FBD5F2FBD5F2FBD5F2FBD5F2FBD5F2FBF6
:10054000D5F2FBD5F2FBD5F2FBD5F2FBD5F2FBD50C
:10055000F2FBD5F2FBD5F2FBD5F2FBD5F2FBD5F2DF
:10056000FBD5F2FBD5F2FBD5F2FBD5F2FBD5F2FBC6
:10057000D5F2FBD5F2FBD5F2FBD5F2FBD5F2FBD5DC
:10058000F2FBD5F2FBD5F2FBD5F2FBD5F2FBD5F2AF
:10059000FBD5F2FBD5F2FBD5F2FBD5F2FBD5F2FB96
:1005A000D5F2FBD5F2FBD5F2FBD5F2FBD5F2FBD5AC
:1005B000F2FBD5F2FBD5F2FBD5F2FBD5F2FBD5F27F
:1005C000FBD5F2FBD5F2FBD5F2FBD5F2FBD5F2FB66
:1005D000D5F2FBD5F2FBD5F2FBD5F2FBD5F2FBD57C
:1005E000F2FBD5F2FBD5F2FBD5F2FBD5F2FBD5F24F
:1005F000FBD5F2FBD5F2FBD5F2FBD5F2FBD5F2FB36
:10060000D5F2FBD5F2FBD5F2FBD5F2FBD5F2FBD54B
:10061000F2FBD5F2FBD5F2FBD5F2FBD5F2FBD5F21E
:10062000FBD5F2FBD5F2FBD5F2FBD5F2FBD5F2FB05
:10063000D5F2FBD5F2FBD5F2FBD5F2FBD5F2FBD51B
:10064000F2FBD5F2FBD5F2FBD5F2FBD5F2FBD5F2EE
:10065000FBD5F2FBD5F2FBD5F2FBD5F2FBD5F2FBD5
:10066000D5F2FBD5F2FBD5F2FBD5F2FBD5F2FBD5EB
:10067000F2FBD5F2FBD5F2FBD5F2FBD5F2FBD5F2BE
:10068000FBD5F2FBD5F2FBD5F2FBD5F2FBD5F2FBA5
:10069000D5F2FBD5F2FBD5F2FBD5F2FBD5F2FBD5BB
:1006A000F2FBD5F2FBD5F2FBD5F2FBD5F2FBD5F28E
:1006B000FBD5F2FBD5F2FBD5F2FBD5F2FBD5F2FB75
:1006C000D5F2FBD5F2FBD5F2FBD5F2FBD5F2FBD58B
:1006D000F2FBD5F2FBD5F2FBD5F2FBD5F2FBD5F25E
:1006E000FBD5F2FBD5F2FBD5F2FBD5F2FBD5F2FB45
:1006F000D5F2FBD5F2FBD5F2FBD5F2FBD5F2FBD55B
:10070000F2FBD5F2FBD5F2FBD5F2FBD5F2FBD5F22D
:10071000FBD5F2FBD5F2FBD5F2FBD5F2FBD5F2FB14
:10072000D5F2FBD5F2FBD5F2FBD5F2FBD5F2FBD52A
:10073000F2FBD5F2FBD5F2FBD5F2FBD5F2FBD5F2FD
:10074000FBD5F2FBD5F2FBD5F2FBD5F2FBD5F2FBE4
:10075000D5F2FBD5F2FBD5F2FBD5F2FBD5F2FBD5FA
:10076000F2FBD5F2FBD5F2FBD5F2FBD5F2FBD5F2CD
:10077000FBD5F2FBD5F2FBD5F2FBD5F2FBD5F2FBB4
:10078000D5F2FBD5F2FBD5F2FBD5F2FBD5F2FBD5CA
:10079000F2FBD5F2FBD5F2FBD5F2FBD5F2FBD5F29D
:1007A000FBD5F2FBD5F2FBD5F2FBD5F2FBD5F2FB84
:1007B000D5F2FBD5F2FBD5F2FBD5F2FBD5F2FBD59A
:1007C000F2FBD5F2FBD5F2FBD5F2FBD5F2FBD5F26D
:1007D000FBD5F2FBD5F2FBD5F2FBD5F2FBD5F2FB54
:1007E000D5F2FBD5F2FBD5F2FBD5F2FBD5F2FBD56A
:1007F000F2FBD5F2FBD5F2FBD5F2FBD5F2FBD5F23D
:10080000FBD5F2FBD5F2FBD5F2FBD5F2FBD5F2FB23
:10081000D5F2FBD5F2FBD5F2FBD5F2FBD5F2FBD539
:10082000F2FBD5F2FBD5F2FBD5F2FBD5F2FBD5F20C
:10083000FBD5F2FBD5F2FBD5F2FBD5F2FBD5F2FBF3
:10084000D5F2FBD5F2FBD5F2FBD5F2FBD5F2FBD509
:10085000F2FBD5F2FBD5F2FBD5F2FBD5F2FBD5F2DC
:10086000FBD5F2FBD5F2FBD5F2FBD5F2FBD5F2FBC3
:10087000D5F2FBD5F2FBD5F2FBD5F2FBD5F2FBD5D9
:10088000F2FBD5F2FBD5F2FBD5F2FBD5F2FBD5F2AC
:10089000FBD5F2FBD5F2FBD5F2FBD5F2FBD5F2FB93
:1008A000D5F2FBD5F2FBD5F2FBD5F2FBD5F2FBD5A9
:1008B000F2FBD5F2FBD5F2FBD5F2FBD5F2FBD5F27C
:1008C000FBD5F2FBD5F2FBD5F2FBD5F2FBD5F2FB63
:1008D000D5F2FBD5F2FBD5F2FBD5F2FBD5F2FBD579
:1008E000F2FBD5F2FBD5F2FBD5F2FBD5F2FBD5F24C
:1008F000FBD5F2FBD5F2FBD5F2FBD5F2FBD5F2FB33
:10090000D5F2FBD5F2FBD5F2FBD5F2FBD5F2FBD548
:10091000F2FBD5F2FBD5F2FBD5F2FBD5F2FBD5F21B
:10092000FBD5F2FBD5F2FBD5F2FBD5F2FBD5F2FB02
:10093000D5F2FBD5F2FBD5F2FBD5F2FBD5F2FBD518
:10094000F2FBD5F2FBD5F2FBD5F2FBD5F2FBD5F2EB
:10095000FBD5F2FBD5F2FBD5F2FBD5F2FBD5F2FBD2
:10096000D5F2FBD5F2FBD5F2FBD5F2FBD5F2FBD5E8
:10097000F2FBD5F2FBD5F2FBD5F2FBD5F2FBD5F2BB
:10098000FBD5F2FBD5F2FBD5F2FBD5F2FBD5F2FBA2
:10099000D5F2FBD5F2FBD5F2FBD5F2FBD5F2FBD5B8
:1009A000F2FBD5F2FBD5F2FBD5F2FBD5F2FBD5F28B
:1009B000FBD5F2FBD5F2FBD5F2FBD5F2FBD5F2FB72
:1009C000D5F2FBD5F2FBD5F2FBD5F2FBD5F2FBD588
:1009D000F2FBD5F2FBD5F2FBD5F2FBD5F2FBD5F25B
:1009E000FBD5F2FBD5F2FBD5F2FBD5F2FBD5F2FB42
:1009F000D5F2FBD5F2FBD5F2FBD5F2FBD5F2FBD558
:100A0000F2FBD5F2FBD5F2FBD5F2FBD5F2FBD5F22A
:100A1000FBD5F2FBD5F2FBD5F2FBD5F2FBD5F2FB11
:100A2000D5F2FBD5F2FBD5F2FBD5F2FBD5F2FBD527
:100A3000F2FBD5F2FBD5F2FBD5F2FBD5F2FBD5F2FA
:100A4000FBD5F2FBD5F2FBD5F2FBD5F2FBD5F2FBE1
:100A5000D5F2FBD5F2FBD5F2FBD5F2FBD5F2FBD5F7
:100A6000F2FBD5F2FBD5F2FBD5F2FBD5F2FBD5F2CA
:100A7000FBD5F2FBD5F2FBD5F2FBD5F2FBD5F2FBB1
:100A8000D5F2FBD5F2FBD5F2FBD5F2FBD5F2FBD5C7
:100A9000F2FBD5F2FBD5F2FBD5F2FBD5F2FBD5F29A
:100AA000FBD5F2FBD5F2FBD5F2FBD5F2FBD5F2FB81
:100AB000D5F2FBD5F2FBD5F2FBD5F2FBD5F2FBD597
:100AC000F2FBD5F2FBD5F2FBD5F2FBD5F2FBD5F26A
:100AD000FBD5F2FBD5F2FBD5F2FBD5F2FBD5F2FB51
:100AE000D5F2FBD5F2FBD5F2FBD5F2FBD5F2FBD567
:100AF000F2FBD5F2FBD5F2FBD5F2FBD5F2FBD5F23A
:100B0000FBD5F2FBD5F2FBD5F2FBD5F2FBD5F2FB20
:100B1000D5F2FBD5F2FBD5F2FBD5F2FBD5F2FBD536
:100B2000F2FBD5F2FBD5F2FBD5F2FBD5F2FBD5F209
:100B3000FBD5F2FBD5F2FBD5F2FBD5F2FBD5F2FBF0
:100B4000D5F2FBD5F2FBD5F2FBD5F2FBD5F2FBD506
:100B5000F2FBD5F2FBD5F2FBD5F2FBD5F2FBD5F2D9
:100B6000FBD5F2FBD5F2FBD5F2FBD5F2FBD5F2FBC0
:100B7000D5F2FBD5F2FBD5F2FBD5F2FBD5F2FBD5D6
:100B8000F2FBD5F2FBD5F2FBD5F2FBD5F2FBD5F2A9
:100B9000FBD5F2FBD5F2FBD5F2FBD5F2FBD5F2FB90
:100BA000D5F2FBD5F2FBD5F2FBD5F2FBD5F2FBD5A6
:100BB000F2FBD5F2FBD5F2FBD5F2FBD5F2FBD5F279
:100BC000FBD5F2FBD5F2FBD5F2FBD5F2FBD5F2FB60
:100BD000D5F2FBD5F2FBD5F2FBD5F2FBD5F2FBD576
:100BE000F2FBD5F2FBD5F2FBD5F2FBD5F2FBD5F249
:100BF000FBD5F2FBD5F2FBD5F2FBD5F2FBD5F2FB30
:100C0000D5F2FBD5F2FBD5F2FBD5F2FBD5F2FBD545
:100C1000F2FBD5F2FBD5F2FBD5F2FBD5F2FBD5F218
:100C2000FBD5F2FBD5F2FBD5F2FBD5F2FBD5F2FBFF
:100C3000D5F2FBD5F2FBD5F2FBD5F2FBD5F2FBD515
:100C4000F2FBD5F2FBD5F2FBD5F2FBD5F2FBD5F2E8
:100C5000FBD5F2FBD5F2FBD5F2FBD5F2FBD5F2FBCF
:100C6000D5F2FBD5F2FBD5F2FBD5F2FBD5F2FBD5E5
:100C7000F2FBD5F2FBD5F2FBD5F2FBD5F2FBD5F2B8
:100C8000FBD5F2FBD5F2FBD5F2FBD5F2FBD5F2FB9F
:100C9000D5F2FBD5F2FBD5F2FBD5F2FBD5F2FBD5B5
:100CA000F2FBD5F2FBD5F2FBD5F2FBD5F2FBD5F288
:100CB000FBD5F2FBD5F2FBD5F2FBD5F2FBD5F2FB6F
:100CC000D5F2FBD5F2FBD5F2FBD5F2FBD5F2FBD585
:100CD000F2FBD5F2FBD5F2FBD5F2FBD5F2FBD5F258
:100CE000FBD5F2FBD5F2FBD5F2FBD5F2FBD5F2FB3F
:100CF000D5F2FBD5F2FBD5F2FBD5F2FBD5F2FBD555
:100D0000F2FBD5F2FBD5F2FBD5F2FBD5F2FBD5F227
:100D1000FBD5F2FBD5F2FBD5F2FBD5F2FBD5F2FB0E
:100D2000D5F2FBD5F2FBD5F2FBD5F2FBD5F2FBD524
:100D3000F2FBD5F2FBD5F2FBD5F2FBD5F2FBD5F2F7
:100D4000FBD5F2FBD5F2FBD5F2FBD5F2FBD5F2FBDE
:100D5000D5F2FBD5F2FBD5F2FBD5F2FBD5F2FBD5F4
:100D6000F2FBD5F2FBD5F2FBD5F2FBD5F2FBD5F2C7
:100D7000FBD5F2FBD5F2FBD5F2FBD5F2FBD5F2FBAE
:100D8000D5F2FBD5F2FBD5F2FBD5F2FBD5F2FBD5C4
:100D9000F2FBD5F2FBD5F2FBD5F2FBD5F2FBD5F297
:100DA000FBD5F2FBD5F2FBD5F2FBD5F2FBD5F2FB7E
:100DB000D5F2FBD5F2FBD5F2FBD5F2FBD5F2FBD594
:100DC000F2FBD5F2FBD5F2FBD5F2FBD5F2FBD5F267
:100DD000FBD5F2FBD5F2FBD5F2FBD5F2FBD5F2FB4E
:100DE000D5F2FBD5F2FBD5F2FBD5F2FBD5F2FBD564
:100DF000F2FBD5F2FBD5F2FBD5F2FBD5F2FBD5F237
:100E0000FBD5F2FBD5F2FBD5F2FBD5F2FBD5F2FB1D
:100E1000D5F2FBD5F2FBD5F2FBD5F2FBD5F2FBD533
:100E2000F2FBD5F2FBD5F2FBD5F2FBD5F2FBD5F206
:100E3000FBD5F2FBD5F2FBD5F2FBD5F2FBD5F2FBED
:100E4000D5F2FBD5F2FBD5F2FBD5F2FBD5F2FBD503
:100E5000F2FBD5F2FBD5F2FBD5F2FBD5F2FBD5F2D6
:100E6000FBD5F2FBD5F2FBD5F2FBD5F2FBD5F2FBBD
:100E7000D5F2FBD5F2FBD5F2FBD5F2FBD5F2FBD5D3
:100E8000F2FBD5F2FBD5F2FBD5F2FBD5F2FBD5F2A6
:100E9000FBD5F2FBD5F2FBD5F2FBD5F2FBD5F2FB8D
:100EA000D5F2FBD5F2FBD5F2FBD5F2FBD5F2FBD5A3
:100EB000F2FBD5F2FBD5F2FBD5F2FBD5F2FBD5F276
:100EC000FBD5F2FBD5F2FBD5F2FBD5F2FBD5F2FB5D
:100ED000D5F2FBD5F2FBD5F2FBD5F2FBD5F2FBD573
:100EE000F2FBD5F2FBD5F2FBD5F2FBD5F2FBD5F246
:100EF000FBD5F2FBD5F2FBD5F2FBD5F2FBD5F2FB2D
:100F0000D5F2FBD5F2FBD5F2FBD5F2FBD5F2FBD542
:100F1000F2FBD5F2FBD5F2FBD5F2FBD5F2FBD5F215
:100F2000FBD5F2FBD5F2FBD5F2FBD5F2FBD5F2FBFC
:100F3000D5F2FBD5F2FBD5F2FBD5F2FBD5F2FBD512
:100F4000F2FBD5F2FBD5F2FBD5F2FBD5F2FBD5F2E5
:100F5000FBD5F2FBD5F2FBD5F2FBD5F2FBD5F2FBCC
:100F6000D5F2FBD5F2FBD5F2FBD5F2FBD5F2FBD5E2
:100F7000F2FBD5F2FBD5F2FBD5F2FBD5F2FBD5F2B5
:100F8000FBD5F2FBD5F2FBD5F2FBD5F2FBD5F2FB9C
:100F9000D5F2FBD5F2FBD5F2FBD5F2FBD5F2FBD5B2
:100FA000F2FBD5F2FBD5F2FBD5F2FBD5F2FBD5F285
:100FB000FBD5F2FBD5F2FBD5F2FBD5F2FBD5F2FB6C
:100FC000D5F2FBD5F2FBD5F2FBD5F2FBD5F2FBD582
:100FD000F2FBD5F2FBD5F2FBD5F2FBD5F2FBD5F255
:100FE000FBD5F2FBD5F2FBD5F2FBD5F2FBD5F2FB3C
:100FF000D5F2FBD5F2FBD5F2FBD5F2FBD5F2FBD552
:10100000F2FBD5F2FBD5F2FBD5F2FBD5F2FBD5F224
:10101000FBD5F2FBD5F2FBD5F2FBD5F2FBD5F2FB0B
:10102000D5F2FBD5F2FBD5F2FBD5F2FBD5F2FBD521
:10103000F2FBD5F2FBD5F2FBD5F2FBD5F2FBD5F2F4
:10104000FBD5F2FBD5F2FBD5F2FBD5F2FBD5F2FBDB
:10105000D5F2FBD5F2FBD5F2FBD5F2FBD5F2FBD5F1
:10106000F2FBD5F2FBD5F2FBD5F2FBD5F2FBD5F2C4
:10107000FBD5F2FBD5F2FBD5F2FBD5F2FBD5F2FBAB
:10108000D5F2FBD5F2FBD5F2FBD5F2FBD5F2FBD5C1
:10109000F2FBD5F2FBD5F2FBD5F2FBD5F2FBD5F294
:1010A000FBD5F2FBD5F2FBD5F2FBD5F2FBD5F2FB7B
:1010B000D5F2FBD5F2FBD5F2FBD5F2FBD5F2FBD591
:1010C000F2FBD5F2FBD5F2FBD5F2FBD5F2FBD5F264
:1010D000FBD5F2FBD5F2FBD5F2FBD5F2FBD5F2FB4B
:1010E000D5F2FBD5F2FBD5F2FBD5F2FBD5F2FBD561
:1010F000F2FBD5F2FBD5F2FBD5F2FBD5F2FBD5F234
:10110000FBD5F2FBD5F2FBD5F2FBD5F2FBD5F2FB1A
:10111000D5F2FBD5F2FBD5F2FBD5F2FBD5F2FBD530
:10112000F2FBD5F2FBD5F2FBD5F2FBD5F2FBD5F203
:10113000FBD5F2FBD5F2FBD5F2FBD5F2FBD5F2FBEA
:10114000D5F2FBD5F2FBD5F2FBD5F2FBD5F2FBD500
:10115000F2FBD5F2FBD5F2FBD5F2FBD5F2FBD5F2D3
:10116000FBD5F2FBD5F2FBD5F2FBD5F2FBD5F2FBBA
:10117000D5F2FBD5F2FBD5F2FBD5F2FBD5F2FBD5D0
:10118000F2FBD5F2FBD5F2FBD5F2FBD5F2FBD5F2A3
:10119000FBD5F2FBD5F2FBD5F2FBD5F2FBD5F2FB8A
:1011A000D5F2FBD5F2FBD5F2FBD5F2FBD5F2FBD5A0
:1011B000F2FBD5F2FBD5F2FBD5F2FBD5F2FBD5F273
:1011C000FBD5F2FBD5F2FBD5F2FBD5F2FBD5F2FB5A
:1011D000D5F2FBD5F2FBD5F2FBD5F2FBD5F2FBD570
:1011E000F2FBD5F2FBD5F2FBD5F2FBD5F2FBD5F243
:1011F000FBD5F2FBD5F2FBD5F2FBD5F2FBD5F2FB2A
:10120000D5F2FBD5F2FBD5F2FBD5F2FBD5F2FBD53F
:10121000F2FBD5F2FBD5F2FBD5F2FBD5F2FBD5F212
:10122000FBD5F2FBD5F2FBD5F2FBD5F2FBD5F2FBF9
:10123000D5F2FBD5F2FBD5F2FBD5F2FBD5F2FBD50F
:10124000F2FBD5F2FBD5F2FBD5F2FBD5F2FBD5F2E2
:10125000FBD5F2FBD5F2FBD5F2FBD5F2FBD5F2FBC9
:10126000D5F2FBD5F2FBD5F2FBD5F2FBD5F2FBD5DF
:10127000F2FBD5F2FBD5F2FBD5F2FBD5F2FBD5F2B2
:10128000FBD5F2FBD5F2FBD5F2FBD5F2FBD5F2FB99
:10129000D5F2FBD5F2FBD5F2FBD5F2FBD5F2FBD5AF
:1012A000F2FBD5F2FBD5F2FBD5F2FBD5F2FBD5F282
:1012B000FBD5F2FBD5F2FBD5F2FBD5F2FBD5F2FB69
:1012C000D5F2FBD5F2FBD5F2FBD5F2FBD5F2FBD57F
:1012D000F2FBD5F2FBD5F2FBD5F2FBD5F2FBD5F252
:1012E000FBD5F2FBD5F2FBD5F2FBD5F2FBD5F2FB39
:1012F000D5F2FBD5F2FBD5F2FBD5F2FBD5F2FBD54F
:10130000F2FBD5F2FBD5F2FBD5F2FBD5F2FBD5F221
:10131000FBD5F2FBD5F2FBD5F2FBD5F2FBD5F2FB08
:10132000D5F2FBD5F2FBD5F2FBD5F2FBD5F2FBD51E
:10133000F2FBD5F2FBD5F2FBD5F2FBD5F2FBD5F2F1
:10134000FBD5F2FBD5F2FBD5F2FBD5F2FBD5F2FBD8
:10135000D5F2FBD5F2FBD5F2FBD5F2FBD5F2FBD5EE
:10136000F2FBD5F2FBD5F2FBD5F2FBD5F2FBD5F2C1
:10137000FBD5F2FBD5F2FBD5F2FBD5F2FBD5F2FBA8
:10138000D5F2FBD5F2FBD5F2FBD5F2FBD5F2FBD5BE
:10139000F2FBD5F2FBD5F2FBD5F2FBD5F2FBD5F291
:1013A000FBD5F2FBD5F2FBD5F2FBD5F2FBD5F2FB78
:1013B000D5F2FBD5F2FBD5F2FBD5F2FBD5F2FBD58E
:1013C000F2FBD5F2FBD5F2FBD5F2FBD5F2FBD5F261
:1013D000FBD5F2FBD5F2FBD5F2FBD5F2FBD5F2FB48
:1013E000D5F2FBD5F2FBD5F2FBD5F2FBD5F2FBD55E
:1013F000F2FBD5F2FBD5F2FBD5F2FBD5F2FBD5F231
:10140000FBD5F2FBD5F2FBD5F2FBD5F2FBD5F2FB17
:10141000D5F2FBD5F2FBD5F2FBD5F2FBD5F2FBD52D
:10142000F2FBD5F2FBD5F2FBD5F2FBD5F2FBD5F200
:10143000FBD5F2FBD5F2FBD5F2FBD5F2FBD5F2FBE7
:10144000D5F2FBD5F2FBD5F2FBD5F2FBD5F2FBD5FD
:10145000F2FBD5F2FBD5F2FBD5F2FBD5F2FBD5F2D0
:10146000FBD5F2FBD5F2FBD5F2FBD5F2FBD5F2FBB7
:10147000D5F2FBD5F2FBD5F2FBD5F2FBD5F2FBD5CD
:10148000F2FBD5F2FBD5F2FBD5F2FBD5F2FBD5F2A0
:10149000FBD5F2FBD5F2FBD5F2FBD5F2FBD5F2FB87
:1014A000D5F2FBD5F2FBD5F2FBD5F2FBD5F2FBD59D
:1014B000F2FBD5F2FBD5F2FBD5F2FBD5F2FBD5F270
:1014C000FBD5F2FBD5F2FBD5F2FBD5F2FBD5F2FB57
:1014D000D5F2FBD5F2FBD5F2FBD5F2FBD5F2FBD56D
:1014E000F2FBD5F2FBD5F2FBD5F2FBD5F2FBD5F240
:1014F000FBD5F2FBD5F2FBD5F2FBD5F2FBD5F2FB27
:10150000D5F2FBD5F2FBD5F2FBD5F2FBD5F2FBD53C
:10151000F2FBD5F2FBD5F2FBD5F2FBD5F2FBD5F20F
:10152000FBD5F2FBD5F2FBD5F2FBD5F2FBD5F2FBF6
:10153000D5F2FBD5F2FBD5F2FBD5F2FBD5F2FBD50C
:10154000F2FBD5F2FBD5F2FBD5F2FBD5F2FBD5F2DF
:10155000FBD5F2FBD5F2FBD5F2FBD5F2FBD5F2FBC6
:10156000D5F2FBD5F2FBD5F2FBD5F2FBD5F2FBD5DC
:10157000F2FBD5F2FBD5F2FBD5F2FBD5F2FBD5F2AF
:10158000FBD5F2FBD5F2FBD5F2FBD5F2FBD5F2FB96
:10159000D5F2FBD5F2FBD5F2FBD5F2FBD5F2FBD5AC
:1015A000F2FBD5F2FBD5F2FBD5F2FBD5F2FBD5F27F
:1015B000FBD5F2FBD5F2FBD5F2FBD5F2FBD5F2FB66
:1015C000D5F2FBD5F2FBD5F2FBD5F2FBD5F2FBD57C
:1015D000F2FBD5F2FBD5F2FBD5F2FBD5F2FBD5F24F
:1015E000FBD5F2FBD5F2FBD5F2FBD5F2FBD5F2FB36
:1015F000D5F2FBD5F2FBD5F2FBD5F2FBD5F2FBD54C
:10160000F2FBD5F2FBD5F2FBD5F2FBD5F2FBD5F21E
:10161000FBD5F2FBD5F2FBD5F2FBD5F2FBD5F2FB05
:10162000D5F2FBD5F2FBD5F2FBD5F2FBD5F2FBD51B
:10163000F2FBD5F2FBD5F2FBD5F2FBD5F2FBD5F2EE
:10164000FBD5F2FBD5F2FBD5F2FBD5F2FBD5F2FBD5
:10165000D5F2FBD5F2FBD5F2FBD5F2FBD5F2FBD5EB
:10166000F2FBD5F2FBD5F2FBD5F2FBD5F2FBD5F2BE
:10167000FBD5F2FBD5F2FBD5F2FBD5F2FBD5F2FBA5
:10168000D5F2FBD5F2FBD5F2FBD5F2FBD5F2FBD5BB
:10169000F2FBD5F2FBD5F2FBD5F2FBD5F2FBD5F28E
:1016A000FBD5F2FBD5F2FBD5F2FBD5F2FBD5F2FB75
:1016B000D5F2FBD5F2FBD5F2FBD5F2FBD5F2FBD58B
:1016C000F2FBD5F2FBD5F2FBD5F2FBD5F2FBD5F25E
:1016D000FBD5F2FBD5F2FBD5F2FBD5F2FBD5F2FB45
:1016E000D5F2FBD5F2FBD5F2FBD5F2FBD5F2FBD55B
:1016F000F2FBD5F2FBD5F2FBD5F2FBD5F2FBD5F22E
:10170000FBD5F2FBD5F2FBD5F2FBD5F2FBD5F2FB14
:10171000D5F2FBD5F2FBD5F2FBD5F2FBD5F2FBD52A
:10172000F2FBD5F2FBD5F2FBD5F2FBD5F2FBD5F2FD
:10173000FBD5F2FBD5F2FBD5F2FBD5F2FBD5F2FBE4
:10174000D5F2FBD5F2FBD5F2FBD5F2FBD5F2FBD5FA
:10175000F2FBD5F2FBD5F2FBD5F2FBD5F2FBD5F2CD
:10176000FBD5F2FBD5F2FBD5F2FBD5F2FBD5F2FBB4
:10177000D5F2FBD5F2FBD5F2FBD5F2FBD5F2FBD5CA
:10178000F2FBD5F2FBD5F2FBD5F2FBD5F2FBD5F29D
:10179000FBD5F2FBD5F2FBD5F2FBD5F2FBD5F2FB84
:1017A000D5F2FBD5F2FBD5F2FBD5F2FBD5F2FBD59A
:1017B000F2FBD5F2FBD5F2FBD5F2FBD5F2FBD5F26D
:1017C000FBD5F2FBD5F2FBD5F2FBD5F2FBD5F2FB54
:1017D000D5F2FBD5F2FBD5F2FBD5F2FBD5F2FBD56A
:1017E000F2FBD5F2FBD5F2FBD5F2FBD5F2FBD5F23D
:1017F000FBD5F2FBD5F2FBD5F2FBD5F2FBD5F2FB24
:10180000D5F2FBD5F2FBD5F2FBD5F2FBD5F2FBD539
:10181000F2FBD5F2FBD5F2FBD5F2FBD5F2FBD5F20C
:10182000FBD5F2FBD5F2FBD5F2FBD5F2FBD5F2FBF3
:10183000D5F2FBD5F2FBD5F2FBD5F2FBD5F2FBD509
:10184000F2FBD5F2FBD5F2FBD5F2FBD5F2FBD5F2DC
:10185000FBD5F2FBD5F2FBD5F2FBD5F2FBD5F2FBC3
:10186000D5F2FBD5F2FBD5F2FBD5F2FBD5F2FBD5D9
:10187000F2FBD5F2FBD5F2FBD5F2FBD5F2FBD5F2AC
:10188000FBD5F2FBD5F2FBD5F2FBD5F2FBD5F2FB93
:10189000D5F2FBD5F2FBD5F2FBD5F2FBD5F2FBD5A9
:1018A000F2FBD5F2FBD5F2FBD5F2FBD5F2FBD5F27C
:1018B000FBD5F2FBD5F2FBD5F2FBD5F2FBD5F2FB63
:1018C000D5F2FBD5F2FBD5F2FBD5F2FBD5F2FBD579
:1018D000F2FBD5F2FBD5F2FBD5F2FBD5F2FBD5F24C
:1018E000FBD5F2FBD5F2FBD5F2FBD5F2FBD5F2FB33
:1018F000D5F2FBD5F2FBD5F2FBD5F2FBD5F2FBD549
:10190000F2FBD5F2FBD5F2FBD5F2FBD5F2FBD5F21B
:10191000FBD5F2FBD5F2FBD5F2FBD5F2FBD5F2FB02
:10192000D5F2FBD5F2FBD5F2FBD5F2FBD5F2FBD518
:10193000F2FBD5F2FBD5F2FBD5F2FBD5F2FBD5F2EB
:10194000FBD5F2FBD5F2FBD5F2FBD5F2FBD5F2FBD2
:10195000D5F2FBD5F2FBD5F2FBD5F2FBD5F2FBD5E8
:10196000F2FBD5F2FBD5F2FBD5F2FBD5F2FBD5F2BB
:10197000FBD5F2FBD5F2FBD5F2FBD5F2FBD5F2FBA2
:10198000D5F2FBD5F2FBD5F2FBD5F2FBD5F2FBD5B8
:10199000F2FBD5F2FBD5F2FBD5F2FBD5F2FBD5F28B
:1019A000FBD5F2FBD5F2FBD5F2FBD5F2FBD5F2FB72
:1019B000D5F2FBD5F2FBD5F2FBD5F2FBD5F2FBD588
:1019C000F2FBD5F2FBD5F2FBD5F2FBD5F2FBD5F25B
:1019D000FBD5F2FBD5F2FBD5F2FBD5F2FBD5F2FB42
:1019E000D5F2FBD5F2FBD5F2FBD5F2FBD5F2FBD558
:1019F000F2FBD5F2FBD5F2FBD5F2FBD5F2FBD5F22B
:101A0000FBD5F2FBD5F2FBD5F2FBD5F2FBD5F2FB11
:101A1000D5F2FBD5F2FBD5F2FBD5F2FBD5F2FBD527
:101A2000F2FBD5F2FBD5F2FBD5F2FBD5F2FBD5F2FA
:101A3000FBD5F2FBD5F2FBD5F2FBD5F2FBD5F2FBE1
:101A4000D5F2FBD5F2FBD5F2FBD5F2FBD5F2FBD5F7
:101A5000F2FBD5F2FBD5F2FBD5F2FBD5F2FBD5F2CA
:101A6000FBD5F2FBD5F2FBD5F2FBD5F2FBD5F2FBB1
:101A7000D5F2FBD5F2FBD5F2FBD5F2FBD5F2FBD5C7
:101A8000F2FBD5F2FBD5F2FBD5F2FBD5F2FBD5F29A
:101A9000FBD5F2FBD5F2FBD5F2FBD5F2FBD5F2FB81
:101AA000D5F2FBD5F2FBD5F2FBD5F2FBD5F2FBD597
:101AB000F2FBD5F2FBD5F2FBD5F2FBD5F2FBD5F26A
:101AC000FBD5F2FBD5F2FBD5F2FBD5F2FBD5F2FB51
:101AD000D5F2FBD5F2FBD5F2FBD5F2FBD5F2FBD567
:101AE000F2FBD5F2FBD5F2FBD5F2FBD5F2FBD5F23A
:101AF000FBD5F2FBD5F2FBD5F2FBD5F2FBD5F2FB21
:101B0000D5F2FBD5F2FBD5F2FBD5F2FBD5F2FBD536
:101B1000F2FBD5F2FBD5F2FBD5F2FBD5F2FBD5F209
:101B2000FBD5F2FBD5F2FBD5F2FBD5F2FBD5F2FBF0
:101B3000D5F2FBD5F2FBD5F2FBD5F2FBD5F2FBD506
:101B4000F2FBD5F2FBD5F2FBD5F2FBD5F2FBD5F2D9
:101B5000FBD5F2FBD5F2FBD5F2FBD5F2FBD5F2FBC0
:101B6000D5F2FBD5F2FBD5F2FBD5F2FBD5F2FBD5D6
:101B7000F2FBD5F2FBD5F2FBD5F2FBD5F2FBD5F2A9
:101B8000FBD5F2FBD5F2FBD5F2FBD5F2FBD5F2FB90
:101B9000D5F2FBD5F2FBD5F2FBD5F2FBD5F2FBD5A6
:101BA000F2FBD5F2FBD5F2FBD5F2FBD5F2FBD5F279
:101BB000FBD5F2FBD5F2FBD5F2FBD5F2FBD5F2FB60
:101BC000D5F2FBD5F2FBD5F2FBD5F2FBD5F2FBD576
:101BD000F2FBD5F2FBD5F2FBD5F2FBD5F2FBD5F249
:101BE000FBD5F2FBD5F2FBD5F2FBD5F2FBD5F2FB30
:101BF000D5F2FBD5F2FBD5F2FBD5F2FBD5F2FBD546
:101C0000F2FBD5F2FBD5F2FBD5F2FBD5F2FBD5F218
:101C1000FBD5F2FBD5F2FBD5F2FBD5F2FBD5F2FBFF
:101C2000D5F2FBD5F2FBD5F2FBD5F2FBD5F2FBD515
:101C3000F2FBD5F2FBD5F2FBD5F2FBD5F2FBD5F2E8
:101C4000FBD5F2FBD5F2FBD5F2FBD5F2FBD5F2FBCF
:101C5000D5F2FBD5F2FBD5F2FBD5F2FBD5F2FBD5E5
:101C6000F2FBD5F2FBD5F2FBD5F2FBD5F2FBD5F2B8
:101C7000FBD5F2FBD5F2FBD5F2FBD5F2FBD5F2FB9F
:101C8000D5F2FBD5F2FBD5F2FBD5F2FBD5F2FBD5B5
:101C9000F2FBD5F2FBD5F2FBD5F2FBD5F2FBD5F288
:101CA000FBD5F2FBD5F2FBD5F2FBD5F2FBD5F2FB6F
:101CB000D5F2FBD5F2FBD5F2FBD5F2FBD5F2FBD585
:101CC000F2FBD5F2FBD5F2FBD5F2FBD5F2FBD5F258
:101CD000FBD5F2FBD5F2FBD5F2FBD5F2FBD5F2FB3F
:101CE000D5F2FBD5F2FBD5F2FBD5F2FBD5F2FBD555
:101CF000F2FBD5F2FBD5F2FBD5F2FBD5F2FBD5F228
:101D0000FBD5F2FBD5F2FBD5F2FBD5F2FBD5F2FB0E
:101D1000D5F2FBD5F2FBD5F2FBD5F2FBD5F2FBD524
:101D2000F2FBD5F2FBD5F2FBD5F2FBD5F2FBD5F2F7
:101D3000FBD5F2FBD5F2FBD5F2FBD5F2FBD5F2FBDE
:101D4000D5F2FBD5F2FBD5F2FBD5F2FBD5F2FBD5F4
:101D5000F2FBD5F2FBD5F2FBD5F2FBD5F2FBD5F2C7
:101D6000FBD5F2FBD5F2FBD5F2FBD5F2FBD5F2FBAE
:101D7000D5F2FBD5F2FBD5F2FBD5F2FBD5F2FBD5C4
:101D8000F2FBD5F2FBD5F2FBD5F2FBD5F2FBD5F297
:101D9000FBD5F2FBD5F2FBD5F2FBD5F2FBD5F2FB7E
:101DA000D5F2FBD5F2FBD5F2FBD5F2FBD5F2FBD594
:101DB000F2FBD5F2FBD5F2FBD5F2FBD5F2FBD5F267
:101DC000FBD5F2FBD5F2FBD5F2FBD5F2FBD5F2FB4E
:101DD000D5F2FBD5F2FBD5F2FBD5F2FBD5F2FBD564
:101DE000F2FBD5F2FBD5F2FBD5F2FBD5F2FBD5F237
:101DF000FBD5F2FBD5F2FBD5F2FBD5F2FBD5F2FB1E
:101E0000D5F2FBD5F2FBD5F2FBD5F2FBD5F2FBD533
:101E1000F2FBD5F2FBD5F2FBD5F2FBD5F2FBD5F206
:101E2000FBD5F2FBD5F2FBD5F2FBD5F2FBD5F2FBED
:101E3000D5F2FBD5F2FBD5F2FBD5F2FBD5F2FBD503
:101E4000F2FBD5F2FBD5F2FBD5F2FBD5F2FBD5F2D6
:101E5000FBD5F2FBD5F2FBD5F2FBD5F2FBD5F2FBBD
:101E6000D5F2FBD5F2FBD5F2FBD5F2FBD5F2FBD5D3
:101E7000F2FBD5F2FBD5F2FBD5F2FBD5F2FBD5F2A6
:101E8000FBD5F2FBD5F2FBD5F2FBD5F2FBD5F2FB8D
:101E9000D5F2FBD5F2FBD5F2FBD5F2FBD5F2FBD5A3
:101EA000F2FBD5F2FBD5F2FBD5F2FBD5F2FBD5F276
:101EB000FBD5F2FBD5F2FBD5F2FBD5F2FBD5F2FB5D
:101EC000D5F2FBD5F2FBD5F2FBD5F2FBD5F2FBD573
:101ED000F2FBD5F2FBD5F2FBD5F2FBD5F2FBD5F246
:101EE000FBD5F2FBD5F2FBD5F2FBD5F2FBD5F2FB2D
:101EF000D5F2FBD5F2FBD5F2FBD5F2FBD5F2FBD543
:101F0000F2FBD5F2FBD5F2FBD5F2FBD5F2FBD5F215
:101F1000FBD5F2FBD5F2FBD5F2FBD5F2FBD5F2FBFC
:101F2000D5F2FBD5F2FBD5F2FBD5F2FBD5F2FBD512
:101F3000F2FBD5F2FBD5F2FBD5F2FBD5F2FBD5F2E5
:101F4000FBD5F2FBD5F2FBD5F2FBD5F2FBD5F2FBCC
:101F5000D5F2FBD5F2FBD5F2FBD5F2FBD5F2FBD5E2
:101F6000F2FBD5F2FBD5F2FBD5F2FBD5F2FBD5F2B5
:101F7000FBD5F2FBD5F2FBD5F2FBD5F2FBD5F2FB9C
:101F8000D5F2FBD5F2FBD6F3FCD6F3FCD6F3FCD6A8
:101F9000F3FCD6F3FCD6F3FCD6F3FCD6F3FCD6F375
:101FA000FCD6F3FCD6F3FCD6F3FCD6F3FCD6F3FC5C
:101FB000D6F3FCD6F3FCD5F2FBD5F2FBD5F2FBD57C
:101FC000F2FBD5F2FBD5F2FBD5F2FBD5F2FBD6F353
:101FD000FCD6F3FCD6F3FCD6F3FCD6F3FCD6F3FC2C
:101FE000D6F3FCD6F3FCD6F3FCD6F3FCD6F3FCD642
:101FF000F3FCD6F3FCD6F3FCD6F3FCD6F3FCD6F315
:10200000FCD6F3FCD6F3FCD6F3FCD6F3FCD6F3FCFB
:10201000D6F3FCD6F3FCD6F3FCD6F3FCD6F3FCD611
:10202000F3FCD6F3FCD6F3FCD6F3FCD6F3FCD5F2E6
:10203000FBD5F2FBD5F2FBD5F2FBD5F2FBD5F2FBDB
:10204000D5F2FBD5F2FBD6F3FCD6F3FCD6F3FCD6E7
:10205000F3FCD6F3FCD6F3FCD6F3FCD6F3FCD6F3B4
:10206000FCD6F3FCD6F3FCD6F3FCD6F3FCD6F3FC9B
:10207000D6F3FCD6F3FCD6F3FCD6F3FCD6F3FCD6B1
:10208000F3FCD6F3FCD6F3FCD6F3FCD6F3FCD6F384
:10209000FCD6F3FCD6F3FCD6F3FCD6F3FCD6F3FC6B
:1020A000D6F3FCD6F3FCD6F3FCD6F3FCD6F3FCD681
:1020B000F3FCD6F3FCD6F3FCD6F3FCD6F3FCD5F256
:1020C000FBD5F2FBD5F2FBD5F2FBD5F2FBD5F2FB4B
:1020D000D5F2FBD5F2FBD5F2FBD5F2FBD5F2FBD561
:1020E000F2FBD5F2FBD5F2FBD5F2FBD5F2FBD6F332
:1020F000FCD6F3FCD6F3FCD6F3FCD6F3FCD6F3FC0B
:10210000D6F3FCD6F3FCD6F3FCD6F3FCD6F3FCD620
:10211000F3FCD6F3FCD6F3FCD6F3FCD6F3FCD6F3F3
:10212000FCD6F3FCD6F3FCD6F3FCD6F3FCD6F3FCDA
:10213000D6F3FCD6F3FCD5F2FBD5F2FBD5F2FBD5FA
:10214000F2FBD5F2FBD5F2FBD5F2FBD5F2FBD6F3D1
:10215000FCD6F3FCD6F3FCD6F3FCD6F3FCD6F3FCAA
:10216000D6F3FCD6F3FCD6F3FCD6F3FCD6F3FCD6C0
:10217000F3FCD6F3FCD6F3FCD6F3FCD6F3FCD6F393
:10218000FCD6F3FCD6F3FCD6F3FCD6F3FCD6F3FC7A
:10219000D6F3FCD6F3FCD6F3FCD6F3FCD6F3FCD690
:1021A000F3FCD6F3FCD6F3FCD6F3FCD6F3FCD6F363
:1021B000FCD6F3FCD6F3FCD6F3FCD6F3FCD6F3FC4A
:1021C000D6F3FCD6F3FCD6F3FCD6F3FCD6F3FCD660
:1021D000F3FCD6F3FCD6F3FCD6F3FCD6F3FCD6F333
:1021E000FCD6F3FCD6F3FCD6F3FCD6F3FCD6F3FC1A
:1021F000D6F3FCD6F3FCD6F3FCD6F3FCD6F3FCD630
:10220000F3FCD6F3FCD6F3FCD6F3FCD6F3FCD6F302
:10221000FCD6F3FCD6F3FCD6F3FCD6F3FCD6F3FCE9
:10222000D6F3FCD6F3FCD6F3FCD6F3FCD6F3FCD6FF
:10223000F3FCD6F3FCD6F3FCD6F3FCD6F3FCD6F3D2
:10224000FCD6F3FCD6F3FCD6F3FCD6F3FCD6F3FCB9
:10225000D6F3FCD6F3FCD6F3FCD6F3FCD6F3FCD6CF
:10226000F3FCD6F3FCD6F3FCD6F3FCD6F3FCD6F3A2
:10227000FCD6F3FCD6F3FCD6F3FCD6F3FCD6F3FC89
:10228000D6F3FCD6F3FCD6F3FCD6F3FCD6F3FCD69F
:10229000F3FCD6F3FCD6F3FCD6F3FCD6F3FCD6F372
:1022A000FCD6F3FCD6F3FCD6F3FCD6F3FCD6F3FC59
:1022B000D6F3FCD6F3FCD6F3FCD6F3FCD6F3FCD66F
:1022C000F3FCD6F3FCD6F3FCD6F3FCD6F3FCD6F342
:1022D000FCD6F3FCD6F3FCD6F3FCD6F3FCD6F3FC29
:1022E000D6F3FCD6F3FCD5F2FBD5F2FBD5F2FBD549
:1022F000F2FBD5F2FBD5F2FBD5F2FBD5F2FBD6F320
:10230000FCD6F3FCD6F3FCD6F3FCD6F3FCD6F3FCF8
:10231000D6F3FCD6F3FCD6F3FCD6F3FCD6F3FCD60E
:10232000F3FCD6F3FCD6F3FCD6F3FCD6F3FCD6F3E1
:10233000FCD6F3FCD6F3FCD6F3FCD6F3FCD6F3FCC8
:10234000D6F3FCD6F3FCD6F3FCD6F3FCD6F3FCD6DE
:10235000F3FCD6F3FCD6F3FCD6F3FCD6F3FCD6F3B1
:10236000FCD6F3FCD6F3FCD6F3FCD6F3FCD6F3FC98
:10237000D6F3FCD6F3FCD5F2FBD5F2FBD5F2FBD5B8
:10238000F2FBD5F2FBD5F2FBD5F2FBD5F2FBD6F38F
:10239000FCD6F3FCD6F3FCD6F3FCD6F3FCD6F3FC68
:1023A000D6F3FCD6F3FCD6F3FCD6F3FCD6F3FCD67E
:1023B000F3FCD6F3FCD6F3FCD6F3FCD6F3FCD6F351
:1023C000FCD6F3FCD6F3FCD6F3FCD6F3FCD6F3FC38
:1023D000D6F3FCD6F3FCD6F3FCD6F3FCD6F3FCD64E
:1023E000F3FCD6F3FCD6F3FCD6F3FCD6F3FCD5F223
:1023F000FBD5F2FBD5F2FBD5F2FBD5F2FBD5F2FB18
:10240000D5F2FBD5F2FBD6F3FCD6F3FCD6F3FCD623
:10241000F3FCD6F3FCD6F3FCD6F3FCD6F3FCD6F3F0
:10242000FCD6F3FCD6F3FCD6F3FCD6F3FCD6F3FCD7
:10243000D6F3FCD6F3FCD6F3FCD6F3FCD6F3FCD6ED
:10244000F3FCD6F3FCD6F3FCD6F3FCD6F3FCD6F3C0
:10245000FCD6F3FCD6F3FCD6F3FCD6F3FCD6F3FCA7
:10246000D6F3FCD6F3FCD6F3FCD6F3FCD6F3FCD6BD
:10247000F3FCD6F3FCD6F3FCD6F3FCD6F3FCD5F292
:10248000FBD5F2FBD5F2FBD5F2FBD5F2FBD5F2FB87
:10249000D5F2FBD5F2FBD5F2FBD5F2FBD5F2FBD59D
:1024A000F2FBD5F2FBD5F2FBD5F2FBD5F2FBD6F36E
:1024B000FCD6F3FCD6F3FCD6F3FCD6F3FCD6F3FC47
:1024C000D6F3FCD6F3FCD6F3FCD6F3FCD6F3FCD65D
:1024D000F3FCD6F3FCD6F3FCD6F3FCD6F3FCD6F330
:1024E000FCD6F3FCD6F3FCD6F3FCD6F3FCD6F3FC17
:1024F000D6F3FCD6F3FCD5F2FBD5F2FBD5F2FBD537
:10250000F2FBD5F2FBD5F2FBD5F2FBD5F2FBD6F30D
:10251000FCD6F3FCD6F3FCD6F3FCD6F3FCD6F3FCE6
:10252000D6F3FCD6F3FCD6F3FCD6F3FCD6F3FCD6FC
:10253000F3FCD6F3FCD6F3FCD6F3FCD6F3FCD6F3CF
:10254000FCD6F3FCD6F3FCD6F3FCD6F3FCD6F3FCB6
:10255000D6F3FCD6F3FCD6F3FCD6F3FCD6F3FCD6CC
:10256000F3FCD6F3FCD6F3FCD6F3FCD6F3FCD6F39F
:10257000FCD6F3FCD6F3FCD6F3FCD6F3FCD6F3FC86
:10258000D6F3FCD6F3FCD6F3FCD6F3FCD6F3FCD69C
:10259000F3FCD6F3FCD6F3FCD6F3FCD6F3FCD6F36F
:1025A000FCD6F3FCD6F3FCD6F3FCD6F3FCD6F3FC56
:1025B000D6F3FCD6F3FCD6F3FCD6F3FCD6F3FCD66C
:1025C000F3FCD6F3FCD6F3FCD6F3FCD6F3FCD6F33F
:1025D000FCD6F3FCD6F3FCD6F3FCD6F3FCD6F3FC26
:1025E000D6F3FCD6F3FCD6F3FCD6F3FCD6F3FCD63C
:1025F000F3FCD6F3FCD6F3FCD6F3FCD6F3FCD6F30F
:10260000FCD6F3FCD6F3FCD6F3FCD6F3FCD6F3FCF5
:10261000D6F3FCD6F3FCD6F3FCD6F3FCD6F3FCD60B
:10262000F3FCD6F3FCD6F3FCD6F3FCD6F3FCD6F3DE
:10263000FCD6F3FCD6F3FCD6F3FCD6F3FCD6F3FCC5
:10264000D6F3FCD6F3FCD6F3FCD6F3FCD6F3FCD6DB
:10265000F3FCD6F3FCD6F3FCD6F3FCD6F3FCD6F3AE
:10266000FCD6F3FCD6F3FCD6F3FCD6F3FCD6F3FC95
:10267000D6F3FCD6F3FCD6F3FCD6F3FCD6F3FCD6AB
:10268000F3FCD6F3FCD6F3FCD6F3FCD6F3FCD6F37E
:10269000FCD6F3FCD6F3FCD6F3FCD6F3FCD6F3FC65
:1026A000D6F3FCD6F3FCD5F2FBD5F2FBD5F2FBD585
:1026B000F2FBD5F2FBD5F2FBD5F2FBD5F2FBD6F35C
:1026C000FCD6F3FCD6F3FCD6F3FCD6F3FCD6F3FC35
:1026D000D6F3FCD6F3FCD6F3FCD6F3FCD6F3FCD64B
:1026E000F3FCD6F3FCD6F3FCD6F3FCD6F3FCD6F31E
:1026F000FCD6F3FCD6F3FCD6F3FCD6F3FCD6F3FC05
:10270000D6F3FCD6F3FCD6F3FCD6F3FCD6F3FCD61A
:10271000F3FCD6F3FCD6F3FCD6F3FCD6F3FCD6F3ED
:10272000FCD6F3FCD6F3FCD6F3FCD6F3FCD6F3FCD4
:10273000D6F3FCD6F3FCD5F2FBD5F2FBD5F2FBD5F4
:10274000F2FBD5F2FBD5F2FBD5F2FBD5F2FBD6F3CB
:10275000FCD6F3FCD6F3FCD6F3FCD6F3FCD6F3FCA4
:10276000D6F3FCD6F3FCD6F3FCD6F3FCD6F3FCD6BA
:10277000F3FCD6F3FCD6F3FCD6F3FCD6F3FCD6F38D
:10278000FCD6F3FCD6F3FCD6F3FCD6F3FCD6F3FC74
:10279000D6F3FCD6F3FCD6F3FCD6F3FCD6F3FCD68A
:1027A000F3FCD6F3FCD6F3FCD6F3FCD6F3FCD5F25F
:1027B000FBD5F2FBD5F2FBD5F2FBD5F2FBD5F2FB54
:1027C000D5F2FBD5F2FBD6F3FCD6F3FCD6F3FCD660
:1027D000F3FCD6F3FCD6F3FCD6F3FCD6F3FCD6F32D
:1027E000FCD6F3FCD6F3FCD6F3FCD6F3FCD6F3FC14
:1027F000D6F3FCD6F3FCD6F3FCD6F3FCD6F3FCD62A
:10280000F3FCD6F3FCD6F3FCD6F3FCD6F3FCD6F3FC
:10281000FCD6F3FCD6F3FCD6F3FCD6F3FCD6F3FCE3
:10282000D6F3FCD6F3FCD6F3FCD6F3FCD6F3FCD6F9
:10283000F3FCD6F3FCD6F3FCD6F3FCD6F3FCD5F2CE
:10284000FBD5F2FBD5F2FBD5F2FBD5F2FBD5F2FBC3
:10285000D5F2FBD5F2FBD5F2FBD5F2FBD5F2FBD5D9
:10286000F2FBD5F2FBD5F2FBD5F2FBD5F2FBD6F3AA
:10287000FCD6F3FCD6F3FCD6F3FCD6F3FCD6F3FC83
:10288000D6F3FCD6F3FCD6F3FCD6F3FCD6F3FCD699
:10289000F3FCD6F3FCD6F3FCD6F3FCD6F3FCD6F36C
:1028A000FCD6F3FCD6F3FCD6F3FCD6F3FCD6F3FC53
:1028B000D6F3FCD6F3FCD5F2FBD5F2FBD5F2FBD573
:1028C000F2FBD5F2FBD5F2FBD5F2FBD5F2FBD6F34A
:1028D000FCD6F3FCD6F3FCD6F3FCD6F3FCD6F3FC23
:1028E000D6F3FCD6F3FCD6F3FCD6F3FCD6F3FCD639
:1028F000F3FCD6F3FCD6F3FCD6F3FCD6F3FCD6F30C
:10290000FCD6F3FCD6F3FCD6F3FCD6F3FCD6F3FCF2
:10291000D6F3FCD6F3FCD6F3FCD6F3FCD6F3FCD608
:10292000F3FCD6F3FCD6F3FCD6F3FCD6F3FCD6F3DB
:10293000FCD6F3FCD6F3FCD6F3FCD6F3FCD6F3FCC2
:10294000D6F3FCD6F3FCD6F3FCD6F3FCD6F3FCD6D8
:10295000F3FCD6F3FCD6F3FCD6F3FCD6F3FCD6F3AB
:10296000FCD6F3FCD6F3FCD6F3FCD6F3FCD6F3FC92
:10297000D6F3FCD6F3FCD6F3FCD6F3FCD6F3FCD6A8
:10298000F3FCD6F3FCD6F3FCD6F3FCD6F3FCD6F37B
:10299000FCD6F3FCD6F3FCD6F3FCD6F3FCD6F3FC62
:1029A000D6F3FCD6F3FCD6F3FCD6F3FCD6F3FCD678
:1029B000F3FCD6F3FCD6F3FCD6F3FCD6F3FCD6F34B
:1029C000FCD6F3FCD6F3FCD6F3FCD6F3FCD6F3FC32
:1029D000D6F3FCD6F3FCD6F3FCD6F3FCD6F3FCD648
:1029E000F3FCD6F3FCD6F3FCD6F3FCD6F3FCD6F31B
:1029F000FCD6F3FCD6F3FCD6F3FCD6F3FCD6F3FC02
:102A0000D6F3FCD6F3FCD6F3FCD6F3FCD6F3FCD617
:102A1000F3FCD6F3FCD6F3FCD6F3FCD6F3FCD6F3EA
:102A2000FCD6F3FCD6F3FCD6F3FCD6F3FCD6F3FCD1
:102A3000D6F3FCD6F3FCD6F3FCD6F3FCD6F3FCD6E7
:102A4000F3FCD6F3FCD6F3FCD6F3FCD6F3FCD6F3BA
:102A5000FCD6F3FCD6F3FCD6F3FCD6F3FCD6F3FCA1
:102A6000D6F3FCD6F3FCD5F2FBD5F2FBD5F2FBD5C1
:102A7000F2FBD5F2FBD5F2FBD5F2FBD5F2FBD6F398
:102A8000FCD6F3FCD6F3FCD6F3FCD6F3FCD6F3FC71
:102A9000D6F3FCD6F3FCD6F3FCD6F3FCD6F3FCD687
:102AA000F3FCD6F3FCD6F3FCD6F3FCD6F3FCD6F35A
:102AB000FCD6F3FCD6F3FCD6F3FCD6F3FCD6F3FC41
:102AC000D6F3FCD6F3FCD6F3FCD6F3FCD6F3FCD657
:102AD000F3FCD6F3FCD6F3FCD6F3FCD6F3FCD6F32A
:102AE000FCD6F3FCD6F3FCD6F3FCD6F3FCD6F3FC11
:102AF000D6F3FCD6F3FCD5F2FBD5F2FBD5F2FBD531
:102B0000F2FBD5F2FBD5F2FBD5F2FBD5F2FBD6F307
:102B1000FCD6F3FCD6F3FCD6F3FCD6F3FCD6F3FCE0
:102B2000D6F3FCD6F3FCD6F3FCD6F3FCD6F3FCD6F6
:102B3000F3FCD6F3FCD6F3FCD6F3FCD6F3FCD6F3C9
:102B4000FCD6F3FCD6F3FCD6F3FCD6F3FCD6F3FCB0
:102B5000D6F3FCD6F3FCD6F3FCD6F3FCD6F3FCD6C6
:102B6000F3FCD6F3FCD6F3FCD6F3FCD6F3FCD5F29B
:102B7000FBD5F2FBD5F2FBD5F2FBD5F2FBD5F2FB90
:102B8000D5F2FBD5F2FBD6F3FCD6F3FCD6F3FCD69C
:102B9000F3FCD6F3FCD6F3FCD6F3FCD6F3FCD6F369
:102BA000FCD6F3FCD6F3FCD6F3FCD6F3FCD6F3FC50
:102BB000D6F3FCD6F3FCD6F3FCD6F3FCD6F3FCD666
:102BC000F3FCD6F3FCD6F3FCD6F3FCD6F3FCD6F339
:102BD000FCD6F3FCD6F3FCD6F3FCD6F3FCD6F3FC20
:102BE000D6F3FCD6F3FCD6F3FCD6F3FCD6F3FCD636
:102BF000F3FCD6F3FCD6F3FCD6F3FCD6F3FCD5F20B
:102C0000FBD5F2FBD5F2FBD5F2FBD5F2FBD5F2FBFF
:102C1000D5F2FBD5F2FBD5F2FBD5F2FBD5F2FBD515
:102C2000F2FBD5F2FBD5F2FBD5F2FBD5F2FBD6F3E6
:102C3000FCD6F3FCD6F3FCD6F3FCD6F3FCD6F3FCBF
:102C4000D6F3FCD6F3FCD6F3FCD6F3FCD6F3FCD6D5
:102C5000F3FCD6F3FCD6F3FCD6F3FCD6F3FCD6F3A8
:102C6000FCD6F3FCD6F3FCD6F3FCD6F3FCD6F3FC8F
:102C7000D6F3FCD6F3FCD5F2FBD5F2FBD5F2FBD5AF
:102C8000F2FBD5F2FBD5F2FBD5F2FBD5F2FBD6F386
:102C9000FCD6F3FCD6F3FCD6F3FCD6F3FCD6F3FC5F
:102CA000D6F3FCD6F3FCD6F3FCD6F3FCD6F3FCD675
:102CB000F3FCD6F3FCD6F3FCD6F3FCD6F3FCD6F348
:102CC000FCD6F3FCD6F3FCD6F3FCD6F3FCD6F3FC2F
:102CD000D6F3FCD6F3FCD6F3FCD6F3FCD6F3FCD645
:102CE000F3FCD6F3FCD6F3FCD6F3FCD6F3FCD6F318
:102CF000FCD6F3FCD6F3FCD6F3FCD6F3FCD6F3FCFF
:102D0000D6F3FCD6F3FCD6F3FCD6F3FCD6F3FCD614
:102D1000F3FCD6F3FCD6F3FCD6F3FCD6F3FCD6F3E7
:102D2000FCD6F3FCD6F3FCD6F3FCD6F3FCD6F3FCCE
:102D3000D6F3FCD6F3FCD6F3FCD6F3FCD6F3FCD6E4
:102D4000F3FCD6F3FCD6F3FCD6F3FCD6F3FCD6F3B7
:102D5000FCD6F3FCD6F3FCD6F3FCD6F3FCD6F3FC9E
:102D6000D6F3FCD6F3FCD6F3FCD6F3FCD6F3FCD6B4
:102D7000F3FCD6F3FCD6F3FCD6F3FCD6F3FCD6F387
:102D8000FCD6F3FCD6F3FCD6F3FCD6F3FCD6F3FC6E
:102D9000D6F3FCD6F3FCD6F3FCD6F3FCD6F3FCD684
:102DA000F3FCD6F3FCD6F3FCD6F3FCD6F3FCD6F357
:102DB000FCD6F3FCD6F3FCD6F3FCD6F3FCD6F3FC3E
:102DC000D6F3FCD6F3FCD6F3FCD6F3FCD6F3FCD654
:102DD000F3FCD6F3FCD6F3FCD6F3FCD6F3FCD6F327
:102DE000FCD6F3FCD6F3FCD6F3FCD6F3FCD6F3FC0E
:102DF000D6F3FCD6F3FCD6F3FCD6F3FCD6F3FCD624
:102E0000F3FCD6F3FCD6F3FCD6F3FCD6F3FCD6F3F6
:102E1000FCD6F3FCD6F3FCD6F3FCD6F3FCD6F3FCDD
:102E2000D6F3FCD6F3FCD5F2FBD5F2FBD5F2FBD5FD
:102E3000F2FBD5F2FBD5F2FBD5F2FBD5F2FBD6F3D4
:102E4000FCD6F3FCD6F3FCD6F3FCD6F3FCD6F3FCAD
:102E5000D6F3FCD6F3FCD6F3FCD6F3FCD6F3FCD6C3
:102E6000F3FCD6F3FCD6F3FCD6F3FCD6F3FCD6F396
:102E7000FCD6F3FCD6F3FCD6F3FCD6F3FCD6F3FC7D
:102E8000D6F3FCD6F3FCD6F3FCD6F3FCD6F3FCD693
:102E9000F3FCD6F3FCD6F3FCD6F3FCD6F3FCD6F366
:102EA000FCD6F3FCD6F3FCD6F3FCD6F3FCD6F3FC4D
:102EB000D6F3FCD6F3FCD5F2FBD5F2FBD5F2FBD56D
:102EC000F2FBD5F2FBD5F2FBD5F2FBD5F2FBD6F344
:102ED000FCD6F3FCD6F3FCD6F3FCD6F3FCD6F3FC1D
:102EE000D6F3FCD6F3FCD6F3FCD6F3FCD6F3FCD633
:102EF000F3FCD6F3FCD6F3FCD6F3FCD6F3FCD6F306
:102F0000FCD6F3FCD6F3FCD6F3FCD6F3FCD6F3FCEC
:102F1000D6F3FCD6F3FCD6F3FCD6F3FCD6F3FCD602
:102F2000F3FCD6F3FCD6F3FCD6F3FCD6F3FCD5F2D7
:102F3000FBD5F2FBD5F2FBD5F2FBD5F2FBD5F2FBCC
:102F4000D5F2FBD5F2FBD6F3FCD6F3FCD6F3FCD6D8
:102F5000F3FCD6F3FCD6F3FCD6F3FCD6F3FCD6F3A5
:102F6000FCD6F3FCD6F3FCD6F3FCD6F3FCD6F3FC8C
:102F7000D6F3FCD6F3FCD6F3FCD6F3FCD6F3FCD6A2
:102F8000F3FCD6F3FCD6F3FCD6F3FCD6F3FCD6F375
:102F9000FCD6F3FCD6F3FCD6F3FCD6F3FCD6F3FC5C
:102FA000D6F3FCD6F3FCD6F3FCD6F3FCD6F3FCD672
:102FB000F3FCD6F3FCD6F3FCD6F3FCD6F3FCD5F247
:102FC000FBD5F2FBD5F2FBD5F2FBD5F2FBD5F2FB3C
:102FD000D5F2FBD5F2FBD5F2FBD5F2FBD5F2FBD552
:102FE000F2FBD5F2FBD5F2FBD5F2FBD5F2FBD6F323
:102FF000FCD6F3FCD6F3FCD6F3FCD6F3FCD6F3FCFC
:10300000D6F3FCD6F3FCD6F3FCD6F3FCD6F3FCD611
:10301000F3FCD6F3FCD6F3FCD6F3FCD6F3FCD6F3E4
:10302000FCD6F3FCD6F3FCD6F3FCD6F3FCD6F3FCCB
:10303000D6F3FCD6F3FCD5F2FBD5F2FBD5F2FBD5EB
:10304000F2FBD5F2FBD5F2FBD5F2FBD5F2FBD6F3C2
:10305000FCD6F3FCD6F3FCD6F3FCD6F3FCD6F3FC9B
:10306000D6F3FCD6F3FCD6F3FCD6F3FCD6F3FCD6B1
:10307000F3FCD6F3FCD6F3FCD6F3FCD6F3FCD6F384
:10308000FCD6F3FCD6F3FCD6F3FCD6F3FCD6F3FC6B
:10309000D6F3FCD6F3FCD6F3FCD6F3FCD6F3FCD681
:1030A000F3FCD6F3FCD6F3FCD6F3FCD6F3FCD6F354
:1030B000FCD6F3FCD6F3FCD6F3FCD6F3FCD6F3FC3B
:1030C000D6F3FCD6F3FCD6F3FCD6F3FCD6F3FCD651
:1030D000F3FCD6F3FCD6F3FCD6F3FCD6F3FCD6F324
:1030E000FCD6F3FCD6F3FCD6F3FCD6F3FCD6F3FC0B
:1030F000D6F3FCD6F3FCD6F3FCD6F3FCD6F3FCD621
:10310000F3FCD6F3FCD6F3FCD6F3FCD6F3FCD6F3F3
:10311000FCD6F3FCD6F3FCD6F3FCD6F3FCD6F3FCDA
:10312000D6F3FCD6F3FCD6F3FCD6F3FCD6F3FCD6F0
:10313000F3FCD6F3FCD6F3FCD6F3FCD6F3FCD6F3C3
:10314000FCD6F3FCD6F3FCD6F3FCD6F3FCD6F3FCAA
:10315000D6F3FCD6F3FCD6F3FCD6F3FCD6F3FCD6C0
:10316000F3FCD6F3FCD6F3FCD6F3FCD6F3FCD6F393
:10317000FCD6F3FCD6F3FCD6F3FCD6F3FCD6F3FC7A
:10318000D6F3FCD6F3FCD6F3FCD6F3FCD6F3FCD690
:10319000F3FCD6F3FCD6F3FCD6F3FCD6F3FCD6F363
:1031A000FCD6F3FCD6F3FCD6F3FCD6F3FCD6F3FC4A
:1031B000D6F3FCD6F3FCD6F3FCD6F3FCD6F3FCD660
:1031C000F3FCD6F3FCD6F3FCD6F3FCD6F3FCD6F333
:1031D000FCD6F3FCD6F3FCD6F3FCD6F3FCD6F3FC1A
:1031E000D6F3FCD6F3FCD5F2FBD5F2FBD5F2FBD53A
:1031F000F2FBD5F2FBD5F2FBD5F2FBD5F2FBD6F311
:10320000FCD6F3FCD6F3FCD6F3FCD6F3FCD6F3FCE9
:10321000D6F3FCD6F3FCD6F3FCD6F3FCD6F3FCD6FF
:10322000F3FCD6F3FCD6F3FCD6F3FCD6F3FCD6F3D2
:10323000FCD6F3FCD6F3FCD6F3FCD6F3FCD6F3FCB9
:10324000D6F3FCD6F3FCD6F3FCD6F3FCD6F3FCD6CF
:10325000F3FCD6F3FCD6F3FCD6F3FCD6F3FCD6F3A2
:10326000FCD6F3FCD6F3FCD6F3FCD6F3FCD6F3FC89
:10327000D6F3FCD6F3FCD5F2FBD5F2FBD5F2FBD5A9
:10328000F2FBD5F2FBD5F2FBD5F2FBD5F2FBD6F380
:10329000FCD6F3FCD6F3FCD6F3FCD6F3FCD6F3FC59
:1032A000D6F3FCD6F3FCD6F3FCD6F3FCD6F3FCD66F
:1032B000F3FCD6F3FCD6F3FCD6F3FCD6F3FCD6F342
:1032C000FCD6F3FCD6F3FCD6F3FCD6F3FCD6F3FC29
:1032D000D6F3FCD6F3FCD6F3FCD6F3FCD6F3FCD63F
:1032E000F3FCD6F3FCD6F3FCD6F3FCD6F3FCD5F214
:1032F000FBD5F2FBD5F2FBD5F2FBD5F2FBD5F2FB09
:10330000D5F2FBD5F2FBD6F3FCD6F3FCD6F3FCD614
:10331000F3FCD6F3FCD6F3FCD6F3FCD6F3FCD6F3E1
:10332000FCD6F3FCD6F3FCD6F3FCD6F3FCD6F3FCC8
:10333000D6F3FCD6F3FCD6F3FCD6F3FCD6F3FCD6DE
:10334000F3FCD6F3FCD6F3FCD6F3FCD6F3FCD6F3B1
:10335000FCD6F3FCD6F3FCD6F3FCD6F3FCD6F3FC98
:10336000D6F3FCD6F3FCD6F3FCD6F3FCD6F3FCD6AE
:10337000F3FCD6F3FCD6F3FCD6F3FCD6F3FCD5F283
:10338000FBD5F2FBD5F2FBD5F2FBD5F2FBD5F2FB78
:10339000D5F2FBD5F2FBD5F2FBD5F2FBD5F2FBD58E
:1033A000F2FBD5F2FBD5F2FBD5F2FBD5F2FBD6F35F
:1033B000FCD6F3FCD6F3FCD6F3FCD6F3FCD6F3FC38
:1033C000D6F3FCD6F3FCD6F3FCD6F3FCD6F3FCD64E
:1033D000F3FCD6F3FCD6F3FCD6F3FCD6F3FCD6F321
:1033E000FCD6F3FCD6F3FCD6F3FCD6F3FCD6F3FC08
:1033F000D6F3FCD6F3FCD5F2FBD5F2FBD5F2FBD528
:10340000F2FBD5F2FBD5F2FBD5F2FBD5F2FBD6F3FE
:10341000FCD6F3FCD6F3FCD6F3FCD6F3FCD6F3FCD7
:10342000D6F3FCD6F3FCD6F3FCD6F3FCD6F3FCD6ED
:10343000F3FCD6F3FCD6F3FCD6F3FCD6F3FCD6F3C0
:10344000FCD6F3FCD6F3FCD6F3FCD6F3FCD6F3FCA7
:10345000D6F3FCD6F3FCD6F3FCD6F3FCD6F3FCD6BD
:10346000F3FCD6F3FCD6F3FCD6F3FCD6F3FCD6F390
:10347000FCD6F3FCD6F3FCD6F3FCD6F3FCD6F3FC77
:10348000D6F3FCD6F3FCD6F3FCD6F3FCD6F3FCD68D
:10349000F3FCD6F3FCD6F3FCD6F3FCD6F3FCD6F360
:1034A000FCD6F3FCD6F3FCD6F3FCD6F3FCD6F3FC47
:1034B000D6F3FCD6F3FCD6F3FCD6F3FCD6F3FCD65D
:1034C000F3FCD6F3FCD6F3FCD6F3FCD6F3FCD6F330
:1034D000FCD6F3FCD6F3FCD6F3FCD6F3FCD6F3FC17
:1034E000D6F3FCD6F3FCD6F3FCD6F3FCD6F3FCD62D
:1034F000F3FCD6F3FCD6F3FCD6F3FCD6F3FCD6F300
:10350000FCD6F3FCD6F3FCD6F3FCD6F3FCD6F3FCE6
:10351000D6F3FCD6F3FCD6F3FCD6F3FCD6F3FCD6FC
:10352000F3FCD6F3FCD6F3FCD6F3FCD6F3FCD6F3CF
:10353000FCD6F3FCD6F3FCD6F3FCD6F3FCD6F3FCB6
:10354000D6F3FCD6F3FCD6F3FCD6F3FCD6F3FCD6CC
:10355000F3FCD6F3FCD6F3FCD6F3FCD6F3FCD6F39F
:10356000FCD6F3FCD6F3FCD6F3FCD6F3FCD6F3FC86
:10357000D6F3FCD6F3FCD6F3FCD6F3FCD6F3FCD69C
:10358000F3FCD6F3FCD6F3FCD6F3FCD6F3FCD6F36F
:10359000FCD6F3FCD6F3FCD6F3FCD6F3FCD6F3FC56
:1035A000D6F3FCD6F3FCD5F2FBD5F2FBD5F2FBD576
:1035B000F2FBD5F2FBD5F2FBD5F2FBD5F2FBD6F34D
:1035C000FCD6F3FCD6F3FCD6F3FCD6F3FCD6F3FC26
:1035D000D6F3FCD6F3FCD6F3FCD6F3FCD6F3FCD63C
:1035E000F3FCD6F3FCD6F3FCD6F3FCD6F3FCD6F30F
:1035F000FCD6F3FCD6F3FCD6F3FCD6F3FCD6F3FCF6
:10360000D6F3FCD6F3FCD6F3FCD6F3FCD6F3FCD60B
:10361000F3FCD6F3FCD6F3FCD6F3FCD6F3FCD6F3DE
:10362000FCD6F3FCD6F3FCD6F3FCD6F3FCD6F3FCC5
:10363000D6F3FCD6F3FCD5F2FBD5F2FBD5F2FBD5E5
:10364000F2FBD5F2FBD5F2FBD5F2FBD5F2FBD6F3BC
:10365000FCD6F3FCD6F3FCD6F3FCD6F3FCD6F3FC95
:10366000D6F3FCD6F3FCD6F3FCD6F3FCD6F3FCD6AB
:10367000F3FCD6F3FCD6F3FCD6F3FCD6F3FCD6F37E
:10368000FCD6F3FCD6F3FCD6F3FCD6F3FCD6F3FC65
:10369000D6F3FCD6F3FCD6F3FCD6F3FCD6F3FCD67B
:1036A000F3FCD6F3FCD6F3FCD6F3FCD6F3FCD5F250
:1036B000FBD5F2FBD5F2FBD5F2FBD5F2FBD5F2FB45
:1036C000D5F2FBD5F2FBD6F3FCD6F3FCD6F3FCD651
:1036D000F3FCD6F3FCD6F3FCD6F3FCD6F3FCD6F31E
:1036E000FCD6F3FCD6F3FCD6F3FCD6F3FCD6F3FC05
:1036F000D6F3FCD6F3FCD6F3FCD6F3FCD6F3FCD61B
:10370000F3FCD6F3FCD6F3FCD6F3FCD6F3FCD6F3ED
:10371000FCD6F3FCD6F3FCD6F3FCD6F3FCD6F3FCD4
:10372000D6F3FCD6F3FCD6F3FCD6F3FCD6F3FCD6EA
:10373000F3FCD6F3FCD6F3FCD6F3FCD6F3FCD5F2BF
:10374000FBD5F2FBD5F2FBD5F2FBD5F2FBD5F2FBB4
:10375000D5F2FBD5F2FBD5F2FBD5F2FBD5F2FBD5CA
:10376000F2FBD5F2FBD5F2FBD5F2FBD5F2FBD6F39B
:10377000FCD6F3FCD6F3FCD6F3FCD6F3FCD6F3FC74
:10378000D6F3FCD6F3FCD6F3FCD6F3FCD6F3FCD68A
:10379000F3FCD6F3FCD6F3FCD6F3FCD6F3FCD6F35D
:1037A000FCD6F3FCD6F3FCD6F3FCD6F3FCD6F3FC44
:1037B000D6F3FCD6F3FCD5F2FBD5F2FBD5F2FBD564
:1037C000F2FBD5F2FBD5F2FBD5F2FBD5F2FBD6F33B
:1037D000FCD6F3FCD6F3FCD6F3FCD6F3FCD6F3FC14
:1037E000D6F3FCD6F3FCD6F3FCD6F3FCD6F3FCD62A
:1037F000F3FCD6F3FCD6F3FCD6F3FCD6F3FCD6F3FD
:10380000FCD6F3FCD6F3FCD6F3FCD6F3FCD6F3FCE3
:10381000D6F3FCD6F3FCD6F3FCD6F3FCD6F3FCD6F9
:10382000F3FCD6F3FCD6F3FCD6F3FCD6F3FCD6F3CC
:10383000FCD6F3FCD6F3FCD6F3FCD6F3FCD6F3FCB3
:10384000D6F3FCD6F3FCD6F3FCD6F3FCD6F3FCD6C9
:10385000F3FCD6F3FCD6F3FCD6F3FCD6F3FCD6F39C
:10386000FCD6F3FCD6F3FCD6F3FCD6F3FCD6F3FC83
:10387000D6F3FCD6F3FCD6F3FCD6F3FCD6F3FCD699
:10388000F3FCD6F3FCD6F3FCD6F3FCD6F3FCD6F36C
:10389000FCD6F3FCD6F3FCD6F3FCD6F3FCD6F3FC53
:1038A000D6F3FCD6F3FCD6F3FCD6F3FCD6F3FCD669
:1038B000F3FCD6F3FCD6F3FCD6F3FCD6F3FCD6F33C
:1038C000FCD6F3FCD6F3FCD6F3FCD6F3FCD6F3FC23
:1038D000D6F3FCD6F3FCD6F3FCD6F3FCD6F3FCD639
:1038E000F3FCD6F3FCD6F3FCD6F3FCD6F3FCD6F30C
:1038F000FCD6F3FCD6F3FCD6F3FCD6F3FCD6F3FCF3
:10390000D6F3FCD6F3FCD6F3FCD6F3FCD6F3FCD608
:10391000F3FCD6F3FCD6F3FCD6F3FCD6F3FCD6F3DB
:10392000FCD6F3FCD6F3FCD6F3FCD6F3FCD6F3FCC2
:10393000D6F3FCD6F3FCD6F3FCD6F3FCD6F3FCD6D8
:10394000F3FCD6F3FCD6F3FCD6F3FCD6F3FCD6F3AB
:10395000FCD6F3FCD6F3FCD6F3FCD6F3FCD6F3FC92
:10396000D6F3FCD6F3FCD5F2FBD5F2FBD5F2FBD5B2
:10397000F2FBD5F2FBD5F2FBD5F2FBD5F2FBD6F389
:10398000FCD6F3FCD6F3FCD6F3FCD6F3FCD6F3FC62
:10399000D6F3FCD6F3FCD6F3FCD6F3FCD6F3FCD678
:1039A000F3FCD6F3FCD6F3FCD6F3FCD6F3FCD6F34B
:1039B000FCD6F3FCD6F3FCD6F3FCD6F3FCD6F3FC32
:1039C000D6F3FCD6F3FCD6F3FCD6F3FCD6F3FCD648
:1039D000F3FCD6F3FCD6F3FCD6F3FCD6F3FCD6F31B
:1039E000FCD6F3FCD6F3FCD6F3FCD6F3FCD6F3FC02
:1039F000D6F3FCD6F3FCD5F2FBD5F2FBD5F2FBD522
:103A0000F2FBD5F2FBD5F2FBD5F2FBD5F2FBD6F3F8
:103A1000FCD6F3FCD6F3FCD6F3FCD6F3FCD6F3FCD1
:103A2000D6F3FCD6F3FCD6F3FCD6F3FCD6F3FCD6E7
:103A3000F3FCD6F3FCD6F3FCD6F3FCD6F3FCD6F3BA
:103A4000FCD6F3FCD6F3FCD6F3FCD6F3FCD6F3FCA1
:103A5000D6F3FCD6F3FCD6F3FCD6F3FCD6F3FCD6B7
:103A6000F3FCD6F3FCD6F3FCD6F3FCD6F3FCD5F28C
:103A7000FBD5F2FBD5F2FBD5F2FBD5F2FBD5F2FB81
:103A8000D5F2FBD5F2FBD6F3FCD6F3FCD6F3FCD68D
:103A9000F3FCD6F3FCD6F3FCD6F3FCD6F3FCD6F35A
:103AA000FCD6F3FCD6F3FCD6F3FCD6F3FCD6F3FC41
:103AB000D6F3FCD6F3FCD6F3FCD6F3FCD6F3FCD657
:103AC000F3FCD6F3FCD6F3FCD6F3FCD6F3FCD6F32A
:103AD000FCD6F3FCD6F3FCD6F3FCD6F3FCD6F3FC11
:103AE000D6F3FCD6F3FCD6F3FCD6F3FCD6F3FCD627
:103AF000F3FCD6F3FCD6F3FCD6F3FCD6F3FCD5F2FC
:103B0000FBD5F2FBD5F2FBD5F2FBD5F2FBD5F2FBF0
:103B1000D5F2FBD5F2FBD5F2FBD5F2FBD5F2FBD506
:103B2000F2FBD5F2FBD5F2FBD5F2FBD5F2FBD6F3D7
:103B3000FCD6F3FCD6F3FCD6F3FCD6F3FCD6F3FCB0
:103B4000D6F3FCD6F3FCD6F3FCD6F3FCD6F3FCD6C6
:103B5000F3FCD6F3FCD6F3FCD6F3FCD6F3FCD6F399
:103B6000FCD6F3FCD6F3FCD6F3FCD6F3FCD6F3FC80
:103B7000D6F3FCD6F3FCD5F2FBD5F2FBD5F2FBD5A0
:103B8000F2FBD5F2FBD5F2FBD5F2FBD5F2FBD6F377
:103B9000FCD6F3FCD6F3FCD6F3FCD6F3FCD6F3FC50
:103BA000D6F3FCD6F3FCD6F3FCD6F3FCD6F3FCD666
:103BB000F3FCD6F3FCD6F3FCD6F3FCD6F3FCD6F339
:103BC000FCD6F3FCD6F3FCD6F3FCD6F3FCD6F3FC20
:103BD000D6F3FCD6F3FCD6F3FCD6F3FCD6F3FCD636
:103BE000F3FCD6F3FCD6F3FCD6F3FCD6F3FCD6F309
:103BF000FCD6F3FCD6F3FCD6F3FCD6F3FCD6F3FCF0
:103C0000D6F3FCD6F3FCD6F3FCD6F3FCD6F3FCD605
:103C1000F3FCD6F3FCD6F3FCD6F3FCD6F3FCD6F3D8
:103C2000FCD6F3FCD6F3FCD6F3FCD6F3FCD6F3FCBF
:103C3000D6F3FCD6F3FCD6F3FCD6F3FCD6F3FCD6D5
:103C4000F3FCD6F3FCD6F3FCD6F3FCD6F3FCD6F3A8
:103C5000FCD6F3FCD6F3FCD6F3FCD6F3FCD6F3FC8F
:103C6000D6F3FCD6F3FCD6F3FCD6F3FCD6F3FCD6A5
:103C7000F3FCD6F3FCD6F3FCD6F3FCD6F3FCD6F378
:103C8000FCD6F3FCD6F3FCD6F3FCD6F3FCD6F3FC5F
:103C9000D6F3FCD6F3FCD6F3FCD6F3FCD6F3FCD675
:103CA000F3FCD6F3FCD6F3FCD6F3FCD6F3FCD6F348
:103CB000FCD6F3FCD6F3FCD6F3FCD6F3FCD6F3FC2F
:103CC000D6F3FCD6F3FCD6F3FCD6F3FCD6F3FCD645
:103CD000F3FCD6F3FCD6F3FCD6F3FCD6F3FCD6F318
:103CE000FCD6F3FCD6F3FCD6F3FCD6F3FCD6F3FCFF
:103CF000D6F3FCD6F3FCD6F3FCD6F3FCD6F3FCD615
:103D0000F3FCD6F3FCD6F3FCD6F3FCD6F3FCD6F3E7
:103D1000FCD6F3FCD6F3FCD6F3FCD6F3FCD6F3FCCE
:103D2000D6F3FCD6F3FCD5F2FBD5F2FBD5F2FBD5EE
:103D3000F2FBD5F2FBD5F2FBD5F2FBD5F2FBD6F3C5
:103D4000FCD6F3FCD6F3FCD6F3FCD6F3FCD6F3FC9E
:103D5000D6F3FCD6F3FCD6F3FCD6F3FCD6F3FCD6B4
:103D6000F3FCD6F3FCD6F3FCD6F3FCD6F3FCD6F387
:103D7000FCD6F3FCD6F3FCD6F3FCD6F3FCD6F3FC6E
:103D8000D6F3FCD6F3FCD7F4FDD7F4FDD7F4FDD77A
:103D9000F4FDD7F4FDD7F4FDD7F4FDD7F4FDD5F24B
:103DA000FBD5F2FBD5F2FBD5F2FBD5F2FBD5F2FB4E
:103DB000D5F2FBD5F2FBD5F2FBD5F2FBD5F2FBD564
:103DC000F2FBD5F2FBD5F2FBD5F2FBD5F2FBD5F237
:103DD000FBD5F2FBD5F2FBD5F2FBD5F2FBD5F2FB1E
:103DE000D5F2FBD5F2FBD5F2FBD5F2FBD5F2FBD534
:103DF000F2FBD5F2FBD5F2FBD5F2FBD5F2FBD5F207
:103E0000FBD5F2FBD5F2FBD5F2FBD5F2FBD5F2FBED
:103E1000D5F2FBD5F2FBD5F2FBD5F2FBD5F2FBD503
:103E2000F2FBD5F2FBD5F2FBD5F2FBD5F2FBD5F2D6
:103E3000FBD5F2FBD5F2FBD5F2FBD5F2FBD5F2FBBD
:103E4000D5F2FBD5F2FBD5F2FBD5F2FBD5F2FBD5D3
:103E5000F2FBD5F2FBD5F2FBD5F2FBD5F2FBD5F2A6
:103E6000FBD5F2FBD5F2FBD5F2FBD5F2FBD5F2FB8D
:103E7000D5F2FBD5F2FBD7F4FDD7F4FDD7F4FDD78F
:103E8000F4FDD7F4FDD7F4FDD7F4FDD7F4FDD5F25A
:103E9000FBD5F2FBD5F2FBD5F2FBD5F2FBD5F2FB5D
:103EA000D5F2FBD5F2FBD5F2FBD5F2FBD5F2FBD573
:103EB000F2FBD5F2FBD5F2FBD5F2FBD5F2FBD5F246
:103EC000FBD5F2FBD5F2FBD5F2FBD5F2FBD5F2FB2D
:103ED000D5F2FBD5F2FBD5F2FBD5F2FBD5F2FBD543
:103EE000F2FBD5F2FBD5F2FBD5F2FBD5F2FBD5F216
:103EF000FBD5F2FBD5F2FBD5F2FBD5F2FBD5F2FBFD
:103F0000D5F2FBD5F2FBD5F2FBD5F2FBD5F2FBD512
:103F1000F2FBD5F2FBD5F2FBD5F2FBD5F2FBD5F2E5
:103F2000FBD5F2FBD5F2FBD5F2FBD5F2FBD5F2FBCC
:103F3000D5F2FBD5F2FBD5F2FBD5F2FBD5F2FBD5E2
:103F4000F2FBD5F2FBD5F2FBD5F2FBD5F2FBD5F2B5
:103F5000FBD5F2FBD5F2FBD5F2FBD5F2FBD5F2FB9C
:103F6000D5F2FBD5F2FBD7F4FDD7F4FDD7F4FDD79E
:103F7000F4FDD7F4FDD7F4FDD7F4FDD7F4FDD5F269
:103F8000FBD5F2FBD5F2FBD5F2FBD5F2FBD5F2FB6C
:103F9000D5F2FBD5F2FBD5F2FBD5F2FBD5F2FBD582
:103FA000F2FBD5F2FBD5F2FBD5F2FBD5F2FBD7F451
:103FB000FDD7F4FDD7F4FDD7F4FDD7F4FDD7F4FD1C
:103FC000D7F4FDD7F4FDD5F2FBD5F2FBD5F2FBD546
:103FD000F2FBD5F2FBD5F2FBD5F2FBD5F2FBD5F225
:103FE000FBD5F2FBD5F2FBD5F2FBD5F2FBD5F2FB0C
:103FF000D5F2FBD5F2FBD5F2FBD5F2FBD5F2FBD522
:10400000F2FBD5F2FBD5F2FBD5F2FBD5F2FBD5F2F4
:10401000FBD5F2FBD5F2FBD5F2FBD5F2FBD5F2FBDB
:10402000D5F2FBD5F2FBD5F2FBD5F2FBD5F2FBD5F1
:10403000F2FBD5F2FBD5F2FBD5F2FBD5F2FBD7F4C0
:10404000FDD7F4FDD7F4FDD7F4FDD7F4FDD7F4FD8B
:10405000D7F4FDD7F4FDD7F4FDD7F4FDD7F4FDD7A1
:10406000F4FDD7F4FDD7F4FDD7F4FDD7F4FDD5F278
:10407000FBD5F2FBD5F2FBD5F2FBD5F2FBD5F2FB7B
:10408000D5F2FBD5F2FBD5F2FBD5F2FBD5F2FBD591
:10409000F2FBD5F2FBD5F2FBD5F2FBD5F2FBD7F460
:1040A000FDD7F4FDD7F4FDD7F4FDD7F4FDD7F4FD2B
:1040B000D7F4FDD7F4FDD5F2FBD5F2FBD5F2FBD555
:1040C000F2FBD5F2FBD5F2FBD5F2FBD5F2FBD5F234
:1040D000FBD5F2FBD5F2FBD5F2FBD5F2FBD5F2FB1B
:1040E000D5F2FBD5F2FBD7F4FDD7F4FDD7F4FDD71D
:1040F000F4FDD7F4FDD7F4FDD7F4FDD7F4FDD5F2E8
:10410000FBD5F2FBD5F2FBD5F2FBD5F2FBD5F2FBEA
:10411000D5F2FBD5F2FBD5F2FBD5F2FBD5F2FBD500
:10412000F2FBD5F2FBD5F2FBD5F2FBD5F2FBD5F2D3
:10413000FBD5F2FBD5F2FBD5F2FBD5F2FBD5F2FBBA
:10414000D5F2FBD5F2FBD6F3FCD6F3FCD6F3FCD6C6
:10415000F3FCD6F3FCD6F3FCD6F3FCD6F3FCD5F295
:10416000FBD5F2FBD5F2FBD5F2FBD5F2FBD5F2FB8A
:10417000D5F2FBD5F2FBD5F2FBD5F2FBD5F2FBD5A0
:10418000F2FBD5F2FBD5F2FBD5F2FBD5F2FBD5F273
:10419000FBD5F2FBD5F2FBD5F2FBD5F2FBD5F2FB5A
:1041A000D5F2FBD5F2FBD5F2FBD5F2FBD5F2FBD570
:1041B000F2FBD5F2FBD5F2FBD5F2FBD5F2FBD5F243
:1041C000FBD5F2FBD5F2FBD5F2FBD5F2FBD5F2FB2A
:1041D000D5F2FBD5F2FBD5F2FBD5F2FBD5F2FBD540
:1041E000F2FBD5F2FBD5F2FBD5F2FBD5F2FBD5F213
:1041F000FBD5F2FBD5F2FBD5F2FBD5F2FBD5F2FBFA
:10420000D5F2FBD5F2FBD5F2FBD5F2FBD5F2FBD50F
:10421000F2FBD5F2FBD5F2FBD5F2FBD5F2FBD5F2E2
:10422000FBD5F2FBD5F2FBD5F2FBD5F2FBD5F2FBC9
:10423000D5F2FBD5F2FBD6F3FCD6F3FCD6F3FCD6D5
:10424000F3FCD6F3FCD6F3FCD6F3FCD6F3FCD5F2A4
:10425000FBD5F2FBD5F2FBD5F2FBD5F2FBD5F2FB99
:10426000D5F2FBD5F2FBD5F2FBD5F2FBD5F2FBD5AF
:10427000F2FBD5F2FBD5F2FBD5F2FBD5F2FBD5F282
:10428000FBD5F2FBD5F2FBD5F2FBD5F2FBD5F2FB69
:10429000D5F2FBD5F2FBD5F2FBD5F2FBD5F2FBD57F
:1042A000F2FBD5F2FBD5F2FBD5F2FBD5F2FBD5F252
:1042B000FBD5F2FBD5F2FBD5F2FBD5F2FBD5F2FB39
:1042C000D5F2FBD5F2FBD5F2FBD5F2FBD5F2FBD54F
:1042D000F2FBD5F2FBD5F2FBD5F2FBD5F2FBD5F222
:1042E000FBD5F2FBD5F2FBD5F2FBD5F2FBD5F2FB09
:1042F000D5F2FBD5F2FBD5F2FBD5F2FBD5F2FBD51F
:10430000F2FBD5F2FBD5F2FBD5F2FBD5F2FBD5F2F1
:10431000FBD5F2FBD5F2FBD5F2FBD5F2FBD5F2FBD8
:10432000D5F2FBD5F2FBD6F3FCD6F3FCD6F3FCD6E4
:10433000F3FCD6F3FCD6F3FCD6F3FCD6F3FCD5F2B3
:10434000FBD5F2FBD5F2FBD5F2FBD5F2FBD5F2FBA8
:10435000D5F2FBD5F2FBD5F2FBD5F2FBD5F2FBD5BE
:10436000F2FBD5F2FBD5F2FBD5F2FBD5F2FBD6F38F
:10437000FCD6F3FCD6F3FCD6F3FCD6F3FCD6F3FC68
:10438000D6F3FCD6F3FCD5F2FBD5F2FBD5F2FBD588
:10439000F2FBD5F2FBD5F2FBD5F2FBD5F2FBD5F261
:1043A000FBD5F2FBD5F2FBD5F2FBD5F2FBD5F2FB48
:1043B000D5F2FBD5F2FBD5F2FBD5F2FBD5F2FBD55E
:1043C000F2FBD5F2FBD5F2FBD5F2FBD5F2FBD5F231
:1043D000FBD5F2FBD5F2FBD5F2FBD5F2FBD5F2FB18
:1043E000D5F2FBD5F2FBD5F2FBD5F2FBD5F2FBD52E
:1043F000F2FBD5F2FBD5F2FBD5F2FBD5F2FBD6F3FF
:10440000FCD6F3FCD6F3FCD6F3FCD6F3FCD6F3FCD7
:10441000D6F3FCD6F3FCD6F3FCD6F3FCD6F3FCD6ED
:10442000F3FCD6F3FCD6F3FCD6F3FCD6F3FCD5F2C2
:10443000FBD5F2FBD5F2FBD5F2FBD5F2FBD5F2FBB7
:10444000D5F2FBD5F2FBD5F2FBD5F2FBD5F2FBD5CD
:10445000F2FBD5F2FBD5F2FBD5F2FBD5F2FBD6F39E
:10446000FCD6F3FCD6F3FCD6F3FCD6F3FCD6F3FC77
:10447000D6F3FCD6F3FCD5F2FBD5F2FBD5F2FBD597
:10448000F2FBD5F2FBD5F2FBD5F2FBD5F2FBD5F270
:10449000FBD5F2FBD5F2FBD5F2FBD5F2FBD5F2FB57
:1044A000D5F2FBD5F2FBD6F3FCD6F3FCD6F3FCD663
:1044B000F3FCD6F3FCD6F3FCD6F3FCD6F3FCD5F232
:1044C000FBD5F2FBD5F2FBD5F2FBD5F2FBD5F2FB27
:1044D000D5F2FBD5F2FBD5F2FBD5F2FBD5F2FBD53D
:1044E000F2FBD5F2FBD5F2FBD5F2FBD5F2FBD5F210
:1044F000FBD5F2FBD5F2FBD5F2FBD5F2FBD5F2FBF7
:10450000D5F2FBD5F2FBD4F1FAD4F1FAD4F1FAD416
:10451000F1FAD4F1FAD4F1FAD4F1FAD4F1FAD5F2ED
:10452000FBD5F2FBD5F2FBD5F2FBD5F2FBD5F2FBC6
:10453000D5F2FBD5F2FBD5F2FBD5F2FBD5F2FBD5DC
:10454000F2FBD5F2FBD5F2FBD5F2FBD5F2FBD5F2AF
:10455000FBD5F2FBD5F2FBD5F2FBD5F2FBD5F2FB96
:10456000D5F2FBD5F2FBD5F2FBD5F2FBD5F2FBD5AC
:10457000F2FBD5F2FBD5F2FBD5F2FBD5F2FBD5F27F
:10458000FBD5F2FBD5F2FBD5F2FBD5F2FBD5F2FB66
:10459000D5F2FBD5F2FBD5F2FBD5F2FBD5F2FBD57C
:1045A000F2FBD5F2FBD5F2FBD5F2FBD5F2FBD5F24F
:1045B000FBD5F2FBD5F2FBD5F2FBD5F2FBD5F2FB36
:1045C000D5F2FBD5F2FBD5F2FBD5F2FBD5F2FBD54C
:1045D000F2FBD5F2FBD5F2FBD5F2FBD5F2FBD5F21F
:1045E000FBD5F2FBD5F2FBD5F2FBD5F2FBD5F2FB06
:1045F000D5F2FBD5F2FBD4F1FAD4F1FAD4F1FAD426
:10460000F1FAD4F1FAD4F1FAD4F1FAD4F1FAD5F2FC
:10461000FBD5F2FBD5F2FBD5F2FBD5F2FBD5F2FBD5
:10462000D5F2FBD5F2FBD5F2FBD5F2FBD5F2FBD5EB
:10463000F2FBD5F2FBD5F2FBD5F2FBD5F2FBD5F2BE
:10464000FBD5F2FBD5F2FBD5F2FBD5F2FBD5F2FBA5
:10465000D5F2FBD5F2FBD5F2FBD5F2FBD5F2FBD5BB
:10466000F2FBD5F2FBD5F2FBD5F2FBD5F2FBD5F28E
:10467000FBD5F2FBD5F2FBD5F2FBD5F2FBD5F2FB75
:10468000D5F2FBD5F2FBD5F2FBD5F2FBD5F2FBD58B
:10469000F2FBD5F2FBD5F2FBD5F2FBD5F2FBD5F25E
:1046A000FBD5F2FBD5F2FBD5F2FBD5F2FBD5F2FB45
:1046B000D5F2FBD5F2FBD5F2FBD5F2FBD5F2FBD55B
:1046C000F2FBD5F2FBD5F2FBD5F2FBD5F2FBD5F22E
:1046D000FBD5F2FBD5F2FBD5F2FBD5F2FBD5F2FB15
:1046E000D5F2FBD5F2FBD4F1FAD4F1FAD4F1FAD435
:1046F000F1FAD4F1FAD4F1FAD4F1FAD4F1FAD5F20C
:10470000FBD5F2FBD5F2FBD5F2FBD5F2FBD5F2FBE4
:10471000D5F2FBD5F2FBD5F2FBD5F2FBD5F2FBD5FA
:10472000F2FBD5F2FBD5F2FBD5F2FBD5F2FBD4F1CF
:10473000FAD4F1FAD4F1FAD4F1FAD4F1FAD4F1FAC4
:10474000D4F1FAD4F1FAD5F2FBD5F2FBD5F2FBD5D0
:10475000F2FBD5F2FBD5F2FBD5F2FBD5F2FBD5F29D
:10476000FBD5F2FBD5F2FBD5F2FBD5F2FBD5F2FB84
:10477000D5F2FBD5F2FBD5F2FBD5F2FBD5F2FBD59A
:10478000F2FBD5F2FBD5F2FBD5F2FBD5F2FBD5F26D
:10479000FBD5F2FBD5F2FBD5F2FBD5F2FBD5F2FB54
:1047A000D5F2FBD5F2FBD5F2FBD5F2FBD5F2FBD56A
:1047B000F2FBD5F2FBD5F2FBD5F2FBD5F2FBD4F13F
:1047C000FAD4F1FAD4F1FAD4F1FAD4F1FAD4F1FA34
:1047D000D4F1FAD4F1FAD4F1FAD4F1FAD4F1FAD44A
:1047E000F1FAD4F1FAD4F1FAD4F1FAD4F1FAD5F21B
:1047F000FBD5F2FBD5F2FBD5F2FBD5F2FBD5F2FBF4
:10480000D5F2FBD5F2FBD5F2FBD5F2FBD5F2FBD509
:10481000F2FBD5F2FBD5F2FBD5F2FBD5F2FBD4F1DE
:10482000FAD4F1FAD4F1FAD4F1FAD4F1FAD4F1FAD3
:10483000D4F1FAD4F1FAD5F2FBD5F2FBD5F2FBD5DF
:10484000F2FBD5F2FBD5F2FBD5F2FBD5F2FBD5F2AC
:10485000FBD5F2FBD5F2FBD5F2FBD5F2FBD5F2FB93
:10486000D5F2FBD5F2FBD4F1FAD4F1FAD4F1FAD4B3
:10487000F1FAD4F1FAD4F1FAD4F1FAD4F1FAD5F28A
:10488000FBD5F2FBD5F2FBD5F2FBD5F2FBD5F2FB63
:10489000D5F2FBD5F2FBD5F2FBD5F2FBD5F2FBD579
:1048A000F2FBD5F2FBD5F2FBD5F2FBD5F2FBD5F24C
:1048B000FBD5F2FBD5F2FBD5F2FBD5F2FBD5F2FB33
:1048C000D5F2FBD5F2FBD3F0F9D3F0F9D3F0F9D35D
:1048D000F0F9D3F0F9D3F0F9D3F0F9D3F0F9D5F238
:1048E000FBD5F2FBD5F2FBD5F2FBD5F2FBD5F2FB03
:1048F000D5F2FBD5F2FBD5F2FBD5F2FBD5F2FBD519
:10490000F2FBD5F2FBD5F2FBD5F2FBD5F2FBD5F2EB
:10491000FBD5F2FBD5F2FBD5F2FBD5F2FBD5F2FBD2
:10492000D5F2FBD5F2FBD5F2FBD5F2FBD5F2FBD5E8
:10493000F2FBD5F2FBD5F2FBD5F2FBD5F2FBD5F2BB
:10494000FBD5F2FBD5F2FBD5F2FBD5F2FBD5F2FBA2
:10495000D5F2FBD5F2FBD5F2FBD5F2FBD5F2FBD5B8
:10496000F2FBD5F2FBD5F2FBD5F2FBD5F2FBD5F28B
:10497000FBD5F2FBD5F2FBD5F2FBD5F2FBD5F2FB72
:10498000D5F2FBD5F2FBD5F2FBD5F2FBD5F2FBD588
:10499000F2FBD5F2FBD5F2FBD5F2FBD5F2FBD5F25B
:1049A000FBD5F2FBD5F2FBD5F2FBD5F2FBD5F2FB42
:1049B000D5F2FBD5F2FBD3F0F9D3F0F9D3F0F9D36C
:1049C000F0F9D3F0F9D3F0F9D3F0F9D3F0F9D5F247
:1049D000FBD5F2FBD5F2FBD5F2FBD5F2FBD5F2FB12
:1049E000D5F2FBD5F2FBD5F2FBD5F2FBD5F2FBD528
:1049F000F2FBD5F2FBD5F2FBD5F2FBD5F2FBD5F2FB
:104A0000FBD5F2FBD5F2FBD5F2FBD5F2FBD5F2FBE1
:104A1000D5F2FBD5F2FBD5F2FBD5F2FBD5F2FBD5F7
:104A2000F2FBD5F2FBD5F2FBD5F2FBD5F2FBD5F2CA
:104A3000FBD5F2FBD5F2FBD5F2FBD5F2FBD5F2FBB1
:104A4000D5F2FBD5F2FBD5F2FBD5F2FBD5F2FBD5C7
:104A5000F2FBD5F2FBD5F2FBD5F2FBD5F2FBD5F29A
:104A6000FBD5F2FBD5F2FBD5F2FBD5F2FBD5F2FB81
:104A7000D5F2FBD5F2FBD5F2FBD5F2FBD5F2FBD597
:104A8000F2FBD5F2FBD5F2FBD5F2FBD5F2FBD5F26A
:104A9000FBD5F2FBD5F2FBD5F2FBD5F2FBD5F2FB51
:104AA000D5F2FBD5F2FBD3F0F9D3F0F9D3F0F9D37B
:104AB000F0F9D3F0F9D3F0F9D3F0F9D3F0F9D5F256
:104AC000FBD5F2FBD5F2FBD5F2FBD5F2FBD5F2FB21
:104AD000D5F2FBD5F2FBD5F2FBD5F2FBD5F2FBD537
:104AE000F2FBD5F2FBD5F2FBD5F2FBD5F2FBD3F00E
:104AF000F9D3F0F9D3F0F9D3F0F9D3F0F9D3F0F911
:104B0000D3F0F9D3F0F9D5F2FBD5F2FBD5F2FBD512
:104B1000F2FBD5F2FBD5F2FBD5F2FBD5F2FBD5F2D9
:104B2000FBD5F2FBD5F2FBD5F2FBD5F2FBD5F2FBC0
:104B3000D5F2FBD5F2FBD5F2FBD5F2FBD5F2FBD5D6
:104B4000F2FBD5F2FBD5F2FBD5F2FBD5F2FBD5F2A9
:104B5000FBD5F2FBD5F2FBD5F2FBD5F2FBD5F2FB90
:104B6000D5F2FBD5F2FBD5F2FBD5F2FBD5F2FBD5A6
:104B7000F2FBD5F2FBD5F2FBD5F2FBD5F2FBD3F07D
:104B8000F9D3F0F9D3F0F9D3F0F9D3F0F9D3F0F980
:104B9000D3F0F9D3F0F9D3F0F9D3F0F9D3F0F9D396
:104BA000F0F9D3F0F9D3F0F9D3F0F9D3F0F9D5F265
:104BB000FBD5F2FBD5F2FBD5F2FBD5F2FBD5F2FB30
:104BC000D5F2FBD5F2FBD5F2FBD5F2FBD5F2FBD546
:104BD000F2FBD5F2FBD5F2FBD5F2FBD5F2FBD3F01D
:104BE000F9D3F0F9D3F0F9D3F0F9D3F0F9D3F0F920
:104BF000D3F0F9D3F0F9D5F2FBD5F2FBD5F2FBD522
:104C0000F2FBD5F2FBD5F2FBD5F2FBD5F2FBD5F2E8
:104C1000FBD5F2FBD5F2FBD5F2FBD5F2FBD5F2FBCF
:104C2000D5F2FBD5F2FBD3F0F9D3F0F9D3F0F9D3F9
:104C3000F0F9D3F0F9D3F0F9D3F0F9D3F0F9D5F2D4
:104C4000FBD5F2FBD5F2FBD5F2FBD5F2FBD5F2FB9F
:104C5000D5F2FBD5F2FBD5F2FBD5F2FBD5F2FBD5B5
:104C6000F2FBD5F2FBD5F2FBD5F2FBD5F2FBD5F288
:104C7000FBD5F2FBD5F2FBD5F2FBD5F2FBD5F2FB6F
:104C8000D5F2FBD5F2FBD3F0F9D3F0F9D3F0F9D399
:104C9000F0F9D3F0F9D3F0F9D3F0F9D3F0F9D5F274
:104CA000FBD5F2FBD5F2FBD5F2FBD5F2FBD5F2FB3F
:104CB000D5F2FBD5F2FBD5F2FBD5F2FBD5F2FBD555
:104CC000F2FBD5F2FBD5F2FBD5F2FBD5F2FBD5F228
:104CD000FBD5F2FBD5F2FBD5F2FBD5F2FBD5F2FB0F
:104CE000D5F2FBD5F2FBD5F2FBD5F2FBD5F2FBD525
:104CF000F2FBD5F2FBD5F2FBD5F2FBD5F2FBD5F2F8
:104D0000FBD5F2FBD5F2FBD5F2FBD5F2FBD5F2FBDE
:104D1000D5F2FBD5F2FBD5F2FBD5F2FBD5F2FBD5F4
:104D2000F2FBD5F2FBD5F2FBD5F2FBD5F2FBD5F2C7
:104D3000FBD5F2FBD5F2FBD5F2FBD5F2FBD5F2FBAE
:104D4000D5F2FBD5F2FBD5F2FBD5F2FBD5F2FBD5C4
:104D5000F2FBD5F2FBD5F2FBD5F2FBD5F2FBD5F297
:104D6000FBD5F2FBD5F2FBD5F2FBD5F2FBD5F2FB7E
:104D7000D5F2FBD5F2FBD3F0F9D3F0F9D3F0F9D3A8
:104D8000F0F9D3F0F9D3F0F9D3F0F9D3F0F9D5F283
:104D9000FBD5F2FBD5F2FBD5F2FBD5F2FBD5F2FB4E
:104DA000D5F2FBD5F2FBD5F2FBD5F2FBD5F2FBD564
:104DB000F2FBD5F2FBD5F2FBD5F2FBD5F2FBD5F237
:104DC000FBD5F2FBD5F2FBD5F2FBD5F2FBD5F2FB1E
:104DD000D5F2FBD5F2FBD5F2FBD5F2FBD5F2FBD534
:104DE000F2FBD5F2FBD5F2FBD5F2FBD5F2FBD5F207
:104DF000FBD5F2FBD5F2FBD5F2FBD5F2FBD5F2FBEE
:104E0000D5F2FBD5F2FBD5F2FBD5F2FBD5F2FBD503
:104E1000F2FBD5F2FBD5F2FBD5F2FBD5F2FBD5F2D6
:104E2000FBD5F2FBD5F2FBD5F2FBD5F2FBD5F2FBBD
:104E3000D5F2FBD5F2FBD5F2FBD5F2FBD5F2FBD5D3
:104E4000F2FBD5F2FBD5F2FBD5F2FBD5F2FBD5F2A6
:104E5000FBD5F2FBD5F2FBD5F2FBD5F2FBD5F2FB8D
:104E6000D5F2FBD5F2FBD3F0F9D3F0F9D3F0F9D3B7
:104E7000F0F9D3F0F9D3F0F9D3F0F9D3F0F9D5F292
:104E8000FBD5F2FBD5F2FBD5F2FBD5F2FBD5F2FB5D
:104E9000D5F2FBD5F2FBD5F2FBD5F2FBD5F2FBD573
:104EA000F2FBD5F2FBD5F2FBD5F2FBD5F2FBD3F04A
:104EB000F9D3F0F9D3F0F9D3F0F9D3F0F9D3F0F94D
:104EC000D3F0F9D3F0F9D5F2FBD5F2FBD5F2FBD54F
:104ED000F2FBD5F2FBD5F2FBD5F2FBD5F2FBD5F216
:104EE000FBD5F2FBD5F2FBD5F2FBD5F2FBD5F2FBFD
:104EF000D5F2FBD5F2FBD5F2FBD5F2FBD5F2FBD513
:104F0000F2FBD5F2FBD5F2FBD5F2FBD5F2FBD5F2E5
:104F1000FBD5F2FBD5F2FBD5F2FBD5F2FBD5F2FBCC
:104F2000D5F2FBD5F2FBD5F2FBD5F2FBD5F2FBD5E2
:104F3000F2FBD5F2FBD5F2FBD5F2FBD5F2FBD3F0B9
:104F4000F9D3F0F9D3F0F9D3F0F9D3F0F9D3F0F9BC
:104F5000D3F0F9D3F0F9D3F0F9D3F0F9D3F0F9D3D2
:104F6000F0F9D3F0F9D3F0F9D3F0F9D3F0F9D5F2A1
:104F7000FBD5F2FBD5F2FBD5F2FBD5F2FBD5F2FB6C
:104F8000D5F2FBD5F2FBD5F2FBD5F2FBD5F2FBD582
:104F9000F2FBD5F2FBD5F2FBD5F2FBD5F2FBD3F059
:104FA000F9D3F0F9D3F0F9D3F0F9D3F0F9D3F0F95C
:104FB000D3F0F9D3F0F9D5F2FBD5F2FBD5F2FBD55E
:104FC000F2FBD5F2FBD5F2FBD5F2FBD5F2FBD5F225
:104FD000FBD5F2FBD5F2FBD5F2FBD5F2FBD5F2FB0C
:104FE000D5F2FBD5F2FBD3F0F9D3F0F9D3F0F9D336
:104FF000F0F9D3F0F9D3F0F9D3F0F9D3F0F9D5F211
:10500000FBD5F2FBD5F2FBD5F2FBD5F2FBD5F2FBDB
:10501000D5F2FBD5F2FBD5F2FBD5F2FBD5F2FBD5F1
:10502000F2FBD5F2FBD5F2FBD5F2FBD5F2FBD5F2C4
:10503000FBD5F2FBD5F2FBD5F2FBD5F2FBD5F2FBAB
:10504000D5F2FBD5F2FBD4F1FAD4F1FAD4F1FAD4CB
:10505000F1FAD4F1FAD4F1FAD4F1FAD4F1FAD5F2A2
:10506000FBD5F2FBD5F2FBD5F2FBD5F2FBD5F2FB7B
:10507000D5F2FBD5F2FBD5F2FBD5F2FBD5F2FBD591
:10508000F2FBD5F2FBD5F2FBD5F2FBD5F2FBD5F264
:10509000FBD5F2FBD5F2FBD5F2FBD5F2FBD5F2FB4B
:1050A000D5F2FBD5F2FBD5F2FBD5F2FBD5F2FBD561
:1050B000F2FBD5F2FBD5F2FBD5F2FBD5F2FBD5F234
:1050C000FBD5F2FBD5F2FBD5F2FBD5F2FBD5F2FB1B
:1050D000D5F2FBD5F2FBD5F2FBD5F2FBD5F2FBD531
:1050E000F2FBD5F2FBD5F2FBD5F2FBD5F2FBD5F204
:1050F000FBD5F2FBD5F2FBD5F2FBD5F2FBD5F2FBEB
:10510000D5F2FBD5F2FBD5F2FBD5F2FBD5F2FBD500
:10511000F2FBD5F2FBD5F2FBD5F2FBD5F2FBD5F2D3
:10512000FBD5F2FBD5F2FBD5F2FBD5F2FBD5F2FBBA
:10513000D5F2FBD5F2FBD4F1FAD4F1FAD4F1FAD4DA
:10514000F1FAD4F1FAD4F1FAD4F1FAD4F1FAD5F2B1
:10515000FBD5F2FBD5F2FBD5F2FBD5F2FBD5F2FB8A
:10516000D5F2FBD5F2FBD5F2FBD5F2FBD5F2FBD5A0
:10517000F2FBD5F2FBD5F2FBD5F2FBD5F2FBD5F273
:10518000FBD5F2FBD5F2FBD5F2FBD5F2FBD5F2FB5A
:10519000D5F2FBD5F2FBD5F2FBD5F2FBD5F2FBD570
:1051A000F2FBD5F2FBD5F2FBD5F2FBD5F2FBD5F243
:1051B000FBD5F2FBD5F2FBD5F2FBD5F2FBD5F2FB2A
:1051C000D5F2FBD5F2FBD5F2FBD5F2FBD5F2FBD540
:1051D000F2FBD5F2FBD5F2FBD5F2FBD5F2FBD5F213
:1051E000FBD5F2FBD5F2FBD5F2FBD5F2FBD5F2FBFA
:1051F000D5F2FBD5F2FBD5F2FBD5F2FBD5F2FBD510
:10520000F2FBD5F2FBD5F2FBD5F2FBD5F2FBD5F2E2
:10521000FBD5F2FBD5F2FBD5F2FBD5F2FBD5F2FBC9
:10522000D5F2FBD5F2FBD4F1FAD4F1FAD4F1FAD4E9
:10523000F1FAD4F1FAD4F1FAD4F1FAD4F1FAD5F2C0
:10524000FBD5F2FBD5F2FBD5F2FBD5F2FBD5F2FB99
:10525000D5F2FBD5F2FBD5F2FBD5F2FBD5F2FBD5AF
:10526000F2FBD5F2FBD5F2FBD5F2FBD5F2FBD4F184
:10527000FAD4F1FAD4F1FAD4F1FAD4F1FAD4F1FA79
:10528000D4F1FAD4F1FAD5F2FBD5F2FBD5F2FBD585
:10529000F2FBD5F2FBD5F2FBD5F2FBD5F2FBD5F252
:1052A000FBD5F2FBD5F2FBD5F2FBD5F2FBD5F2FB39
:1052B000D5F2FBD5F2FBD5F2FBD5F2FBD5F2FBD54F
:1052C000F2FBD5F2FBD5F2FBD5F2FBD5F2FBD5F222
:1052D000FBD5F2FBD5F2FBD5F2FBD5F2FBD5F2FB09
:1052E000D5F2FBD5F2FBD5F2FBD5F2FBD5F2FBD51F
:1052F000F2FBD5F2FBD5F2FBD5F2FBD5F2FBD4F1F4
:10530000FAD4F1FAD4F1FAD4F1FAD4F1FAD4F1FAE8
:10531000D4F1FAD4F1FAD4F1FAD4F1FAD4F1FAD4FE
:10532000F1FAD4F1FAD4F1FAD4F1FAD4F1FAD5F2CF
:10533000FBD5F2FBD5F2FBD5F2FBD5F2FBD5F2FBA8
:10534000D5F2FBD5F2FBD5F2FBD5F2FBD5F2FBD5BE
:10535000F2FBD5F2FBD5F2FBD5F2FBD5F2FBD4F193
:10536000FAD4F1FAD4F1FAD4F1FAD4F1FAD4F1FA88
:10537000D4F1FAD4F1FAD5F2FBD5F2FBD5F2FBD594
:10538000F2FBD5F2FBD5F2FBD5F2FBD5F2FBD5F261
:10539000FBD5F2FBD5F2FBD5F2FBD5F2FBD5F2FB48
:1053A000D5F2FBD5F2FBD4F1FAD4F1FAD4F1FAD468
:1053B000F1FAD4F1FAD4F1FAD4F1FAD4F1FAD5F23F
:1053C000FBD5F2FBD5F2FBD5F2FBD5F2FBD5F2FB18
:1053D000D5F2FBD5F2FBD5F2FBD5F2FBD5F2FBD52E
:1053E000F2FBD5F2FBD5F2FBD5F2FBD5F2FBD5F201
:1053F000FBD5F2FBD5F2FBD5F2FBD5F2FBD5F2FBE8
:10540000D5F2FBD5F2FBD6F3FCD6F3FCD6F3FCD6F3
:10541000F3FCD6F3FCD6F3FCD6F3FCD6F3FCD5F2C2
:10542000FBD5F2FBD5F2FBD5F2FBD5F2FBD5F2FBB7
:10543000D5F2FBD5F2FBD5F2FBD5F2FBD5F2FBD5CD
:10544000F2FBD5F2FBD5F2FBD5F2FBD5F2FBD5F2A0
:10545000FBD5F2FBD5F2FBD5F2FBD5F2FBD5F2FB87
:10546000D5F2FBD5F2FBD5F2FBD5F2FBD5F2FBD59D
:10547000F2FBD5F2FBD5F2FBD5F2FBD5F2FBD5F270
:10548000FBD5F2FBD5F2FBD5F2FBD5F2FBD5F2FB57
:10549000D5F2FBD5F2FBD5F2FBD5F2FBD5F2FBD56D
:1054A000F2FBD5F2FBD5F2FBD5F2FBD5F2FBD5F240
:1054B000FBD5F2FBD5F2FBD5F2FBD5F2FBD5F2FB27
:1054C000D5F2FBD5F2FBD5F2FBD5F2FBD5F2FBD53D
:1054D000F2FBD5F2FBD5F2FBD5F2FBD5F2FBD5F210
:1054E000FBD5F2FBD5F2FBD5F2FBD5F2FBD5F2FBF7
:1054F000D5F2FBD5F2FBD6F3FCD6F3FCD6F3FCD603
:10550000F3FCD6F3FCD6F3FCD6F3FCD6F3FCD5F2D1
:10551000FBD5F2FBD5F2FBD5F2FBD5F2FBD5F2FBC6
:10552000D5F2FBD5F2FBD5F2FBD5F2FBD5F2FBD5DC
:10553000F2FBD5F2FBD5F2FBD5F2FBD5F2FBD5F2AF
:10554000FBD5F2FBD5F2FBD5F2FBD5F2FBD5F2FB96
:10555000D5F2FBD5F2FBD5F2FBD5F2FBD5F2FBD5AC
:10556000F2FBD5F2FBD5F2FBD5F2FBD5F2FBD5F27F
:10557000FBD5F2FBD5F2FBD5F2FBD5F2FBD5F2FB66
:10558000D5F2FBD5F2FBD5F2FBD5F2FBD5F2FBD57C
:10559000F2FBD5F2FBD5F2FBD5F2FBD5F2FBD5F24F
:1055A000FBD5F2FBD5F2FBD5F2FBD5F2FBD5F2FB36
:1055B000D5F2FBD5F2FBD5F2FBD5F2FBD5F2FBD54C
:1055C000F2FBD5F2FBD5F2FBD5F2FBD5F2FBD5F21F
:1055D000FBD5F2FBD5F2FBD5F2FBD5F2FBD5F2FB06
:1055E000D5F2FBD5F2FBD6F3FCD6F3FCD6F3FCD612
:1055F000F3FCD6F3FCD6F3FCD6F3FCD6F3FCD5F2E1
:10560000FBD5F2FBD5F2FBD5F2FBD5F2FBD5F2FBD5
:10561000D5F2FBD5F2FBD5F2FBD5F2FBD5F2FBD5EB
:10562000F2FBD5F2FBD5F2FBD5F2FBD5F2FBD6F3BC
:10563000FCD6F3FCD6F3FCD6F3FCD6F3FCD6F3FC95
:10564000D6F3FCD6F3FCD5F2FBD5F2FBD5F2FBD5B5
:10565000F2FBD5F2FBD5F2FBD5F2FBD5F2FBD5F28E
:10566000FBD5F2FBD5F2FBD5F2FBD5F2FBD5F2FB75
:10567000D5F2FBD5F2FBD5F2FBD5F2FBD5F2FBD58B
:10568000F2FBD5F2FBD5F2FBD5F2FBD5F2FBD5F25E
:10569000FBD5F2FBD5F2FBD5F2FBD5F2FBD5F2FB45
:1056A000D5F2FBD5F2FBD5F2FBD5F2FBD5F2FBD55B
:1056B000F2FBD5F2FBD5F2FBD5F2FBD5F2FBD6F32C
:1056C000FCD6F3FCD6F3FCD6F3FCD6F3FCD6F3FC05
:1056D000D6F3FCD6F3FCD6F3FCD6F3FCD6F3FCD61B
:1056E000F3FCD6F3FCD6F3FCD6F3FCD6F3FCD5F2F0
:1056F000FBD5F2FBD5F2FBD5F2FBD5F2FBD5F2FBE5
:10570000D5F2FBD5F2FBD5F2FBD5F2FBD5F2FBD5FA
:10571000F2FBD5F2FBD5F2FBD5F2FBD5F2FBD6F3CB
:10572000FCD6F3FCD6F3FCD6F3FCD6F3FCD6F3FCA4
:10573000D6F3FCD6F3FCD5F2FBD5F2FBD5F2FBD5C4
:10574000F2FBD5F2FBD5F2FBD5F2FBD5F2FBD5F29D
:10575000FBD5F2FBD5F2FBD5F2FBD5F2FBD5F2FB84
:10576000D5F2FBD5F2FBD6F3FCD6F3FCD6F3FCD690
:10577000F3FCD6F3FCD6F3FCD6F3FCD6F3FCD5F25F
:10578000FBD5F2FBD5F2FBD5F2FBD5F2FBD5F2FB54
:10579000D5F2FBD5F2FBD5F2FBD5F2FBD5F2FBD56A
:1057A000F2FBD5F2FBD5F2FBD5F2FBD5F2FBD5F23D
:1057B000FBD5F2FBD5F2FBD5F2FBD5F2FBD5F2FB24
:1057C000D5F2FBD5F2FBD7F4FDD7F4FDD7F4FDD726
:1057D000F4FDD7F4FDD7F4FDD7F4FDD7F4FDD5F2F1
:1057E000FBD5F2FBD5F2FBD5F2FBD5F2FBD5F2FBF4
:1057F000D5F2FBD5F2FBD5F2FBD5F2FBD5F2FBD50A
:10580000F2FBD5F2FBD5F2FBD5F2FBD5F2FBD5F2DC
:10581000FBD5F2FBD5F2FBD5F2FBD5F2FBD5F2FBC3
:10582000D5F2FBD5F2FBD5F2FBD5F2FBD5F2FBD5D9
:10583000F2FBD5F2FBD5F2FBD5F2FBD5F2FBD5F2AC
:10584000FBD5F2FBD5F2FBD5F2FBD5F2FBD5F2FB93
:10585000D5F2FBD5F2FBD5F2FBD5F2FBD5F2FBD5A9
:10586000F2FBD5F2FBD5F2FBD5F2FBD5F2FBD5F27C
:10587000FBD5F2FBD5F2FBD5F2FBD5F2FBD5F2FB63
:10588000D5F2FBD5F2FBD5F2FBD5F2FBD5F2FBD579
:10589000F2FBD5F2FBD5F2FBD5F2FBD5F2FBD5F24C
:1058A000FBD5F2FBD5F2FBD5F2FBD5F2FBD5F2FB33
:1058B000D5F2FBD5F2FBD7F4FDD7F4FDD7F4FDD735
:1058C000F4FDD7F4FDD7F4FDD7F4FDD7F4FDD5F200
:1058D000FBD5F2FBD5F2FBD5F2FBD5F2FBD5F2FB03
:1058E000D5F2FBD5F2FBD5F2FBD5F2FBD5F2FBD519
:1058F000F2FBD5F2FBD5F2FBD5F2FBD5F2FBD5F2EC
:10590000FBD5F2FBD5F2FBD5F2FBD5F2FBD5F2FBD2
:10591000D5F2FBD5F2FBD5F2FBD5F2FBD5F2FBD5E8
:10592000F2FBD5F2FBD5F2FBD5F2FBD5F2FBD5F2BB
:10593000FBD5F2FBD5F2FBD5F2FBD5F2FBD5F2FBA2
:10594000D5F2FBD5F2FBD5F2FBD5F2FBD5F2FBD5B8
:10595000F2FBD5F2FBD5F2FBD5F2FBD5F2FBD5F28B
:10596000FBD5F2FBD5F2FBD5F2FBD5F2FBD5F2FB72
:10597000D5F2FBD5F2FBD5F2FBD5F2FBD5F2FBD588
:10598000F2FBD5F2FBD5F2FBD5F2FBD5F2FBD5F25B
:10599000FBD5F2FBD5F2FBD5F2FBD5F2FBD5F2FB42
:1059A000D5F2FBD5F2FBD7F4FDD7F4FDD7F4FDD744
:1059B000F4FDD7F4FDD7F4FDD7F4FDD7F4FDD5F20F
:1059C000FBD5F2FBD5F2FBD5F2FBD5F2FBD5F2FB12
:1059D000D5F2FBD5F2FBD5F2FBD5F2FBD5F2FBD528
:1059E000F2FBD5F2FBD5F2FBD5F2FBD5F2FBD7F4F7
:1059F000FDD7F4FDD7F4FDD7F4FDD7F4FDD7F4FDC2
:105A0000D7F4FDD7F4FDD5F2FBD5F2FBD5F2FBD5EB
:105A1000F2FBD5F2FBD5F2FBD5F2FBD5F2FBD5F2CA
:105A2000FBD5F2FBD5F2FBD5F2FBD5F2FBD5F2FBB1
:105A3000D5F2FBD5F2FBD5F2FBD5F2FBD5F2FBD5C7
:105A4000F2FBD5F2FBD5F2FBD5F2FBD5F2FBD5F29A
:105A5000FBD5F2FBD5F2FBD5F2FBD5F2FBD5F2FB81
:105A6000D5F2FBD5F2FBD5F2FBD5F2FBD5F2FBD597
:105A7000F2FBD5F2FBD5F2FBD5F2FBD5F2FBD7F466
:105A8000FDD7F4FDD7F4FDD7F4FDD7F4FDD7F4FD31
:105A9000D7F4FDD7F4FDD7F4FDD7F4FDD7F4FDD747
:105AA000F4FDD7F4FDD7F4FDD7F4FDD7F4FDD5F21E
:105AB000FBD5F2FBD5F2FBD5F2FBD5F2FBD5F2FB21
:105AC000D5F2FBD5F2FBD5F2FBD5F2FBD5F2FBD537
:105AD000F2FBD5F2FBD5F2FBD5F2FBD5F2FBD7F406
